:04C000006F20804AE3
:10C004000000000000000000900000203A0700201B
:10C01400A9BDF9F594000020000000000000000014
:10C02400960000209800002000000000000000009E
:10C034009A000020000000009C0000200000000086
:10C044009E0000201603002026040020A4000020E7
:10C05400A6000020A8000020AA000020AC000020B8
:10C06400AE000020B0000020C60000205A010020CD
:10C07400B6070020B8000020BA000020BC00002051
:10C08400BE000020EE01002082020020C400002037
:10C0940001A001A001A001A001A001A001A001A094
:10C0A40001A001A001A001A001A001A001A001A084
:10C0B40001A001A001A001A001A001A001A001A074
:10C0C40001A001A001A037370040834747009946EB
:10C0D4004111BD8B638CD70231476384E706114756
:10C0E400639EE702A303010017460000034646517E
:10C0F40037370040834771006315F6022C0013851F
:10C104004174977001E0E78040FB09A8834757001A
:10C1140093F7F70F2304F100834781004101730073
:10C12400203083477100834687000C08AE97238C28
:10C13400D7FE83477100850793F7F70FA303F10038
:10C1440055BF280097E001E0E78060471375F50FBD
:10C15400A303A1000346710055B737370040834756
:10C16400474099464111BD8B638CD70231476384A4
:10C17400E7061147639EE702A30301001746000088
:10C184000346264837370040834771006315F6029B
:10C194002C0013858175977001E0E78000F209A8EF
:10C1A4008347574093F7F70F2304F1008347810037
:10C1B40041017300203083477100834687400C0897
:10C1C400AE97238CD7FE83477100850793F7F70F4B
:10C1D400A303F10055BF280097E001E0E780E04F9A
:10C1E4001375F50FA303A1000346710055B7374734
:10C1F40000408347478099464111BD8B638CD70229
:10C2040031476384E7061147639EE702A3030100F5
:10C21400174600000346D63E374700408347710067
:10C224006315F6022C001385C176977001E0E78050
:10C23400C0E809A88347578093F7F70F2304F10058
:10C244008347810041017300203083477100834696
:10C2540087800C08AE97238CD7FE8347710085072F
:10C2640093F7F70FA303F10055BF280097E001E00F
:10C27400E78060581375F50FA303A100034671000E
:10C2840055B737470040834747C099464111BD8B96
:10C29400638CD70231476384E7061147639EE70244
:10C2A400A303010017460000034686763747004083
:10C2B400834771006315F6022C001385017897708B
:10C2C40001E0E78080DF09A8834757C093F7F70FA1
:10C2D4002304F10083478100410173002030834728
:10C2E4007100834687C00C08AE97238CD7FE834722
:10C2F4007100850793F7F70FA303F10055BF2800DA
:10C3040097E001E0E780E0601375F50FA303A10057
:10C314000346710055B7371700408357C709C20752
:10C32400C18393F60720A1C69756000083C60688EA
:10C33400850617560000230BD68697460000938681
:10C34400267E944293E6064017460000232AD67CB4
:10C3540093060020231ED7088326470A93F6062057
:10C36400D9CE8326C70A93E606202326D70A056773
:10C3740013070780B3F6E7009DCE97460000938627
:10C38400267A944237061000D18E174600002329DE
:10C39400D678B716004003A6460A798E25CA03A6A6
:10C3A400C60A518F23A6E60A0567B716004013078D
:10C3B4000780239EE60893F70740A1C39747000030
:10C3C400938707769C4337078000D98F174700006F
:10C3D4002328F774B717004003A7470A13770740C9
:10C3E40005CF03A7C70A1367074023A6E70AB717B1
:10C3F400004013070040239EE70873002030832683
:10C40400870A93E606202324D70A95B703A6860A4B
:10C41400518F23A4E60A49BF03A7870A136707407D
:10C4240023A4E70AE9B7411126C4B714004083D70F
:10C43400E40983D7E40922C6056413040480E18F68
:10C4440089CBA145014597C001E0E780E059239FCE
:10C4540084083244A244410173002030411122C4B3
:10C46400174400001304C46B1C4006C613F70740AE
:10C4740021C713974701634A07028D45094597C0B1
:10C4840001E0E78060569145174500000345856A41
:10C49400972002E0E780207497C504E09385052780
:10C4A400254597B001E0E780609B1C4093F7F7BFF8
:10C4B400174700002326F7661C401397B700635EF6
:10C4C4000704371700408326470A056713070780C8
:10C4D400F98E9DCAF98F8DEB8D45094597C001E012
:10C4E400E78080509145174500000345A5649720D7
:10C4F40002E0E780406E97C504E093852522254538
:10C5040097B001E0E78080951C403707F0FF7D1766
:10C51400F98F174700002325F7601C401397870005
:10C5240063510706370780FF7D17F98F174700000F
:10C534002328F75E371700400327470A856693864A
:10C544000680F58F13770740D98F85E38D4509451C
:10C5540097C001E0E7804049914517450000034535
:10C56400655D972002E0E78000672244B24097C5EA
:10C5740004E09385651B2545410117B301E067007D
:10C58400E38DB240224441018280B71700409306F4
:10C5940070052380D704130780FA2380E704010081
:10C5A400010003C6B7041376F60DA385C7042380E0
:10C5B4000704137605024DC203C6A700118A1DE2C3
:10C5C4002380D7042380E7040100010003C7A700E8
:10C5D400136747002385E7009307004B0100010020
:10C5E400FD17EDFFB7170040930670052380D704AD
:10C5F400130780FA2380E704010001007D89239456
:10C60400A70001000100010001002380070423802A
:10C61400D7042380E704010001000100010037274B
:10C62400004093061005A303D78023800704B7179F
:10C634000040130770052380E704130780FA238062
:10C64400E7040100010003C7B70413670708A385C3
:10C65400E7042380070482801376050441C603C6D9
:10C66400A700418A1DE22380D7042380E704010048
:10C67400010003C7A700136707012385E700930799
:10C68400007D01000100FD17EDFFB7170040930680
:10C6940070052380D704130780FA2380E704010080
:10C6A40001001376F501136606042394C700010004
:10C6B400010001000100238007042380D70413062E
:10C6C40060042380E7046318C500010001003727D4
:10C6D4000040894689BF01000100372700409306C6
:10C6E400200591B72380D7042380E70401000100CB
:10C6F40003D787001367070C2394E7000DBF41118C
:10C70400814601468145114506C6512AB7170040A6
:10C71400130770052380E704130780FA2380E704D6
:10C724000100010003C76704136717002383E704AC
:10C7340023800704B240410182808146014681453D
:10C744001145B12AB7170040930670052380D7041A
:10C75400130780FA2380E704010001007D56239625
:10C76400C7022380D7042380E7040100010003C724
:10C774006704136717002383E7042380070401A0D9
:10C78400BD473305F50201007D1575FD8280411119
:10C7940022C426C206C6AA84014463179400B24088
:10C7A400224492444101828005041305803E4204E0
:10C7B400C13F4180DDB7B71700401307000323884A
:10C7C400E7028547174700002320F7407300203015
:10C7D400411106C6AD2D5931978001E0E78020ACA8
:10C7E400D5BF2303048015472303E48001002302FB
:10C7F400A480828083076480E3CE07FE2303048041
:10C80400828083076480E3CE07FE034544808280F0
:10C8140083076480E3CE07FE2302A4808280411153
:10C8240026C44AC24EC006C61377F50BAD47AA8983
:10C834002E8995446306F70019456537653F8D4495
:10C844004E854537FD59FD1463983401B240A24426
:10C854001249824941018280135509011375F50F6C
:10C86400453F2209CDB7011126CC06CEB7040800F6
:10C8740051371545BD37713769372AC6A53F32454B
:10C884009377150089EB136515001375F50FF240C6
:10C89400E24405618280FD14E9FC0145CDBF397194
:10C8A40026DC4ADA4ED852D656D45AD25ED006DEA8
:10C8B40062CE66CCB7E700E07D5783AA070022C6A4
:10C8C40003AA470023A0E71823A2E718B7170040DC
:10C8D400130770052380E704130780FA2380E70415
:10C8E40083C74704930B75FFB684E20793FBFB0FE2
:10C8F4008546AA892E8B328937240040E187015767
:10C9040063FA76016308D5008946130700026313AE
:10C91400D5000157D98F93F7F70FB71C0040238236
:10C92400FC0411472303E4801305F00F5D3D094C1B
:10C93400D135636D7C11B7050700DA953787070099
:10C94400795563F2E504B3879500636EF702370BFC
:10C954000800A94733EB65016399F90689E481442A
:10C96400513D26850DA0DA850945553D0509034548
:10C97400F9FFFD14050B693D81C49377FB0FFDF7A7
:10C98400DD3569FD7D55B717004013077005238019
:10C99400E704130780FA2380E70403C74704418BA5
:10C9A4002382E704F250B7E700E023A0571123A243
:10C9B4004711E25432445259C259325AA25A125BB4
:10C9C400825B724CE24C21618280A5476395F90633
:10C9D40085691309F00FB3069900B3742B01B6945B
:10C9E4001349F9FFB3749900856B33796901416B7D
:10C9F4009387F9FFB3F7270199E363FC340193D9D3
:10CA04004900C147E3E637FF99BF0569C1697D194C
:10CA1400D9B71305800D6388690113050002638487
:10CA2400790113051008CA85DD3B353D21DD4E999A
:10CA3400B3843441D9B7DA852D45D533CA94E3009C
:10CA440099F205097D3BA30FA9FED5BF9387F9FF92
:10CA540093F7F70F6361FC0C83C71C0413073008BA
:10CA6400631FF70437070800636BEB04B3079B00ED
:10CA7400B706100063F5D704334BEB008947639383
:10CA8400F9068980D549E38C04ECDA850945413BF4
:10CA940011090327C9FF91472320E4800307648019
:10CAA400E34E07FE23033481FD17EDFBFD14110B48
:10CAB40081C49377FB0FE9FF7D3371F5E1B5B717B7
:10CAC400004003C75704B70708001377070219E3A8
:10CAD400B78707007955E378FBEA33079B00E3FF48
:10CAE400E7F855B58547E382F9F2DA852D45053B2C
:10CAF4009389F4FFE38504E6293393F7390091EB36
:10CB0400832604800327090093074900E39AE6E497
:10CB14003E89CE84F1BFB5476396F9001305900BA7
:10CB2400C93135BDB1471305B00AE38BF9FE994706
:10CB34006391F904B7050800B365BB002D45C53101
:10CB440081448D4BA1497539639674018327048010
:10CB54002320F9008504E39834FF83270480131706
:10CB64002B01635507002312F900D5BB2322F900DA
:10CB7400FDB39D476399F90281451305B00445311E
:10CB8400BD442320090023220900FD599D3993F750
:10CB94007400CA9703C70700FD14398D2380A700CA
:10CBA400E39634FF6DBBA1476392F9046D39814468
:10CBB400630D0B008D479304C0036308FB009304CB
:10CBC400000563048B01930440041375C507E3084F
:10CBD40095D81945393139390545213126850D391D
:10CBE40009453D314931E31C05D669BB9147639939
:10CBF400F90013056006F536F53E130590090DB7E7
:10CC0400E38F09D4F154A9BB19CD91CD09CE814745
:10CC14003387F500834607003307F50085072300B3
:10CC2400D700E317F6FE828019C991C909CA910594
:10CC340083A7C5FF11057D16232EF5FEC5BF82808F
:10CC440001C919C62A960505A30FB5FEE31DA6FE64
:10CC5400828081473307F5000307070019E33E8507
:10CC640082808507C5BF01112E8626CAAA841315A2
:10CC740006019305F004418122CC06CE32C6EF10A2
:10CC840040592A8401C53246A685BD3F2285F2401B
:10CC94006244D24405618280854715C18DC105C2B5
:10CCA4008147B306F5003387F50083C606000347C2
:10CCB40007006398E6008507E315F6FE85473E8581
:10CCC40082808147EDBF9307F6FFBE952A966313D2
:10CCD400C5008280FD1583C715000505A30FF5FE69
:10CCE400FDB7AA87014581CF09CE3E96850703C7C4
:10CCF400F7FF6317B700E39BC7FE05458280828078
:10CD0400014582807971975700009387677622D412
:10CD1400804306D626D24AD04ECE52CC56CA5AC8E2
:10CD24005EC662C45DCC37C9C901814B175A000085
:10CD3400130A8A78975400009384C4731309F9374B
:10CD4400975A0000938A8A6DB709C0A8370B4057D9
:10CD54008357240095E35C44639D0B001757000040
:10CD64002328F770032CC4002285EF10A057628497
:10CD740099A823A6FB00FDB783270A008297838620
:10CD840064011C4463DB06063307F5406367E90866
:10CD94009757000023AC076883552400034504001B
:10CDA400972002E0E78020E35C405844A9CF144474
:10CDB400B6978386640163C5060063E33701DA9797
:10CDC4001CC4A28B3A8449F49757000093870765E3
:10CDD4009C4B09476378F706F91717570000232778
:10CDE400F764B250225492540259F249624AD24A28
:10CDF400424BB24B224C45618280E377F5F833878E
:10CE0400F9402A9761B763970B009757000023A155
:10CE1400E76689BF23A6EB00B1B7D85009CF63DF1B
:10CE240006003385A74083A70A016376F500975768
:10CE3400000023ADA75EA28B404471B7E3F3A7FEC5
:10CE4400CE97C5B79757000023A2075E59BF41117B
:10CE540022C4175400001304645F1C4006C626C293
:10CE64004AC091C782979757000023A1075E5C4090
:10CE740091C382971C406391071C9757000083C796
:10CE8400777B858B9DC797570000A385077A175733
:10CE940000000347577A954763FDE700EF0010371A
:10CEA4009757000083C73779F5178A07A2979C43E1
:10CEB4008297175900001309A97B8347C900918BF6
:10CEC40099C3EF1060281C4491C3829797540000C3
:10CED4009384C45998401756000003463654975714
:10CEE400000083C7A75393961700BA9683D606000B
:10CEF400D5CA9757000083C7675263EFC70A97578D
:10CF04000000238D07501C406398071297570000B8
:10CF140083C7977291CF9757000083C7D77189EB66
:10CF240097570000A38A0770977003E0E780E069D1
:10CF340097570000938747589C43638F070EB707A2
:10CF4400C0A8175700002323F74E6D3B97570000E6
:10CF540093874752DC53EDC3175700001307074C60
:10CF6400184B9757000083C737526367F70C17575E
:10CF740000000347576C954763E0E70C8347C900FB
:10CF8400918BDDEB90409756000083C6364963CB06
:10CF9400D70A2244B240924402494101172302E0D5
:10CFA400670083A0850793F7F70F97560000238740
:10CFB400F646E3E6C7F235BF86073E97835507007A
:10CFC40023100700975700002390074A9757000043
:10CFD400938787479C43175500000345254413173F
:10CFE4002500BA979C4382979757000083D7C74779
:10CFF400175700000347874293C7F7FF7D8D9317A8
:10D00400170098403E97835707005D8D2310A700B3
:10D014009757000083C7874091C7850717570000BB
:10D02400230EF73E175700000347473F975700006A
:10D0340083C7D73EE375F7ECB240224492440249D9
:10D0440041018280139717003297035707006DF749
:10D05400850735BFAD6737C70040BD072326F720D6
:10D064000F100000975700009387473BC84F832752
:10D074008726BD66BD0693C7F7FF99836A052326F5
:10D08400D7205D8D82804111B7170040985F3AC662
:10D09400945F3247E39CE6FE324541018280828000
:10D0A4000327851163000712411122C406C6834772
:10D0B400C5008345C5042A8493F7C70F2306F500EA
:10D0C400834697000356C70013958601618563F173
:10D0D400C508635A05060345870093F6F607A304BB
:10D0E400D700054693E627006314C50093E61700AE
:10D0F4002306D4005C4389075CC3A30AB400032558
:10D1040004112E864C4309050136832784110346F6
:10D114005401D44303D7C700B296118FD4C32396C6
:10D12400E7008947A30DF400034744039757000021
:10D1340083C767356378F7048347C40093E707011F
:10D144002306F40081A093E717002306F40075B7C3
:10D154009376F60F635D050203458700854513E664
:10D1640027006314B50013E617002306C400A30ABE
:10D17400D400A30407008547A30DF400832784117A
:10D184009C43DDF3B240224401454101828093E790
:10D1940017002306F400A30AD400A3040700032500
:10D1A40004114C4309058D3483278411034654012B
:10D1B400D44303D7C700B296118FD4C32396E70094
:10D1C4008D475DBF05458280975700009387C7440C
:10D1D4009C43411122C406C6858B2A84C5EF416550
:10D1E400130525F5971003E0E780805145C5834773
:10D1F400A5002315F50083270412BDE72320A412FC
:10D204002322A41285472310F40423200500834716
:10D21400640154412316F5000347D4002304E500B8
:10D224000547A304E5001757000013076740184F8C
:10D234001385170215811C437D151375F50F9CC2C8
:10D244005C43DCC21C479CC65C47DCC61C4B9CCAC6
:10D254005C4BDCCA1C4F9CCE5C4FDCCE19CD938654
:10D26400060213070702C1BF8327441288C38357EA
:10D2740004042322A412850779B79757000083D7A3
:10D284006748850717570000231EF746B24022441B
:10D29400410182808347C40023090400054593C7E4
:10D2A40047002306F400DDB78347850193F7E70FB2
:10D2B400D5EF83479501DDEB034625018346C50081
:10D2C40009CA83454503175700000347D71B63E783
:10D2D400E50013F7060141CF014709C6C18A035788
:10D2E400651C81C68356A51C369751C31307C71204
:10D2F4001755000003550515B335A70237460F002F
:10D30400411113060624814622C426C206C67D5452
:10D314003305A702971004E0E780E0639757000005
:10D3240083C7D716B384A700975700009387073D98
:10D3340003A707098327070963F387003E8418437B
:10D3440075FB97570000938727179C438297814763
:10D354006364A400B307A440B2402244B3B7970067
:10D3640093C7170092443E854101828081473E85E0
:10D374008280797126D206D622D44AD04ECE52CC9F
:10D3840056CA5AC85EC68347350303447513AA8434
:10D394003E941374F40F9307400263F6870013045A
:10D3A400B4FD1374F40F03AA841383AAC413A38BC8
:10D3B400841222865285D685971004E0E780205493
:10D3C400058915E503CBD41201498149337B6403F4
:10D3D400930B50024A865285D685971004E0E78065
:10D3E4000052058915C5639169031374F90F238BE2
:10D3F4008412B250225492540259F249624AD24AD7
:10D40400424BB24B456182808509E20993D9894137
:10D414000509E31179FDE1BF832785090356E50377
:10D42400797193D60701BD8EC206C182358E13571A
:10D43400764093575640898B058B5D8F93573640C2
:10D44400918B5D8F93571640A18B5D8F93171600B8
:10D45400C18B5D8F9317360093F707025D8F931787
:10D4640056009355860093F707041E065D8F1376C6
:10D47400F60F518F93D7554013D63540118A898BB7
:10D48400D18F13D67540D18F13D61540218AD18FF1
:10D4940013961500418AD18F139635001376060230
:10D4A400D18F13965500137606049E05D18F93F5FC
:10D4B400F50FCD8FA20745465D8F3307C70222D4EF
:10D4C4002A8426D252CC56CA032A8413832AC4132C
:10D4D4005AC806D636974207418393577740135567
:10D4E40057400989858BC98F135537401189C98FD6
:10D4F400135517402189C98F131517004189C98F06
:10D504001315370013750502C98F1315570093556A
:10D514008700137505041E07C98F1377F70FD98F7A
:10D5240013D5354013D755401189098B498F13D52D
:10D534007540498F13D515402189498F13951500DE
:10D544004189498F1395350013750502498F139549
:10D554005500137505049E05498F93F5F50F4D8FFE
:10D564002207D98FB387C7024AD04ECE5EC662C4A3
:10D57400B697C207C18313D7774013D5574009899B
:10D58400058B498F13D537401189498F13D517401F
:10D594002189498F139517004189498F13953700C5
:10D5A40013750502498F1395570093D5870013759A
:10D5B40005049E07498F93F7F70FD98F13D535408C
:10D5C40013D755401189098B498F13D57540498F5D
:10D5D40013D515402189498F139515004189498F29
:10D5E4001395350013750502498F1395550013756E
:10D5F40005049E05498F93F5F50F4D8F2207D98FAA
:10D60400B387C702130650025285D685B697BD8EDE
:10D6140093940601C18033F6C402137BF60F97106E
:10D6240004E0E780C02D05890DED8347D41201493C
:10D634008149B3849702130C5002C1804A865285F3
:10D64400D685971004E0E780802B0589937BF90F3A
:10D6540011C563863403850993F9F90F0509E31F9E
:10D6640089FD230B6413B250225492540259F24997
:10D67400624AD24A424BB24B224C456182805E8B55
:10D68400CDB70111975700009387470722CC03A415
:10D69400470B26CA06CE2AC42EC6854419E4014582
:10D6A400F2406244D244056182808347910003477B
:10D6B4001400858B6304F7000044CDB71946930525
:10D6C400A10013052400EFF02FDDE31795FE0545B7
:10D6D400C1BF011122CC17540000130424F71840D1
:10D6E4002AC62EC432C206CE3C4B93F7F7F73CCB86
:10D6F400977003E0E78020EA18409756000093866D
:10D7040026F23C4B93E707083CCB9C423245A245AA
:10D7140023A00700034715000348250022074208F9
:10D724004297034805004297034835006208429730
:10D7340098D70347550003486500220742084297DB
:10D744000348450042970348750062084297D8D7BA
:10D75400034795000348A50022074208429703485F
:10D76400850042970348B5006208429798DB034757
:10D77400D5000348E5002207420842970348C50044
:10D784000345F500429762052A97D8DB03C71500C5
:10D7940003C52500220742052A9703C505002A97D9
:10D7A40003C5350062052A9798CF03C7550003C502
:10D7B4006500220742052A9703C545002A9703C539
:10D7C400750062052A97D8CF03C7950003C5A50045
:10D7D400220742052A9703C585002A9703C5B50089
:10D7E40062052A9798D303C7D50003C5E50022072D
:10D7F40042052A9703C5C50083C5F5002A97E205AB
:10D804002E97D8D3D843759BD8C3D8431367170032
:10D81400D8C398431367170098C3124698425C43D1
:10D82400858BD1E71C4F01452300F6009C429C4F99
:10D83400A183A300F6009C429C4FC1832301F60000
:10D844009C429C4FE183A301F6009C42D84F2302E3
:10D85400E600D84F2183A302E600D84F4183230377
:10D86400E600D84F6183A303E60098532304E6003F
:10D8740098532183A304E600985341832305E600CB
:10D8840098536183A305E600D8532306E600D853D2
:10D894002183A306E600D85341832307E600DC5323
:10D8A400E183A307F600F24062440561828001002F
:10D8B400B5B7175700001307E7D61443411122C424
:10D8C4009C5E4AC006C6998326C2858B3A84175942
:10D8D40000001309E9D4D1CB9C5E975400009384D3
:10D8E40024D593F7F7F99CDE175700000347A7D414
:10D8F40093070008631BF700832709009C4393F7F1
:10D904000704175700002308F7D283C7040093F7CE
:10D9140007049DC397570000938707BA9C438297D7
:10D924009757000023AEA7D083C7040093F7F70BE3
:10D9340017570000230EF7CE83C7440093F707045C
:10D944008DE7854717570000A306F7CE97570000C9
:10D954009387C7CF9C43096798C7130700FC975662
:10D9640000002389E6CCD844F8D31C40985F118387
:10D97400058B09CB985F3D9B98DF054797560000C0
:10D98400238AE6CA985F1D83058B11CB985F1377B2
:10D99400F7F798DF854717570000230DF7C883274B
:10D9A4000900D8430583058B19C7D843759BD8C391
:10D9B400D843799BD8C3B2402244924402494101DE
:10D9C4008280397106DE16DC1ADA1ED82AD62ED4E5
:10D9D40032D236D03ACE3ECC42CA46C872C676C49B
:10D9E4007AC27EC0F935F250E2525253C2533255D4
:10D9F400A255125682567247E2475248C248324EE6
:10DA0400A24E124F824F21617300203097570000BD
:10DA14009387C7C3944397570000938767C103C78D
:10DA24000700058B11CB97570000238507C0975734
:10DA34000000A38107C0828003C71700058B65F728
:10DA4400F85271FF83C75700DDB717580000130859
:10DA540068BD032708001C5F9583858BD1E709C641
:10DA64001C5BBD832300F60085CA83270800985BEE
:10DA74004607935767016356070093E707C0C20739
:10DA8400C18303970600C207C18709C7BA9709472C
:10DA9400B3C7E7022390F60085CD834715008DCBED
:10DAA4009756000083C626B993F606041387970099
:10DAB40089478DCA3A9503470500854699471376E9
:10DAC400F7066311D60262076187B947634C070002
:10DAD400832708009C5FED838D8B17570000A30EEE
:10DAE400F7B481473E8582808547EDBF411122C44A
:10DAF40006C617540000130464B5184049E9AE87FC
:10DB04007453FDFE3E85B28597570000238307B208
:10DB1400976003E0E780207E97570000938787B0E3
:10DB24009C43B70680009843558F98C3D857719B80
:10DB3400D8D797570000A38F07AE97570000A38943
:10DB440007AE1C40094798C3B7F700E003A707D105
:10DB54006D9B23A8E7D003A707D15D9B23A8E7D03B
:10DB640073005010144017570000130767AC834725
:10DB74002700858B89EB83473700858BD9C7975757
:10DB84000000238907AAB2402244410182808D47C4
:10DB94006310F502975700009387C7A89C43B70604
:10DBA40080009843558F98C3D857719BD8D75DBFD1
:10DBB4008547E319F5FAB567BD075CC70F10000088
:10DBC4001C400967094698C7130700F897560000D8
:10DBD4002382E6A6175700001307C7A414439842EC
:10DBE40031830D8B6319C7001307E043F8D33D67F6
:10DBF4003D07D8C785BF984231830D8B01E71307D2
:10DC04006019EDB71307E01BD5B7FC52ADF3A5BF00
:10DC14005D7152DC175A0000130ACAA003270A00D8
:10DC240086C6A2C4A6C2CAC04EDE1C4397590000D1
:10DC3400938989A617590000130949A193F7F7E7B7
:10DC440093E707081CC383A609003707CEFF7D1797
:10DC54009C46130680022A84F98F9CC683270900F8
:10DC6400130700082800B8CBAE8493051008EFE032
:10DC74003FFD977003E0E7800092977003E0E78030
:10DC8400009F83270A009376F41F370FFCFF23A419
:10DC94000700984B4E88CA881367F70398CBF84F50
:10DCA400130510F8D285137707E0558FF8CF984302
:10DCB400F576FD16758F98C39843B7063300B702FF
:10DCC40004001377F7E798C398439303401F7D1F1D
:10DCD4001377F7E71367071098C303A70900930F97
:10DCE400800285491C47D58F1CC783270900130769
:10DCF400900D3400B8CB11490147135337002693D4
:10DD04008347030013767700B3D7C740858BDDCFF5
:10DD14009C41832E0800239C07042390070603AE2E
:10DD2400CE02137EDEFF23A6CE0383AE0700137E4E
:10DD3400F70793FE0EF833EECE0123A0C70103AE1E
:10DD44004702336E5E0023A2C70383AE0800014E70
:10DD540023A27E0603DA070663074E0303AE070316
:10DD6400038A0600135EFE00620E135E8E41635842
:10DD7400CA0103AE0703135EFE002380C60103DE5F
:10DD84000706137EFE0F03AA4E0663060A0003DA93
:10DD94008705E37F49FB03AE4702337EEE0123A2EE
:10DDA400C70383870600635CF400034E03003396C5
:10DDB400C9001346F6FF3376C6012300C3003E862E
:10DDC40063D3A7002A861315860161850507137797
:10DDD400F70F8506E313F7F3B64026449644064945
:10DDE400F259625A616182809756000093860686D2
:10DDF4009C42D84713161701635506029847131619
:10DE04001701635006027D57B8D717470000130760
:10DE1400E760584F050717460000232FE660116797
:10DE240098C798470D83058B1DC3175700000347F8
:10DE340047801367170017460000230CE67E13077C
:10DE440000F8174600002307E67E214798C7984745
:10DE5400058B09CF174700000347977D1367170009
:10DE640017460000A306E67C054798C79847098330
:10DE7400058B09E798470583058B31CF98471746EB
:10DE840000001306E67A174500001305A5790983F7
:10DE9400058B630307101841184331830D8B75EB11
:10DEA400AC4B184E93F5050203471700CDCD79EF1F
:10DEB40013077006D8CF03470600136717001746E9
:10DEC40000002307E676114798C718415C57F19B79
:10DED40093E717005CD79C4298479316370163D6A3
:10DEE40006029756000083C6A688C18A1757000009
:10DEF4001307C780C5CE0347470713670702975622
:10DF040000002387E686056798C79847931627017C
:10DF140063D10602174700000347C7716207618790
:10DF2400635707000547974600002385E670096795
:10DF340098C798479316070163D6060297560000C0
:10DF440083C61683858A174700001307277BADCE47
:10DF5400034757071367270097560000A38AE680F4
:10DF6400216798C7828029D785456315B7001307B1
:10DF7400B00689B789456315B7001307F0061DBFBE
:10DF84008D456315B700130730072DB713075007E6
:10DF940015B71307600739BF034736001367170027
:10DFA40017460000A307E668094739BF83464707B9
:10DFB4000946BD8A6388C600034747078D463D8BE3
:10DFC400E313D7F4114725BF83465707918AC9DA6B
:10DFD400034757071367870041B7397106DE16DC1C
:10DFE4001ADA1ED82AD62ED432D236D03ACE3ECC25
:10DFF40042CA46C872C676C47AC27EC0F533F250AD
:10E00400E2525253C2533255A255125682567247A7
:10E01400E2475248C248324EA24E124F824F21610B
:10E024007300203017470000130787628346B70147
:10E034009747000083C797644C4BB697FD8B33D743
:10E04400F50097460000A385F66097460000A38775
:10E05400F662058B15EF1747000003477762B3F7A5
:10E06400E702814601471305000233D6E500058A1D
:10E074001378F70F19CA6397D70097470000A3894D
:10E08400075D8280850693F6F60F0507E31FA7FC5C
:10E09400828097470000938727429C43011122CC3A
:10E0A4004EC606CE26CA4AC852C456C2829797475D
:10E0B40000009387E75B804781496305A406BE841B
:10E0C400974700009387073B038767013E896355A1
:10E0D4000706018D135455009747000083C7E7587E
:10E0E4009379F501636DF402370AC0A8B70A405763
:10E0F400153F9C449746000083C626571397560045
:10E104003E9783076901158C63C507006363470164
:10E1140056979747000023A1E756E37BD4FC1604E7
:10E12400B3693401F24062444E85D2444249B24953
:10E13400224A924A05618280E37D85F8B707C0A828
:10E1440033848740229579B7974700009387C73671
:10E154009C43411122C406C626C2829797470000F9
:10E164009387075180476309A406BE84974700003C
:10E17400938747308387670163D80704018D13545D
:10E1840055009747000083C7474E6367F404593D21
:10E1940098449747000083C7474D93965700369796
:10E1A4001D8C9746000023A9E64CE372F4FE22443A
:10E1B400B240924417450000034595498145410109
:10E1C400177303E06700C391E37A85FAB707C0A821
:10E1D40033848740229565B7B2402244924441017A
:10E1E4008280974700009387274B9843B7570200D4
:10E1F4009387079F832607091396560063580600E2
:10E20400832607091396660063440600FD17FDF391
:10E21400828071C5AA870145E9C58D07C207C183FC
:10E22400F19BC207C18313074003636FF7021747CB
:10E2340000001307674C0843174700001307474BB8
:10E2440014436398A602174700001307A722185B1C
:10E25400014541CB4111C20706C60545DD8D029734
:10E26400B2400145410182801747000013078748E7
:10E27400D9B70357650035E303574500636FF704C7
:10E28400B306F7402146637CD60203280500938633
:10E2940087001D8FAA96611717460000035666185B
:10E2A4002392E60023A006012393060014C123123F
:10E2B400F500130786FF974600002394E616231300
:10E2C400B5009745000083D5C515B387F5401747BA
:10E2D40000002318F7142105828008419DB70145E9
:10E2E400828082800DC1974700009387E74003A393
:10E2F4000700974700009387A73F83A8070081463C
:10E304009A8763E31701828003A80700636DF50A07
:10E31400636BA80A13878700E367E5FE03D66700EB
:10E32400216705076317E60003C7419B0507238A96
:10E33400E19A974500009385650E03D6470003D7FD
:10E344006500239307003297420741831745000075
:10E354002319E50C638A6702174500001305853904
:10E3640008416303F50203D5660019ED83D746001F
:10E3740023A0060121073E9621062392C600974753
:10E3840000002390E70AB6879843E30E17F79746F1
:10E394000000938626369442E307D7F68356670037
:10E3A400BDF283D64700035647001843A106B29630
:10E3B4002392D70098C383D76500A10717470000AD
:10E3C4002311F7068280BE86C28725BF01119747B5
:10E3D40000009387A73222CC03A4C70B26CA4AC8DD
:10E3E4004EC606CEAA8413092500854915C083C7E5
:10E3F400140003473400858B6304F700405CFDB7C9
:10E404001946930544004A85EFE01F89E31835FF58
:10E414002285F2406244D2444249B2490561828075
:10E424004111974700009387672D22C403A4C70BAB
:10E4340026C24AC006C693042500054901E8228580
:10E44400B24022449244024941018280A6851305C8
:10E45400A402970004E0E780C0FFE30225FF405CCC
:10E46400F1BF4111974700009387472922C403A4B1
:10E47400C70B26C24AC006C693042500054901E815
:10E484002285B24022449244024941018280A685F9
:10E494001305A401970004E0E780A0FBE30225FF35
:04E4A400405CF1BF28
:10E4A8009751FF1F938101C317A1FF1F130101B5E6
:10E4B80017E5FFFF1305C5B49725FF1F938505B41E
:10E4C8001746FF1F1306C6FD63FAC5008322050021
:10E4D80023A0550011059105E3EAC5FE17150400B0
:10E4E8001305058B9745FF1F938585FB13860188C8
:10E4F80063FAC5008322050023A055001105910584
:10E50800E3EAC5FE138501889785FF1F938585304B
:10E518006377B500232005001105E36DB5FEFD42C4
:10E52800739002BC8D4273904280B72200009382A0
:10E53800828873A002309722FF1F938222AC93E255
:10E548003200739052309712010093828235739093
:10E558001234730020303D432A876373C3029377D4
:10E56800F700BDEFADE5937606FF3D8ABA960CC37A
:10E578004CC30CC74CC74107E36BD7FE11E282803E
:10E58800B306C3408A069702000096966780A600E5
:10E598002307B700A306B7002306B700A305B700F3
:10E5A8002305B700A304B7002304B700A303B700EB
:10E5B8002303B700A302B7002302B700A301B700E3
:10E5C8002301B700A300B7002300B700828093F5AA
:10E5D800F50F93968500D58D93960501D58D61B776
:10E5E800939627009702000096968682E78086FA1F
:10E5F8009680C1171D8F3E96E374C3F8A5B733679D
:10E60800B500FD530D8B79E7B7877F7F9387F7F7C1
:10E6180010419441B372F6003363F600BE92B3E240
:10E6280062006397720C6318D6065041D441B372E6
:10E63800F6003363F600BE92B3E262006398720A92
:10E64800631BD60410459445B372F6003363F60095
:10E65800BE92B3E262006391720A631ED60250450D
:10E66800D445B372F6003363F600BE92B3E262009B
:10E67800639A72086311D60210499449B372F6007E
:10E688003363F600BE92B3E26200639372085105E9
:10E69800D105E30FD6F61317060193970601631CFD
:10E6A800F7001357060193D706013305F740937512
:10E6B800F50F91E982804183C1833305F740937553
:10E6C800F50F91E182801377F70F93F7F70F330572
:10E6D800F74082800346050083C6050005058505C9
:10E6E8006313D60065FA3305D6408280110591057B
:10E6F800E312D6FE014582802105A105E31CD6FC64
:10E70800014582803105B105E316D6FC01458280BA
:10E718004105C105E310D6FC014582800147114639
:10E728004148B386E5008147B308F50083C808006F
:10E738008507C10623A816FFE398C7FE1107110530
:10E74800E31107FF8280935785019CC193570541C8
:10E7580093F7F70FDCC19357854093F7F70F1375BD
:10E76800F50F9CC5C8C582801C41411113070501DE
:10E778003EC05C413EC21C453EC45C453EC69397C4
:10E7880025001408B69783A707FF85051105232ED2
:10E79800F5FE8D89E315E5FE41018280397122DCA1
:10E7A8004166138481A206DE26DA4AD84ED652D4B0
:10E7B80056D25AD05ECE93050501A2863708FF00CF
:10E7C8007D1683070500034735001105E207D98F39
:10E7D8000307D5FF9106420733770701D98F03074F
:10E7E800E5FF2207718FD98F23AEF6FEE39BA5FCC8
:10E7F80081499144930A010117BB0300130B8B193C
:10E8080097BB0300938B8B16130AC00293F734004F
:10E81800032904004844BDE78A85353785450A85BC
:10E82800A1370A871C43110793F6F70093F7070FE0
:10E83800DA97B69783C70700232EF7FEE394EAFE1C
:10E84800024592476205C2075D8DB2475D8DA247BA
:10E85800A2075D8D93972900DE979C4385093D8D1E
:10E868003345250108C885041104E39144FBF2509F
:10E878006254D2544259B259225A925A025BF24B0C
:10E88800216182803345A90008C8F1BF797122D47B
:10E8980026D24AD04ECE52CC56CA06D62A8A939948
:10E8A80045000144938A81A213090101C144B307B9
:10E8B8003401D69788438A85793533078A008A8751
:10E8C8001443904391074107B18E2328D7FEE3995B
:10E8D80027FF1104E31D94FCB250225492540259AC
:10E8E800F249624AD24A45618280397122DC1304B6
:10E8F800050106DE22878147C1460C433306F10035
:10E9080011070CC24C4710083E960CC24C4F101011
:10E918003E960CC29107E392D7FE85450A85A93534
:10E928008945080891358D4508103D3D8147414787
:10E93800B306F10094421104232ED4FE1408BE96A7
:10E94800944254C41410BE969442910754CCE39157
:10E95800E7FEF25062542161828006059377051024
:10E9680089C71375F50F1345B5018280411106C695
:10E97800ED37B2404101D5B781471148C1483386C8
:10E98800F500B306F500014703AE06003303E600C1
:10E9980005072300C301C106E31807FF9107E390A9
:10E9A80017FF82809306050117B60300130686FE3B
:10E9B80013050505138706FF1C43110793F5F70098
:10E9C80093F7070FB297AE9783C70700232EF7FE7A
:10E9D800E394E6FEC106E31FD5FC8280411122C400
:10E9E80006C626C285472E846301F5028947631847
:10E9F800F5002244B24092442E854101B9BF8D47AB
:10EA0800631BF5002E85913F298C2285B240224454
:10EA1800924441018280A5476315F5002E85B937D8
:10EA2800DDB7AD47631AF5002E8589373D37AA84CF
:10EA380022852537258DC9BFB5476316F5002E8574
:10EA48003537AA84FDB7B947E311F5FC2E85393F60
:10EA5800AA842137A98C228509373344950075B7D4
:10EA68006382051493F7F500639E07121571D6C3E8
:10EA7800AA8A3285A2CDA6CB86CFCAC9CEC7D2C5AF
:10EA8800DAC15EDF62DD66DB6AD96ED73284AE84B6
:10EA9800EF705311C147631EF50022850133014908
:10EAA800130A010697BB0300938BCB02294C6341E1
:10EAB8009902FE406E44DE444E49BE492E4A9E4AA3
:10EAC8000E4BFA5B6A5CDA5C4A5DBA5D2D61828046
:10EAD800338B2A010C105A859131814508107D33FA
:10EAE80085490810C135081009351C10D2863E87A3
:10EAF80010434107C10623A8C6FE032647FF23AAE1
:10EB0800C6FE032687FF23ACC6FE0326C7FF23AE37
:10EB1800C6FEE31FEAFC17B703001307A7F703288D
:10EB28000700832D4700032D8700832CC7005284DC
:10EB3800138607010C4042853ECE3ACC32CA42C801
:10EB4800713D0C482AC66E85513DB2460C501104E1
:10EB5800A98E6A8536C65935B2464C54A98E668543
:10EB680036C6AD3DB246F2475246358D88C3910749
:10EB780042486247E310F6FC4107B287E391EBFA9B
:10EB8800CE85081085091933E39D89F50810193DCC
:10EB98000810A13BA9450810D539DA850810E93BCA
:10EBA800410931B782809307F00F6384F60A2D710B
:10EBB800232A911023282111B28423263111130608
:10EBC80000102E89AA89930530020A85232E111078
:10EBD800232C811036844132A2852685EFC0C00ED1
:10EBE80013178500935785003365F7002310A1009C
:10EBF800A685228613053100930434002301810081
:10EC080093F4F40FEF60F32293F6F40089C64D04F1
:10EC1800158C9374F40F1C02A697A6850A8517B65F
:10EC28000300130626EB238007F01D3D26868A8500
:10EC38004E85EF601320230099008320C11103241F
:10EC4800811183244111032901118329C110156100
:10EC580082808280411106C6EF709076B240AA8603
:10EC680017B70300130707ED1756FF1F13060624EF
:10EC780097B50300938545ED114541016FC0401DCF
:10EC8800130101DB23248124232021252326112499
:10EC980023229124232E3123232C4123232A512359
:10ECA8002328612303470500930710042A892E842B
:10ECB8006319F77003471500930740056313F7704E
:10ECC800034725009307E005631DF76E2E86AA8586
:10ECD8002545EFC0800D1306D003A2854A85EFC0F5
:10ECE8006025AA84635A05003546A2854A85EFC087
:10ECF8006024AA84634405089389D4FF930710030A
:10ED080063CE37074E86930539002808EF70636D88
:10ED18001C1CBE9917BA0300130A4A0F238409DE84
:10ED2800D28A81494D4B83254A002808EFC0401AF2
:10ED38000DC18E09D69983D709004947636FF7003B
:10ED480017B70300130747DA8A07BA979C43BA979D
:10ED580082878509210AE39869FD97B503009385A1
:10ED6800250ACDA89305F4FF858D13851400C205E7
:10ED780081460146C1814A95EF20305B8320C1243A
:10ED88000324812483244124032901248329C123C2
:10ED9800032A8123832A4123032B012313010125FD
:10EDA80082801306F4FF058E938514004206418283
:10EDB800CA95E800EFC060401305D104EF70835E88
:10EDC80093150501C1811305D104EFC0804B97B598
:10EDD80003009385A5D81305D104EFC0600F19CDA2
:10EDE80097B50300938505D80545EFB0B071176551
:10EDF800FF1F034545D3EF50A07749B797B50300E8
:10EE0800938585D71305D104EFC0800C19CD97B52C
:10EE180003009385E5D60545EFB0D06E1765FF1F53
:10EE2800034565D0EF50807791BF97B50300938570
:10EE380025D61305D104EFC0A0090DC1371700402E
:10EE48008327870C97B50300938505D593E70701BA
:10EE58002324F70C2545EFB0F06A0DB797B50300EA
:10EE6800938545D41305D104EFC0800611CD37171B
:10EE780000408327C70C97B50300938525D393E7F4
:10EE880007012326F70CF9B797B50300938585D2B8
:10EE98001305D104EFC0C00311CD371700408327F5
:10EEA800C70C97B503009385A5D193E707082326D8
:10EEB800F70C4DB797B50300938585D11305D10499
:10EEC800EFC0000111CD371700408327870C97B595
:10EED80003009385A5D093E707082324F70C9DBF6B
:10EEE80097B50300938585D01305D104EFB0507E04
:10EEF80097B50300938545D031FD97B503009385F9
:10EF080065D01305D104EFB0B07C97B503009385A5
:10EF180025D029F197B50300938545D01305D10471
:10EF2800EFB0107B11C59767FF1F23A707C0B9B5BE
:10EF380097B50300938545CF1305D104EFB05079F9
:10EF480001C5EF6080111DBD97B50300938585CE7F
:10EF58001305D104EFB0D07701C5EF60601039BD5B
:10EF680097B503009385C5CD1305D104EFB050764E
:10EF780001C5EF60200E19B597B50300938505CD3F
:10EF88001305D104EFB0D07401C5EF60600EFDB376
:10EF980097B50300938545CC1305D104EFB05073A2
:10EFA80011C913059108EF6003661375F50FEF603B
:10EFB800E008E9B397B50300938545CA1305D10462
:10EFC800EFB0107101C5EF90202B4DBB97B5030032
:10EFD800938545C91305D104EFB0906F09C5054560
:10EFE800EF90403D61BB97B50300938525C8130595
:10EFF800D104EFB0F06D19C10145DDB797B5030035
:10F00800938545C71305D104EFB0906C11C9371724
:10F0180000408327C70AA166D58F2326F70AB9BB04
:10F0280097B50300938585C51305D104EFB0506AE1
:10F0380011C9371700408327870AA166D58F232473
:10F04800F70A2DBB97B503009385C5C31305D104F3
:10F05800EFB0106801C5EFB0A0370DB397B5030046
:10F068009385C5C21305D104EFB0906601C5EFD0F2
:10F07800201529B397B50300938505C21305D1045C
:10F08800EFB0106529C9930751015808930631015B
:10F09800130621019305110113056101231B0100CA
:10F0A800A308010023090100A3090100230A0100A4
:10F0B800A30A0100EF80D05583475101034741015E
:10F0C800834631010346210183451101035561013E
:10F0D800EFC0C07D65B197B50300938565BC130586
:10F0E800D104EFB0F05E11C5EF106063EFC01007F8
:10F0F80071B10346D104A547130606FD1376F60F32
:10F10800E3EEC7C69767FF1FA38FC7A097B5030095
:10F11800938585B9EFB0D05395B11306F4FF058EEA
:10F12800138514004206418297B503009385C57084
:10F138004A95EFB0B06D1764FF1F1304E49D29C50D
:10F1480097B50300938585B71145EFB0B03B1C40D8
:10F1580097B50300938545B7E80093E7170017674D
:10F16800FF1F232BF79AEF70C322E800EF70832369
:10F17800131605014182EC0013858175EF80404D1F
:10F188004145EFC0C06BDDBE97B50300938545B51B
:10F198001145EFB030377D55EFC0406D1C40F99BED
:10F1A8001767FF1F232AF796D1BE6D34C1BE130619
:10F1B800F4FF058E138514004206418297B50300BB
:10F1C800938585674A95EFB070641764FF1F130431
:10F1D800A49421C11C4097B503009385E5AEE800CF
:10F1E80093E717001767FF1F2328F792EF70631A3A
:10F1F800E800EF70231B13160501EC00418213850C
:10F208008175EF80E04497B50300938525AE1145DD
:10F2180099B197B50300938525AEE800EF706317A1
:10F22800E800EF70231813160501EC0041821385DE
:10F238008175EF80E0411C4097B50300938545AD8B
:10F24800F99B1767FF1F2329F78CD1B7EF70C054BC
:10F258009767FF1F9387478CA843EF60A311AE867B
:10F268002A8697B50300938565AB1145EFB0503EEC
:10F2780031B6EF50204819B617B603001306465C9E
:10F2880097B50300938545AA114569B5EF707017C6
:10F2980097B50300938505AA3DF997B503009385B3
:10F2A80065AAB5B70D45EF80F062AA84EF60830CBC
:10F2B8002A86AE86254597B503009385E5A9EFB064
:10F2C800303997B70300938727898843A685175451
:10F2D800FF1F130464D6EF50931F2320A422EF705E
:10F2E800901803250422EF60E308AE862A8697B5B6
:10F2F8000300938525A795BF81451145EF50F03D43
:10F30800EF70500B2A8697B50300938565A8ADBFAB
:10F3180081451D45EF50703C81452545EF50F03B38
:10F3280097B503009385C5A72145EF50103BEF70B3
:10F33800D0082AC6EF703009B2462A871756FF1F31
:10F348001306C6B697B503009385C5A51145EFB05A
:10F3580030302DB41757FF1F0357C7EF9756FF1FBD
:10F368009386A6D71756FF1F130646B497B5030012
:10F37800938585A5E1BF85471757FF1F2304F7EE3F
:10F38800EF70700E97B50300938545A549B51757DB
:10F39800FF1F034727ED854797B50300938585A48D
:10F3A800E317F7E6C5B79757FF1F9387E776C85F58
:10F3B800EF50537CAE862A8697B50300938505A344
:10F3C8006DB52286CA8513850178EF8060287DB2E5
:10F3D800411122C4216493050480994601462545BC
:10F3E80006C69710FF1FE780404B93050480224410
:10F3F800B240994613860188294541011713FF1F1A
:10F408006700A34999E10145828075DD011152C465
:10F4180003DA418826CA93548A008504A204C204E8
:10F42800C18056C2B38A4441C20A22CC4AC82E8639
:10F438002E842A8997B50300938585C1254593DADB
:10F448000A014EC606CE93890188EFB0702063ED9D
:10F458008A0883D5418893F7F50FB1CF8D6783D597
:10F46800418893870780A2864A86BE9529459710CA
:10F47800FF1FE78080421375F50F29ED83D74900F8
:10F488001566A2972392F18803D7418883D72188EC
:10F498006309F70063F3E700B297998F13960701A2
:10F4A8004182254597B50300938505BCEFB0501AF6
:10F4B8001375F40F0DA08D679387078093060010CE
:10F4C8000146BE9525459710FF1FE780003D13753F
:10F4D800F50F49D50145F2406244D2444249B24948
:10F4E800224A924A05618280B3079440D297C207A4
:10F4F800C183A18303C74900850793F7F70F939644
:10F50800870011EB9386170093740AF0A206C204D1
:10F51800C206C180C18283D7218863F6F40033878D
:10F528009600E3C9E7FA0D6A130A0A800146B38513
:10F53800440125459710FF1FE78020361375F50F06
:10F5480051F983D54188A2864A86D29505B74111DB
:10F5580022C41384018822858145194606C697105E
:10F56800FF1FE780A06D9307B0FA2300F4008D35E4
:10F578002244B24097B50300938505A6254541016D
:10F588006FB04078A165411199461386018893852B
:10F5980005802D4506C69710FF1FE780003003C77A
:10F5A80001889307B00A6303F7005537B24083D642
:10F5B800418803D6218897B503009385A5A22545E0
:10F5C80041016FB0F00883D781AD0145638C071006
:10F5D80003D5A1AD6366F50023AC01AC014582807B
:10F5E8003385A740D1473355F5021375F50F01E56B
:10F5F800239C01AC8280130101BD23248142232670
:10F6080011422322914223202143232E3141232CCE
:10F618004141232A514195471374F50F63F3A7001D
:10F628001544228697B503009385C5A52545EFB0F7
:10F638003002014981449389C1AD514AA14A937767
:10F64800F90F03D5A1AD1757FF1F034787B563E926
:10F658008704D1473304F4022A94239D81ACA1473F
:10F66800631CF706A6850808EF40C01C03D7A1ADA8
:10F6780083D781AD05456364F70023AC01AC8320D3
:10F68800C142032481428324414203290142832940
:10F69800C141032A8141832A4141130101438280E8
:10F6A800B30749031408AA97CE9733859600631EBB
:10F6B8005701BE85EF4080372317A1008357E1002B
:10F6C8000509BE94C204C1809DBFAA851306E10046
:10F6D8003E85EF901017DDB726860C080145EF60D0
:10F6E800707869B78280011106CE22CC26CA4AC832
:10F6F8004EC691E901442285F2406244D24442490F
:10F70800B24905618280AA8975D583D7418803D615
:10F7180021882E849564638AC7006374F600156790
:10F728003A961D8E93140601C180268697B503006C
:10F73800938585872545EFB0A071938714F06356AC
:10F74800F4009307F00F63EA970097B503009385D9
:10F7580025872545EFB0C06F71BF83D441883387B3
:10F768008400956763C7E700A2854E8561398D31AE
:10F7780059B7156933099940420913590901CA85CE
:10F788004E85493125D9ED75A695A295C2052392D6
:10F798000188C18133852901D1BF83D681AD81EA32
:10F7A80097B503009385458825456FB0A05503D6C6
:10F7B800A1AD4111918E97B503009385E587254545
:10F7C80006C6EFB0E068138781AD8355070083D77D
:10F7D800A1AD1385C1AD9D8DC2053E95C18121376F
:10F7E800B24023AC01AC41018280411183D781AD85
:10F7F80022C426C206C6AE971307401FAA842E84C9
:10F80800635AF700593F97A503009385A57F2545BF
:10F81800EFB0404F83D781AD1385C1AD2286A68551
:10F828003E95EF50136103D681AD229642062244DD
:10F83800B24092444182239CC1AC97A503009385B2
:10F84800E57D254541016FB0A060011126CA06CEAD
:10F8580022CC4AC84EC652C456C2814459C1D1C1ED
:10F8680083D7218803D44188638D870663F5870889
:10F878001D8C42044180AE892A89228697A50300FF
:10F888009385056F0145EFB0A05CA28463F38900FE
:10F89800CE84C2040D6A83D7218803D74188C180EA
:10F8A800938A0188130A0A8063FAE704A6864A86BF
:10F8B800B38547012D459710FF1FE78000FE83D7CA
:10F8C8002A00A6972391F188EFF09FB083D641884C
:10F8D80003D6218897A503009385C56A2545EFB00F
:10F8E8002057F240624426854249D244B249224A0E
:10F8F800924A0561828015673A949DBF15671D8FEE
:10F90800B385470163D5E400A6864A8665B795693D
:10F91800B389F9406D743E94C20993D909012694BC
:10F92800CE864A8642042D459710FF1FE780E0F6F1
:10F938004180A28633063901D2852D45239101885D
:10F948009710FF1FE78060F583D72A003E94239124
:10F9580081889DBF397126DA4AD84ED652D456D2FC
:10F968005AD006DE22DC62CE66CC2A89EF60932369
:10F978009374F50F8149254BE54A17AA0300130A2A
:10F98800EA7591ECF25062544E85D2544259B259FC
:10F99800225A925A025B724CE24C216182800347E0
:10F9A8000900930707FD93F7F70F637CFB009307A4
:10F9B800F7F993F7F70F63E2FA06930797FA93F7C5
:10F9C800F70F139487016184FD14230089002685AD
:10F9D800EF40B36B2A86AE8603250A0083254A00CA
:10F9E80093F4F40F0509EF0041162AC422852EC6A8
:10F9F800EF40B3692246B246EF40C3192A8C4E85C0
:10FA0800AE8CEF40B36F2A86AE866285E685EF300E
:10FA1800432DEF40D361AA89ADB79306F7FB93F660
:10FA2800F60F8147E3EFDAF8930797FC49BF4111D6
:10FA380022C406C6830795022A8499C7130595022E
:10FA4800EF50733C2385A1188307D41291CB13057B
:10FA5800D412EF50F33AEF50B31C93878115C8D3F3
:10FA6800B240224441018280411126C2930415000C
:10FA780022C497A503009385E56C2A84268506C6CB
:10FA8800EFB0004D6318050E97A503009385C56B6D
:10FA98002685EFB0E04B45CD85448307D403DDC30D
:10FAA80013059402EF50333685471305D403638555
:10FAB800F40C89476389F414EF50F334A386A11832
:10FAC8008307D4089384811591CF1305D408EF5088
:10FAD800933383C7718813871700A697A383E18898
:10FAE800A38BA7048307D40D91CF1305D40DEF5032
:10FAF800933183C7718813871700A697A383E1887A
:10FB0800A38BA7048307D41291CF1305D412EF5007
:10FB1800932F83C7718813871700A697A383E1885B
:10FB2800A38BA7048307D41791CF1305D417EF50DD
:10FB3800932D83C7718813871700BE94A383E18828
:10FB4800A38BA404B240224492444101828097A529
:10FB580003009385A55F2685EFB0803FE31E05F27D
:10FB6800268597A503009385A55EEFB0603E89447E
:10FB7800E31505F2814415B7EF50F3282387A11840
:10FB88008307D4089384811591CF1305D408EF50C7
:10FB9800932783C7618813871700A6972383E18873
:10FBA800A38CA7028307D40D91CF1305D40DEF5072
:10FBB800932583C7618813871700A6972383E18855
:10FBC800A38CA7028307D41291CF1305D412EF5048
:10FBD800932383C7618813871700A6972383E18837
:10FBE800A38CA7028307D417B1DF1305D417EF50EE
:10FBF800932183C7618813871700BE942383E18804
:10FC0800A38CA40281B7EF501320A387A1181DBFAE
:10FC1800411122C406C6830795072A8499C713058C
:10FC28009507EF50531EA385A1188307D40899C7D9
:10FC38001305D408EF50331D2386A1188307540BEE
:10FC480081CF1305540BEF50B31BEF50637D93879F
:10FC5800811588D723A4A708B24022444101828095
:10FC6800411122C406C6030715058147014419C777
:10FC780003444505130404FD1374F40F03075506E4
:10FC880019C713055506EF5013189377F50F13741A
:10FC9800B40F0D476315E4021D47637EF7009757BD
:10FCA800FF1F938767E79C4337070800D98F1757CB
:10FCB800FF1F2323F7E6B2402244410182805547C3
:10FCC800E9BF011126CA8146B284014652C456C210
:10FCD80006CE22CC4AC84EC62A8AAE8AEF30B34E28
:10FCE80041CD9307E0046386F400930730056395DC
:10FCF800F40897A903009389694203A6090083A61B
:10FD080049005285D685EF30F36837949800EF4064
:10FD18001332130404682A8933758502EF40133EB1
:10FD280003A6090083A64900EF30A36E97A7030036
:10FD38009387473F9043D443EF30A36D2A8A3355C6
:10FD48008902AE8AEF40933B2A86AE865285D685D5
:10FD5800EF20337913073005AE876395E400B707C2
:10FD68000080AD8FF2406244D2444249B249224AEF
:10FD7800924ABE850561828001458147E5B7011138
:10FD880026CA8146B284014652C456C206CE22CC47
:10FD98004AC84EC62A8AAE8AEF30F34241CD93074D
:10FDA80050046386F400930770056395F40897A9D7
:10FDB80003009389A93603A6090083A64900528542
:10FDC800D685EF30335D37949800EF4053261304FF
:10FDD80004682A8933758502EF40533203A6090067
:10FDE80083A64900EF30E36297A703009387873320
:10FDF8009043D443EF30E3612A8A33558902AE8AAF
:10FE0800EF40D32F2A86AE865285D685EF20736DB4
:10FE180013077005AE876395E400B7070080AD8FC0
:10FE2800F2406244D2444249B249224A924ABE85CB
:10FE38000561828001458147E5B7411122C406C6A4
:10FE480026C2830755012A84B9C7A946938707FDA7
:10FE5800B387D70203476501130707FDBA97A38D38
:10FE6800F1140307750183478501130707FD33075D
:10FE7800D702938707FD3E97238EE11483079501E8
:10FE88000347A501938707FDB387D702130707FD2B
:10FE9800BA97A38EF1148307940281CB1307100439
:10FEA800639EE7108547238FF1148307D403938457
:10FEB800811589CB1305D403EF50837488C4CCC44F
:10FEC800A8DCECDC0306140501CA8844CC4423846E
:10FED800C118C53B88C4CCC48307540699CB130505
:10FEE8005406EF50E37188C8CCC823A0A40823A205
:10FEF800B4080306940701CA8848CC48A384C118EB
:10FF0800BD3D88C8CCC88307D40899CF1305D40849
:10FF1800EF50036F97A703009387C7239043D443F9
:10FF2800EF30534788CCCCCC8307140A99C7130504
:10FF3800140AEF50436D239CA1168307540BB9C7CD
:10FF4800A946938707FDB387D7020347640B1307B6
:10FF580007FDBA97238DF1140307740B8347840BAD
:10FF6800130707FD3307D702938707FD3E97A38C36
:10FF7800E1148307940B0347A40B938707FDB3870A
:10FF8800D702130707FDBA97238CF114838734002F
:10FF98000567130707E1B387E7029306C00303C7A2
:10FFA800C115B240224492443307D702BA9703C717
:10FFB800D115BA9723A2F11841018280238F011429
:10FFC800EDB5135785009357050113D8850093762F
:10FFD800F50F01111377F70F93F7F70F618593F575
:10FFE800F50F1378F80F99C211C3B9E3230CD100A8
:08FFF800A30CE100230DF10050
:020000021000EC
:10000000A30DA10003459101834781010347A1018D
:100010002205A30E01014207C98F230EB10003453B
:10002000B101D98F0347D1018345C1016205220780
:100030005D8DD98D0561828032951375F50F13138F
:100040008501135383415D466357660861463363F8
:10005000C30285071376D70F114593F7F70F630592
:10006000A6002545631AA6007946637FF6020507B8
:100070001377F70F85470DA809466312C704138647
:10008000067D93084006B36816036385080013F5E0
:10009000360011C5130500193366A60219EE754620
:1000A0006374F60085470D47230CD100A30CE100D3
:1000B000230DF100A30D6100B1B77146D5B77D46A0
:1000C000E374F6FEB147E314F7FA850693F6F60FEC
:1000D00085470547D1BFE35903FC6105FD1713139D
:1000E000850193F7F70F13538341DDFF7D171377D6
:1000F000F70F1146F947E309C7FA1946E306C7FAAD
:100100002546E303C7FA2D46E300C7FA894763167D
:10011000F7021386067D93074006B367F60291C780
:1001200093F83600F547E38108F893070019B367A1
:10013000F60293B71700F10785BFFD4735F7FD16A7
:1001400093F6F60F31478DB7834715000347050037
:100150000111A2075D8F8347250083463500834543
:100160004500C207D98F0347550022CC1744FF1F13
:10017000130404ED03062420E206220733E5F6000B
:10018000D98D06CE9935135885001356050193D79E
:10019000850013F7F50F93F7F70F93568501137644
:1001A000F60F9375F80F1375F50FEF70104D834729
:1001B0001400054793F7B70F6397E7006244F240D6
:1001C00005616F70105BF240624405618280497185
:1001D00023248116138481158307340083C8D11525
:1001E00003C8C11503C7A11583C6911503C68115A0
:1001F00097A50300938505F848102326111623229E
:10020000911623202117232E3115EF60A3144810D7
:10021000EF60C31918485C48030604033AC03EC2A5
:10022000030814035C441844541097A503009385F5
:1002300065F63695EF6003124810EF6023175C10E7
:100240003E958307640017A60300130626F289C7AC
:1002500017A60300130606F197B50300938545BD65
:10026000EF60430F4810EF606314AA8408541389A9
:10027000611797B90300938929BBEF5023105C10D5
:100280002A86AE863385970097A50300938585F16E
:10029000EF60430C4810EF606311544C104C5C103D
:1002A00097A50300938505F13E95EF60A30A4810DA
:1002B000EF60C30F030634035C103E9597A503005F
:1002C000938505F0EF6003094810EF60230E0307E4
:1002D0002403AA8448503ACCEF50430A62475C108A
:1002E000AE862A8697A50300938585EE3385970011
:1002F000EF6043064810EF60630B5C1003C6C11843
:1003000097A50300938545EE3E95EF60A304481042
:10031000EF60C3097C5C03081403385C3ECA5C10C0
:1003200003060403B384A7000325840842CE3AC819
:1003300032CCEF50A3042AC42EC60325040883251B
:10034000440872484247D24762462AC02EC22685D8
:1003500097A50300938545EAEF50D37F4810EF60DF
:10036000E3045C1097A50300938585EA3E9513840A
:100370008115EF608302A28403C6740519CA481070
:1003800032CCEF60A30262465C10CE853E95EF5002
:10039000737C8504E39224FF4810EF6023015C1016
:1003A00097A50300938545E73E95EF50137F97B4DB
:1003B0000300938464A70346940319CA481032CCFF
:1003C000EF50D37E62465C10A6853E95EF50937841
:1003D0000504E31224FF4C102545EFA030138320C1
:1003E000C11603248116832441160329011683298B
:1003F000C115756182801747FF1F130767721C4381
:10040000411122C426C206C693F68700BA8413841B
:100410008115A1E68306640005476390E60403C7DF
:10042000A11519EB08444C4401468146EF30235A8C
:100430000DE9238F011481A80307340065D703C792
:10044000C1156DD303C7D11571DF93E787002285EE
:100450001747FF1F2326F76CC53983076400F9F39C
:10046000C9BF08484C4801468146EF30435671D118
:1004700083C7A115DDDF1306000993858115138558
:10048000810CEF50831B03C501CD9D4705053365E6
:10049000F50213060009938581152388A1CC9307E3
:1004A00000093305F502938781CD3E95EF50E3189F
:1004B000393BDC5013060009814513858115174728
:1004C000FF1F2325F768EFE08F89B2402244A38302
:1004D0000188238301889244410182800171232C89
:1004E000811E232A911E1306101E2A84AE846800E2
:1004F0008145232E111E2328211FEFE04F868145C1
:100500008147014701465148CD485D436341960804
:1005100099C12306F1001306A002A6852285EFA04B
:10052000F0218347C10051473386A440B387E702D7
:100530009305150078007D16A29585073305F70011
:10054000EF50A30F1306A002A685228503491400CD
:10055000EFA0D01E894763C4A7080345C100D14757
:100560003305F5027C0005053E95EFF02FBF631DB6
:10057000A904194697A503009385C5BB1305D100AF
:10058000EFA050292DC56800EFF0BF8B35A8B3064A
:10059000C40003C50600930665FD93F6D60F91EAE5
:1005A000850793F7F70F6361F30285450147050659
:1005B000B1BFB3860703130E011FF296BA96A38E3E
:1005C000A6E00507E3D5E8FE8320C11F0324811FB1
:1005D0008324411F0329011F130101208280330757
:1005E000F4000347070085073349E900ADB7194612
:1005F00097A50300938545B41305D100EFA0902182
:1006000025E9194697A50300938545B31305D10045
:10061000EFA0502031E9194697A50300938545B214
:100620001305D100EFA0101F05ED194697A5030093
:10063000938545B11305D100EFA0D01D11ED1946EA
:1006400097A50300938545B01305D100EFA0901C3A
:1006500025DD68004D338DBF6800EFF0EFE0ADB7EA
:100660006800EFF0EFC08DB76800EFF0EFDAA9BFD8
:100670006800EFF04FBC89BF757122C526C34AC11F
:10068000CEDED2DCD6DADAD806C7AA892E89814432
:1006900001448147130A4002854A354B13970401F0
:1006A0004183636C2701BA402A449A440A49F659A7
:1006B000665AD65A465B4961828033879900034760
:1006C000070063004703639C5701631D67019C1883
:1006D000A297A2856800238E07F809358147850413
:1006E00075BF01449C18A29705041374F40F238E60
:1006F000E7F893373406E5B7411106C6138501CDF7
:1007000083470500130700098145B387E7021306F5
:100710000009A1073E95EFD09FE4B2408145114505
:1007200041016FB0C00B138501CD8347050013074E
:100730000009B387E702A1073E9582801385810CEB
:100740008280397126DA97A403009384A49562CC41
:1007500066CA328CB68C9040D44006DE22DC4AD881
:100760004ED652D456D25AD05ECE6AC842C046C285
:1007700017A40300130484933AC43EC6EF30034227
:100780001040544017AD0300130DCD92EF20F348F5
:100790002247B2479040D4402A8AAE8A3A85BE8525
:1007A000EF30C33F10405440EF2033472A89AE89D1
:1007B0002A86AE865285D685EF30D30903260D00F2
:1007C00083264D00EF30833DEFF080232A8BAE8BE4
:1007D0005285D685EFF0A0192A8AAE8A4A85CE8541
:1007E000EFF0E018024892482A894286C686AE8910
:1007F0006285E685EF3013069040D440EF30033A2F
:1008000010405440EF20734103260D0083264D0015
:10081000EF30C338EFF0C01E2A84AE844A86CE86FD
:100820005285D685EF3083372286A686EF30033790
:100830002286A686EF3083362A84AE845A86DE86E8
:100840005A85DE85EF3083352A86AE862285A685D9
:10085000EF20A349EFF04062EFF0C0232A86AE8676
:10086000EF20A34897A70300938747859043D4437D
:10087000EF30C33297A703009387C7849043D443D4
:10088000EF30C331F2506254D2544259B259225A15
:10089000925A025BF24B624CD24C424D21618280F3
:1008A00018419387811E104598C30357450054454E
:1008B00090C72392E70058551049D4C7544998CFA0
:1008C00097A50300938545840547254590CBD4CB58
:1008D000238EE7006FA080435971D2CC138A01CDDB
:1008E000A2D4A6D2CECED6CADAC8DEC6E2C4E6C24A
:1008F00086D6CAD083C401CD8149930B00095284A6
:10090000179C0300130C8C7C854C1D4B954A338936
:10091000740352998307E900638C071A03260C00BD
:1009200083264C000325090283254902EF30A31BCF
:100930006340051A83470904638E9719939719003A
:100940005808BA97035789022390E7007C00CE9796
:100950002380970085099904B3E46403E39959FB64
:100960000357C10183574101998F13D7F741B98FBD
:10097000998F939407011307400BC1806358F700C8
:1009800093078016B3849740C204C180268697954A
:100990000300938525740810EF50D31B0C102545D8
:1009A000EFA0C036938714FFC207C1837947636005
:1009B000F7068344D1001309000985450145B38436
:1009C0002403A104A2942686EF80D0528347F1002D
:1009D00085450145B3872703A1073E942286EF8012
:1009E0007051A6850D45EF302007A2850D45EF30EB
:1009F000A0060545B650265496540659F649664A4F
:100A0000D64A464BB64B264C964C6561828093077E
:100A1000D002E3F097FE034BC100130A000985459D
:100A2000330B4B030145930B8B00A29B5E86EF803B
:100A3000704C834AD10085450145B38A4A03229B05
:100A4000A10AA29A5686EF80F04A8349E1008545C3
:100A50000145B3894903A109A2994E86EF809049C7
:100A60000349F100854501453309490321092299CC
:100A70004A86EF8030488344010185450145B384AF
:100A80004403A104A2942686EF80D046DE850D455E
:100A9000EF20907CD6850D45EF20107CCE850D454E
:100AA000EF20907BCA850D45EF20107BA6850D4574
:100AB000EF20907A83C701CD338A470303274B0386
:100AC00052945C58E317F7F285472300F40415B7F6
:100AD0007D550DB7795539BF7571094506C722C5D2
:100AE00026C34AC1CEDEEFA0105C01E523A4018835
:100AF00091A813050002EFA0105B6DF913848188A3
:100B00001C40850723A4F188C13B1C401737FF1FF9
:100B10000357477363E8E70203C501CD9304000957
:100B200033059502138401CDB307A4000387E700C2
:100B300011CB03C741209385811E01EF210522952A
:100B4000EFF01FD6BA402A449A440A49F65949613F
:100B5000828003A8870183A8C701984B9049DC4B8A
:100B6000D4498845CC45EFF0DFBD2A86AE862A8978
:100B7000AE8968009795030093854557EF50837DB4
:100B80006C002545EFA080181735FF1F034555550C
:100B9000EF3033502A86AE864A85CE85EF20D36962
:100BA000E352A0FA03C601CD3306960285450145FE
:100BB00021062296EF80103483C501CDB3859502BE
:100BC0000D45A105A295EF20306903C501CD330580
:100BD000950221052295EFF0BFCC09BF914763E351
:100BE000C70A179703001307E7630A063A961C42E1
:100BF000411122C406C6BA972A84828797B503009A
:100C0000938545B11145EFA06010A2851145EFA075
:100C1000E00F2244B24097B50300938565B11145BA
:100C200041016FA0A00EB9CA9737FF1F83C7A76401
:100C300081C79042EF50502E2244B2400146976542
:100C400000009385E5B33D4541016F30406F9DC67F
:100C50002244C8C2B24003C5A6002394B60036861B
:100C6000954541016F8010292244B24041016FE057
:100C700090462244B24041016F30E028B240224405
:100C8000410182808280411106C6EF90E03CB24073
:100C900041016F90C006557158109306310213063A
:100CA000210293051102930751021305610286C7C1
:100CB000EF7080169747FF1F938787E69C43BD9B85
:100CC0001747FF1F232EF7E4EFF0FFA503030503EB
:100CD0009305E00483566102034711028347210212
:100CE0000348310283484102034E510217D60300E4
:100CF000130646E66316B30017960300130686FE36
:100D0000830E150313035004032F8500832FC500A2
:100D100097950300938505FD63866E0097D50300C4
:100D2000938545E303230501832345017AC41ACC47
:100D30001ECE7EC672C02EC832C297A50300938510
:100D400025EC1736FF1F1306E6162810EF508360B8
:100D5000EF80B03B2810EF5063659387C1889043C4
:100D600093150501938681202810C181853DBE40E1
:100D700069618280411122C426C206C623A6B188B9
:100D80002A84B28481C69C4223A4F1200545EFB099
:100D900050330545EFB0503B0347040089476317C4
:100DA000F7021305D403EF4093060DE1EFB0703462
:100DB000EFB0703F13050002EFA0D02B9795030012
:100DC000938505542685EF50435D41A003470400F9
:100DD000854763F2E7081305D4039747FF1F239065
:100DE00007DCEF40D3029747FF1F2389A7DA1305DB
:100DF0009407EF40D3011375F50F9747FF1F238129
:100E0000A7DA1747FF1F034767D98D4763E6E70057
:100E10001747FF1F2304F7D811E5A9471747FF1FFE
:100E20002300F7D813050002EFA0F0219746FF1F1B
:100E300083C606D71746FF1F034646D6979503007D
:100E40009385454D2685EF50E3502244B2409244AD
:100E500041016F80D02A0545EFA0F01E9795030051
:100E60009385854F85B7411122C42A848307D40313
:100E700006C626C22E8589C71307F0036398E702CA
:100E80001737FF1F130797229736FF1F9386F61E0B
:100E90001736FF1F1306561B979503009385455A77
:100EA0002244B240924441016F50C34A03470400B8
:100EB0008547AE8463FCE700130620039305D40343
:100EC0001735FF1F13055518EF502352830794075A
:100ED00085C303470400894763FCE700130620032A
:100EE000930594071735FF1F13053519EF50E34F8E
:100EF0008307540B85C3034704008D4763FCE70059
:100F0000130620039305540B1735FF1F1305151AFD
:100F1000EF50A34D8307140F91CF0347040091476F
:100F200063FAE7001305140FEF40636E9737FF1F56
:100F3000A387A71A9736FF1F83C6761A1736FF1F97
:100F40001306D6169735FF1F938535131735FF1FE8
:100F50001305950FEF40A058014697750000938543
:100F600085431305C012EF30803DEF5050501737C6
:100F7000FF1F1307B7139736FF1F938616101736F8
:100F8000FF1F1306760C979503009385A54D2685C4
:100F900001BF411126C206C622C403470500894786
:100FA000AE8463F7E7029305D5032A841306200372
:100FB0001735FF1F13054502EF5023431305940710
:100FC000EF40E3649737FF1F239AA706EF50B04422
:100FD000EF5070489736FF1F83D646061736FF1F1F
:100FE000130686FF97A50300938585B82685EF50E5
:100FF000633685479735FF1F9385C5EB1735FF1F70
:10100000130545FC1737FF1FA302F7F2EF50E33833
:101010009735FF1F938555031735FF1F130525F1DE
:10102000EF50A3379735FF1F938535051735FF1F01
:10103000130505F3EF5063369735FF1F93851507AA
:101040001735FF1F1305E5F4EF502335979503007F
:101050009385C5AE1735FF1F130525FBEF50E3330E
:10106000EF50703B0146974500009385C5FF7945D9
:10107000EF30E02C2244B2409244014697750000C4
:10108000938565311305200841016F30402B4111D4
:1010900022C426C24AC006C68307D503AE84179968
:1010A00003001309A97B1744FF1F130464A789C712
:1010B0001307F0036391E7041735FF1F034545024B
:1010C000EF30237D0326090083264900EF20E33417
:1010D000EF40833568C0EF40632AAE862A86979535
:1010E0000300938525782244B24002492685924424
:1010F00041016F5023261305D503EF404351973725
:10110000FF1F238FA7FC1375F50FEF30837803269D
:10111000090083264900EF204330EF40E33068C0E8
:10112000EF50F0346840EF406325AE862A869795ED
:1011300003009385257545BFAA870387D7032E85AE
:1011400009C79306F0036315D7029737FF1F83C7BC
:1011500077EF179603001306666D89E7179603006D
:101160001306466D979503009385456E6F50831E59
:1011700041111385D70306C622C42E84EF402349AC
:101180009737FF1FA380A7ECEF50702E9737FF1FF4
:1011900083C757EB979503009385456A89E7979531
:1011A00003009385256A22852244B24041016F5095
:1011B000C31E411126C206C6AA8422C48387D40353
:1011C0002E8589C71307F0036396E7049737FF1F3F
:1011D00083C777E705476385E70289CB09476386BD
:1011E000E702B24022449244410182809795030075
:1011F0009385856D2244B240924441016F50E319BA
:10120000979503009385C56EF5B797950300938571
:10121000E570CDB79384D4032E842685979503007B
:101220009385C572EF50A31E1DC189471737FF1F55
:10123000A30BF7E097950300938585752285EF5002
:10124000C3152244B240924441016F50502226857A
:10125000EF40E33B1375F50F9737FF1FA385A7DE1C
:101260008547979503009385A570E309F5FC97954D
:1012700003009385256E79D18947E30DF5FA173779
:10128000FF1FA302F7DC979503009385A5727DB736
:1012900041112E85979503009385457506C6EF503D
:1012A000C30F0146974500009385E5DB7945EF3094
:1012B0000009B2400146977500009385C50D1305DE
:1012C000400641016F30A007411122C426C206C664
:1012D0008307D503AE841734FF1F130464D689C770
:1012E0001307F003639BE7028306242017A603007D
:1012F0001306068C63D60600179603001306869E17
:10130000268597A503009385E58AEF50A304224420
:10131000B240924441016F90107A1305D503EF401B
:10132000032F9737FF1F238EA7F0EF90D078030687
:10133000242097A503009385A5892545EF90D031FA
:10134000834724206147B10793F7F70F6377F700CE
:10135000A1471737FF1F2306F7EEEF505011830602
:10136000242017A603001306A68463D6060017964A
:101370000300130626972244B2402685924497A57F
:1013800003009385658541016F40D37C397122DC70
:101390009307D1022E8478109306B1021306A1029E
:1013A000930591021305E10206DE26DA4AD8EF60C2
:1013B000B0268348D1020348C1028347B1020347E4
:1013C000A102834691020356E1029795030093859B
:1013D000E52C2285EF4013782285EF40337D97344A
:1013E000FF1F9384E473CC5003A8C4020566130660
:1013F00006E133F3C5029306C0032295B378C80211
:10140000B377D80233F7D5023EC09C50B3D8D80288
:101410003358C802B356D30233D6C502979503009A
:101420009385052AEF4013732285EF403378330903
:10143000A400EF902047179603001306E62509C580
:101440001796030013060625979503009385452BF1
:101450004A85EF4033702285EF4053751737FF1FE1
:101460000357876D979503009385852A9736FF1F4D
:1014700083C6566B1736FF1F0346066B2295EF4057
:10148000736D2285EF40937283C634001736FF1FB9
:10149000034696DE3309A400858A32CE36CCEFE0CF
:1014A000C03CE24672462A879795030093854529FA
:1014B0004A85EF40336A2285EF40536FB7170040EB
:1014C00003A6470A83A6470A22952D82A982858A08
:1014D000058A979503009385E528EF40B367F2509E
:1014E0006254D254425921618280AA870387D7036C
:1014F0002E8509C79306F0036311D7029737FF1FA4
:1015000083C787B497950300938505EA89E7979584
:101510000300938565EC6F40536841111385D70331
:1015200022C406C62E84EF40830E1375F50F97373D
:10153000FF1F238BA7B01737FF1F034777B08947DB
:101540006316F7000DE91145EFA0E02F9737FF1F55
:1015500083C787AF97950300938585E989E79795BA
:101560000300938525EC2285EF4033632244B2408B
:1015700041016F50C06F1145EFA0C02FC1BFAA87B6
:101580000387D7032E8509C79306F003631ED7028E
:101590009737FF1F83C727AB0547638DE70089C7D0
:1015A0000947638EE700828097950300938545EE97
:1015B0006F40B35E979503009385C5F1D5BF9795AE
:1015C00003009385E5F6EDB741111385D70322C4D7
:1015D00006C62E84EF40A3031375F50F9737FF1F40
:1015E0002383A7A68547979503009385A5EE6306F9
:1015F000F502979503009385A5E905C1894797955D
:1016000003009385E5F2630AF5001737FF1F230CEB
:10161000F7A297950300938565F72285EF40F3576E
:101620002244B24041016F508064AA870387D703E8
:101630002E8509C79306F003631CD7001736FF1FDA
:10164000034616AA979503009385C5186F409350DB
:1016500041111385D70306C622C42E84EF30B37B15
:101660009737FF1FA38EA7A6EF5060602285224404
:10167000B2401736FF1F0346B6A697950300938521
:10168000A5174101E1B7411122C425452E848145AA
:1016900006C6EF301005EF5080532A86228522447B
:1016A000B240979503009385A51741016F40934A77
:1016B000411122C41305D5032E8497950300938509
:1016C000650C06C6EF90500911CD0145EF50A0649E
:1016D000979503009385C50B22852244B2404101B2
:1016E0006F40B34B0545EF5000639795030093851A
:1016F000E50BDDB7411122C42A848307D40306C653
:1017000026C22E8589C71307F003639CE70297372B
:10171000FF1F938767A61737FF1F1307C7A29736C8
:10172000FF1F83D646B31736FF1F1306A69E979555
:1017300003009385E52D2244B240924441016F405D
:101740007341AE841735FF1F1305C59C9305D40361
:10175000EF40B3441735FF1F1305C59BEF401345FA
:1017600093150501C1811735FF1F1305A59AEF9049
:1017700090358307940789CB13059407EF303369BD
:101780009737FF1F2399A7AC8307540B85CB93058D
:10179000540B1735FF1F1305059BEF4013401735FA
:1017A000FF1F1305459AEF40734093150501C18152
:1017B0001735FF1F13052599EF90F0308307140F9D
:1017C00085CB9305140F1735FF1F1305E59AEF40DE
:1017D000D33C1735FF1F1305259AEF40333D931572
:1017E0000501C1811735FF1F13050599EF90B02D35
:1017F000EF50E0479737FF1F938707981737FF1F72
:10180000130767949736FF1F83D6E6A41736FF1F8A
:1018100013064690979503009385C520268521BF22
:10182000AA870387D7032E8509C79306F003631C95
:10183000D7001736FF1F0356E6A097950300938540
:10184000A5306F40333141111385D70306C622C43A
:101850002E84EF30D35B131605019737FF1F2393B8
:10186000A79E4182979503009385452F2285EF40DF
:10187000732E9727FF1F83C7B77C09476388E7004C
:10188000ED1793F7F70F0547636AF7009737FF1FC8
:1018900083D7479B89EB0945EF90D07D2244B24026
:1018A00041016F50C03CEF90B06B75D51737FF1FEB
:1018B000035747999307B003E3EFE7FC0945EF901F
:1018C0009078E9BFAA870387D7032E8509C79306B7
:1018D000F0036313D7069737FF1F83C73799054770
:1018E0006389E70289CF0947638EE7020D4763806A
:1018F000E704979503009385251E6F40132A1796DA
:1019000003001306261497950300938525156F4051
:1019100073241796030013062615979503009385E5
:10192000A515F5B71796030013068617FDB717968A
:10193000030013062618D5B741111385D70322C417
:1019400026C206C62E84EF30934C1375F50F9737D9
:10195000FF1FA38DA7908544630295041DC189478D
:10196000630AF5048D47630CF5049795030093858E
:10197000A51A2285EF4073229737FF1FA388978E01
:1019800001A8979503009385A5152285EF40F320C4
:101990002244B240924441016F50602D17960300DB
:1019A0001306860C979503009385C5142285EF4096
:1019B000731AF9BF179603001306860EE5B717963C
:1019C00003001306260FF9BF011106CE2EC6EF90B5
:1019D000905685471737FF1FA30FF788EF50202930
:1019E0003245F24097950300938585C405616F40A9
:1019F000D31A011106CE2EC6EF9050559737FF1F10
:101A0000A38B0786EF50A0263245F240979503003E
:101A10009385C5C705616F405318011122CC4AC890
:101A200006CE26CA4EC68307D5032E891724FF1F6C
:101A30001304046189C71307F0036395E7020325C4
:101A40000422EF30B313AE862A8697950300938560
:101A500065BA6244F240D244B2494A8542490561BE
:101A60006F40530FAA841305D503EF30F339EF30DD
:101A7000B31BAA8913859407EF3073391375F50FDB
:101A80001DE50D45EF608065AA854E85EF30A324E6
:101A90002320A422EF50A01D03250422EF30130EB3
:101AA000AE862A8697950300938505B65DB72320F9
:101AB0003423CDB7AA870387D7032E8509C793069A
:101AC000F0036315D7029727FF1F83C7E77A17969E
