:04C000006F20100B92
:10C00400000000000000000090000020040A00204E
:10C01400A9BDF9F594000020000000000000000014
:10C02400960000209800002000000000000000009E
:10C034009A000020000000009C0000200000000086
:10C044009E000020160300201C040020A4000020F1
:10C05400A6000020A8000020AA000020AC000020B8
:10C06400AE000020B0000020C60000205A010020CD
:10C07400800A0020B8000020BA000020BC00002084
:10C08400BE000020EE01002082020020C400002037
:10C0940001A001A001A001A001A001A001A001A094
:10C0A40001A001A001A001A001A001A001A001A084
:10C0B40001A001A001A001A001A001A001A001A074
:10C0C40001A001A001A037370040834747009946EB
:10C0D4004111BD8B638CD70231476384E706114756
:10C0E400639EE702A3030100175600000346C683BC
:10C0F40037370040834771006315F6022C0013851F
:10C10400C166977001E0E780601909A8834757006A
:10C1140093F7F70F2304F100834781004101730073
:10C12400203083477100834687000C08AE97238C28
:10C13400D7FE83477100850793F7F70FA303F10038
:10C1440055BF280097E001E0E78080421375F50FA2
:10C15400A303A1000346710055B737370040834756
:10C16400474099464111BD8B638CD70231476384A4
:10C17400E7061147639EE702A30301001746000088
:10C184000346A67A37370040834771006315F602E9
:10C194002C0013850168977001E0E780201009A83E
:10C1A4008347574093F7F70F2304F1008347810037
:10C1B40041017300203083477100834687400C0897
:10C1C400AE97238CD7FE83477100850793F7F70F4B
:10C1D400A303F10055BF280097E001E0E780004B7E
:10C1E4001375F50FA303A1000346710055B7374734
:10C1F40000408347478099464111BD8B638CD70229
:10C2040031476384E7061147639EE702A3030100F5
:10C2140017460000034656713747004083477100B4
:10C224006315F6022C0013854169977001E0E780DD
:10C23400E00609A88347578093F7F70F2304F1001A
:10C244008347810041017300203083477100834696
:10C2540087800C08AE97238CD7FE8347710085072F
:10C2640093F7F70FA303F10055BF280097E001E00F
:10C27400E78080531375F50FA303A10003467100F3
:10C2840055B737470040834747C099464111BD8B96
:10C29400638CD70231476384E7061147639EE70244
:10C2A400A303010017560000034606A937470040C0
:10C2B400834771006315F6022C001385816A977019
:10C2C40001E0E780A0FD09A8834757C093F7F70F63
:10C2D4002304F10083478100410173002030834728
:10C2E4007100834687C00C08AE97238CD7FE834722
:10C2F4007100850793F7F70FA303F10055BF2800DA
:10C3040097E001E0E780005C1375F50FA303A1003B
:10C314000346710055B7371700408357C709C20752
:10C32400C18393F60720B9C29756000083C646BA64
:10C33400850617560000230DD6B89756000083D6FD
:10C34400A6B093E6064017560000231FD6AE930608
:10C354000020231ED7088326470A93F60620D9CA4D
:10C364008326C70A93E606202326D70A0567130700
:10C374000780B3F6E7008DCE9756000083C6E6AC7F
:10C3840093E60601175600002301D6ACB716004009
:10C3940003A6460A798E35C603A6C60A518F23A67C
:10C3A400E60A0567B716004013070780239EE608D0
:10C3B40093F7074095CF9757000083C707A993E7E2
:10C3C40007F8175700002302F7A8B717004003A780
:10C3D400470A1377074005CF03A7C70A1367074027
:10C3E40023A6E70AB717004013070040239EE70877
:10C3F400730020308326870A93E606202324D70A75
:10C40400B5B703A6860A518F23A4E60A59BF03A72A
:10C41400870A1367074023A4E70AE9B7411126C432
:10C42400B714004083D7E40983D7E40922C605641E
:10C4340013040480E18F89CBA145014597C001E035
:10C44400E780A050239F84083244A2444101730032
:10C45400203041119757000083D7079F22C406C696
:10C4640013F70740175400001304049E29C71397B9
:10C474004701634A07028D45094597C001E0E780FB
:10C48400C04C9145175500000345359D972002E0A7
:10C49400E780606C97C504E09385C50D254597B08A
:10C4A40001E0E78060B18357040093F7F7BF1757A3
:10C4B4000000231BF79883472400C18BA9CFB7172B
:10C4C400004003A7470A8567938707807D8F0DCFB8
:10C4D40003570400F98F8DEB8D45094597C001E0A2
:10C4E400E780A0469145175500000345159797200E
:10C4F40002E0E780406697C504E09385A5082545DA
:10C5040097B001E0E78040AB83472400BD9B1757F9
:10C514000000230CF792B240224441018280411171
:10C52400814601468145114506C6EF00A077B7272D
:10C53400004011472383E780B7F700E003A707D142
:10C544006D9B23A8E7D003A707D15D9B23A8E7D061
:10C554007300501001000100B2404101828041117A
:10C56400814681450146114506C62D2FB727004057
:10C5740011472383E780B717004003C7E70283C549
:10C58400E70483D7870391661377F70F93E53500A4
:10C5940063E5D700719B13671700B71700401306B4
:10C5A40070052380C704930680FA2380D704010012
:10C5B4000100238207022380C7042380D7040100DB
:10C5C40001002387E7022387B7042380C70423805D
:10C5D400D7040100010003C7B70413670702A3854A
:10C5E400E7042380070437F700E0832507D193E5A8
:10C5F40045002328B7D0832507D1DD992328B7D058
:10C6040073005010010001002380C7042380D70465
:10C614000100010003C7B7041377F70DA385E704EE
:10C6240023800704B240410182800111B7F507005D
:10C6340022CC8146E1052A840A86194506CE26CAFB
:10C6440002C023120100B92DB717004003C7E70247
:10C6540083C5E70483D7870391661377F70F93E5C0
:10C66400350063E5D700719B13671700B7170040C7
:10C67400130670052380C704930680FA2380D70429
:10C6840001000100238207022380C7042380D7040A
:10C69400010001002387E7022387B70423800704EE
:10C6A400B7F500E003A705D11367470023A8E5D039
:10C6B40003D507026577110713750560418D598D00
:10C6C4004205418101002380C7042380D70401006F
:10C6D400010003C7F70037F40700B7F400E013675D
:10C6E4000704A387E70003C7B704610413670702BD
:10C6F400A385E7042390A70283A704D1DD9B23A885
:10C70400F4D0730050100100010013056004352EAD
:10C7140081463000A285194502C42316010059231D
:10C7240022478247E31AF7FCB71700401307700546
:10C734002380E704130780FA2380E7040100010043
:10C7440003C7B7041377F70DA385E7042380070411
:10C75400F2406244D2440561828001114EC6814692
:10C764000146AA898145114506CE22CC26CA4AC86B
:10C77400152BB716004083C7E60203C7E60483D629
:10C784008603116693F7F70F1367370063E5C60056
:10C79400F19B93E717003714004013097005230039
:10C7A4002405930480FA2300940401000100230269
:10C7B400040223002405230094040100010023073C
:10C7C400F4022307E404230004041305500259204F
:10C7D400B7F700E003A707D11367470023A8E7D002
:10C7E4002300240523009404010001000347F400FE
:10C7F40013670704A307E40023002405230094041B
:10C80400010001002567B3E9E9002310340303A7FD
:10C8140007D15D9B23A8E7D07300501001000100ED
:10C824008146014681451145B5292300240523008D
:10C834009404010001008347640493E71700230371
:10C84400F40423000404F2406244D2444249B2494D
:10C8540005618280B7170040930670052380D704D2
:10C86400130780FA2380E7040100010003C6B7041C
:10C874001376F60DA385C7042380070413760502F7
:10C884004DC203C6A700118A1DE22380D70423806A
:10C89400E7040100010003C7A700136747002385CD
:10C8A400E7009307004B01000100FD17EDFFB717E8
:10C8B4000040930670052380D704130780FA238071
:10C8C400E704010001007D892394A7000100010011
:10C8D40001000100238007042380D7042380E70498
:10C8E40001000100010001003727004093061005F4
:10C8F400A303D78023800704B717004013077005EC
:10C904002380E704130780FA2380E7040100010071
:10C9140003C7B70413670708A385E7042380070444
:10C9240082801376050441C603C6A700418A1DE22E
:10C934002380D7042380E7040100010003C7A70074
:10C94400136707012385E7009307007D01000100B9
:10C95400FD17EDFFB7170040930670052380D70439
:10C96400130780FA2380E704010001001376F50120
:10C97400136606042394C7000100010001000100AE
:10C98400238007042380D704130660042380E7046C
:10C994006318C5000100010037270040894689BF9C
:10C9A40001000100372700409306200591B723803A
:10C9B400D7042380E7040100010003D7870013672D
:10C9C400070C2394E7000DBF4111814601468145C0
:10C9D400114506C6C12CB717004013077005238004
:10C9E400E704130780FA2380E7040100010003C76A
:10C9F4006704136717002383E70423800704B24006
:10CA0400410182808146014681451145612CB71759
:10CA14000040930670052380D704130780FA23800F
:10CA2400E704010001007D562396C7022380D70442
:10CA34002380E7040100010003C76704136717009C
:10CA44002383E7042380070401A0BD473305F502CF
:10CA540001007D1575FD8280411122C426C206C6DF
:10CA6400AA84014463179400B240224492444101D1
:10CA7400828005041305803E4204C13F4180DDB736
:10CA8400B7170040130700032388E70285471747B9
:10CA94000000232DF74473002030397122DC4ED678
:10CAA40056D237140040E57AB7F9070026DA52D493
:10CAB4005AD05ECE06DE4AD862CC2A8B916B9304A0
:10CAC4000404130A7005910AE1098347E402034749
:10CAD400E4048356840393F7F70F1367370063E581
:10CAE4007601F19B93E7170023804401130980FA30
:10CAF4002380240101000100230204022380440155
:10CB040023802401010001002307F4022307E40425
:10CB14002380040037F700E0832707D193E7470019
:10CB24002328F7D08357040293F70760B3E767011C
:10CB3400B3E75701C207C183010023804401238066
:10CB44002401010001008346F400130CB40493E6AD
:10CB54000604A307D4008346B40493E60602A3059F
:10CB6400D4042310F402832707D1DD9B2328F7D0B4
:10CB7400730050100100010013056004F935300002
:10CB8400CE858146194502C423160100212A114687
:10CB94009745000093850536280011231DD593077A
:10CBA40070052380F40023802401010001008347E1
:10CBB4000C0093F7F70D2300FC0023800400F250CF
:10CBC4006254D2544259B259225A925A025BF24BDD
:10CBD400624C21618280411106C6AD2D9D3897803B
:10CBE40001E0E780E088D5BF2303048015472303D1
:10CBF400E48001002302A480828083076480E3CE62
:10CC040007FE23030480828083076480E3CE07FE4B
:10CC140003454480828083076480E3CE07FE2302B9
:10CC2400A4808280411126C44AC24EC006C613772E
:10CC3400F50BAD47AA892E8995446306F70019457B
:10CC44006537653F8D444E854537FD59FD1463981E
:10CC54003401B240A24412498249410182801355F1
:10CC640009011375F50F453F2209CDB7011126CCF3
:10CC740006CEB704080051371545BD3771376937FB
:10CC84002AC6A53F32459377150089EB1365150035
:10CC94001375F50FF240E24405618280FD14E9FC4E
:10CCA4000145CDBF397126DC4ADA4ED852D656D466
:10CCB4005AD25ED006DE62CE66CCB7E700E07D577E
:10CCC40083AA070022C603AA470023A0E71823A2C9
:10CCD400E718B7170040130770052380E70413070C
:10CCE40080FA2380E70483C74704930B75FFB68457
:10CCF400E20793FBFB0F8546AA892E8B32893724E2
:10CD04000040E187015763FA76016308D50089463C
:10CD1400130700026313D5000157D98F93F7F70F58
:10CD2400B71C00402382FC0411472303E48013054D
:10CD3400F00F5D3D094CD135636D7C11B7050700DB
:10CD4400DA9537870700795563F2E504B3879500D0
:10CD5400636EF702370B0800A94733EB650163994B
:10CD6400F90689E48144513D26850DA0DA850945FB
:10CD7400553D05090345F9FFFD14050B693D81C4C3
:10CD84009377FB0FFDF7DD3569FD7D55B71700403F
:10CD9400130770052380E704130780FA2380E70450
:10CDA40003C74704418B2382E704F250B7E700E04E
:10CDB40023A0571123A24711E25432445259C259B5
:10CDC400325AA25A125B825B724CE24C216182801D
:10CDD400A5476395F90685691309F00FB306990011
:10CDE400B3742B01B6941349F9FFB3749900856B9E
:10CDF40033796901416B9387F9FFB3F7270199E30D
:10CE040063FC340193D94900C147E3E637FF99BF76
:10CE14000569C1697D19D9B71305800D6388690156
:10CE2400130500026384790113051008CA85DD3BEC
:10CE3400353D21DD4E99B3843441D9B7DA852D458A
:10CE4400D533CA94E30099F205097D3BA30FA9FEEB
:10CE5400D5BF9387F9FF93F7F70F6361FC0C83C782
:10CE64001C0413073008631FF70437070800636BBB
:10CE7400EB04B3079B00B706100063F5D704334BEC
:10CE8400EB0089476393F9068980D549E38C04EC68
:10CE9400DA850945413B11090327C9FF914723203E
:10CEA400E48003076480E34E07FE23033481FD1707
:10CEB400EDFBFD14110B81C49377FB0FE9FF7D3368
:10CEC40071F5E1B5B717004003C75704B707080069
:10CED4001377070219E3B78707007955E378FBEA6C
:10CEE40033079B00E3FFE7F855B58547E382F9F282
:10CEF400DA852D45053B9389F4FFE38504E6293360
:10CF040093F7390091EB83260480032709009307E4
:10CF14004900E39AE6E43E89CE84F1BFB5476396BF
:10CF2400F9001305900BC93135BDB1471305B00A9B
:10CF3400E38BF9FE99476391F904B7050800B365DB
:10CF4400BB002D45C53181448D4BA149753963968C
:10CF54007401832704802320F9008504E39834FFB7
:10CF64008327048013172B01635507002312F9004C
:10CF7400D5BB2322F900FDB39D476399F90281458E
:10CF84001305B0044531BD442320090023220900C0
:10CF9400FD599D3993F77400CA9703C70700FD1420
:10CFA400398D2380A700E39634FF6DBBA1476392BC
:10CFB400F9046D398144630D0B008D479304C0035C
:10CFC4006308FB009304000563048B01930440048D
:10CFD4001375C507E30895D819453931393905451D
:10CFE400213126850D3909453D314931E31C05D6EA
:10CFF40069BB91476399F90013056006F536F53E60
:10D00400130590090DB7E38F09D4F154A9BB19CDC9
:10D0140091CD09CE81473387F50083460700330756
:10D02400F50085072300D700E317F6FE828019C9AF
:10D0340091C909CA910583A7C5FF11057D16232E41
:10D04400F5FEC5BF828001C919C62A960505A30F3E
:10D05400B5FEE31DA6FE828081473307F500030772
:10D06400070019E33E8582808507C5BF01112E861E
:10D0740026CAAA84131506019305F004418122CC23
:10D0840006CE32C6EF1040592A8401C53246A68521
:10D09400BD3F2285F2406244D244056182808547C7
:10D0A40015C18DC105C28147B306F5003387F5006C
:10D0B40083C60600034707006398E6008507E31567
:10D0C400F6FE85473E8582808147EDBF9307F6FFD4
:10D0D400BE952A966313C5008280FD1583C715008B
:10D0E4000505A30FF5FEFDB7AA87014581CF09CE3B
:10D0F4003E96850703C7F7FF6317B700E39BC7FE98
:10D1040005458280828001458280797197570000AD
:10D114009387476822D4804306D626D24AD04ECE7F
:10D1240052CC56CA5AC85EC662C45DCC37C9C9015E
:10D13400814B175A0000130A6A6A975400009384BB
:10D14400A4651309F937975A0000938A6A5FB709EF
:10D15400C0A8370B40578357240095E35C44639D74
:10D164000B00175700002327F762032CC400228505
:10D17400EF10A057628499A823A6FB00FDB783276C
:10D184000A008297838664011C4463DB0606330726
:10D19400F5406367E9089757000023AB075A8355A6
:10D1A400240003450400972002E0E780C09A5C4015
:10D1B4005844A9CF1444B6978386640163C5060016
:10D1C40063E33701DA971CC4A28B3A8449F4975776
:10D1D40000009387E7569C4B09476378F706F917D5
:10D1E400175700002326F756B2502254925402597E
:10D1F400F249624AD24A424BB24B224C4561828088
:10D20400E377F5F83387F9402A9761B763970B0002
:10D214009757000023A0E75889BF23A6EB00B1B7B6
:10D22400D85009CF63DF06003385A74083A70A01DE
:10D234006376F5009757000023ACA750A28B4044B7
:10D2440071B7E3F3A7FECE97C5B79757000023A1A4
:10D25400075059BF411122C417540000130444510C
:10D264001C4006C626C24AC091C782979757000041
:10D2740023A007505C4091C382971C406391071C14
:10D284009757000083C7576D858B9DC7975700003C
:10D29400A384076C175700000347376C954763FD59
:10D2A400E700EF0010379757000083C7176BF51797
:10D2B4008A07A2979C438297175900001309896D26
:10D2C4008347C900918B99C3EF1060281C4491C314
:10D2D4008297975400009384A44B984017560000FB
:10D2E400034616469757000083C787459396170051
:10D2F400BA9683D60600D5CA9757000083C7474419
:10D3040063EFC70A97570000238C07421C406398B9
:10D3140007129757000083C7776491CF975700008F
:10D3240083C7B76389EB97570000A3890762977097
:10D3340003E0E7808021975700009387274A9C43A6
:10D34400638F070EB707C0A8175700002322F740C2
:10D354006D3B9757000093872744DC53EDC3175761
:10D3640000001307E73D184B9757000083C7174485
:10D374006367F70C175700000347375E954763E070
:10D38400E70C8347C900918BDDEB90409756000072
:10D3940083C6163B63CBD70A2244B2409244024967
:10D3A4004101171302E067002358850793F7F70F2D
:10D3B400975600002386F638E3E6C7F235BF8607A2
:10D3C4003E97835507002310070097570000239FBB
:10D3D400073A97570000938767399C431755000015
:10D3E4000345053613172500BA979C438297975730
:10D3F400000083D7A739175700000347673493C742
:10D40400F7FF7D8D9317170098403E9783570700C9
:10D414005D8D2310A7009757000083C7673291C71B
:10D42400850717570000230DF730175700000347EF
:10D4340027319757000083C7B730E375F7ECB24044
:10D444002244924402494101828013971700329783
:10D45400035707006DF7850735BFAD6737C7004031
:10D46400BD072326F7200F1000009757000093876D
:10D47400272DC84F83278726BD66BD0693C7F7FFB0
:10D4840099836A052326D7205D8D82804111B717C1
:10D494000040985F3AC6945F3247E39CE6FE32450B
:10D4A40041018280828003278511630007124111A4
:10D4B40022C406C68347C5008345C5042A8493F75E
:10D4C400C70F2306F500834697000356C70013953C
:10D4D4008601618563F1C508635A05060345870023
:10D4E40093F6F607A304D700054693E627006314D2
:10D4F400C50093E617002306D4005C4389075CC388
:10D50400A30AB400032504112E864C4309050136F1
:10D514008327841103465401D44303D7C700B2962A
:10D52400118FD4C32396E7008947A30DF400034762
:10D5340044039757000083C747276378F70483475A
:10D54400C40093E707012306F40081A093E71700C2
:10D554002306F40075B79376F60F635D0502034561
:10D564008700854513E627006314B50013E617000A
:10D574002306C400A30AD400A30407008547A30D0F
:10D58400F400832784119C43DDF3B2402244014517
:10D594004101828093E717002306F400A30AD40014
:10D5A400A3040700032504114C4309058D34832784
:10D5B400841103465401D44303D7C700B296118F94
:10D5C400D4C32396E7008D475DBF054582809757F6
:10D5D40000009387A7369C43411122C406C6858B5D
:10D5E4002A84C5EF4165130525F5971003E0E7800C
:10D5F400200945C58347A5002315F5008327041298
:10D60400BDE72320A4122322A41285472310F40487
:10D61400232005008347640154412316F500034782
:10D62400D4002304E5000547A304E50017570000D0
:10D6340013074732184F1385170215811C437D15B4
:10D644001375F50F9CC25C43DCC21C479CC65C4747
:10D65400DCC61C4B9CCA5C4BDCCA1C4F9CCE5C4F8A
:10D66400DCCE19CD9386060213070702C1BF8327B8
:10D67400441288C3835704042322A412850779B76C
:10D684009757000083D7873A850717570000231F51
:10D69400F738B2402244410182808347C400230901
:10D6A4000400054593C747002306F400DDB783470C
:10D6B400850193F7E70FD5EF83479501DDEB03462B
:10D6C40025018346C50009CA834545031757000051
:10D6D4000347B70D63E7E50013F7060141CF0147A0
:10D6E40009C6C18A0357651C81C68356A51C369793
:10D6F40051C31307C712175500000355E506B33588
:10D70400A70237460F00411113060624814622C49E
:10D7140026C206C67D543305A702971004E0E780AD
:10D7240040199757000083C7B708B384A7009757D9
:10D7340000009387272F03A707098327070963F3AB
:10D7440087003E84184375FB9757000093870709A9
:10D754009C43829781476364A400B307A440B2400A
:10D764002244B3B7970093C7170092443E85410102
:10D77400828081473E858280797126D206D622D462
:10D784004AD04ECE52CC56CA5AC85EC683473503D9
:10D7940003447513AA843E941374F40F9307400250
:10D7A40063F687001304B4FD1374F40F03AA8413FF
:10D7B40083AAC413A38B841222865285D68597101C
:10D7C40004E0E7808009058915E503CBD4120149FB
:10D7D4008149337B6403930B50024A865285D68574
:10D7E400971004E0E7806007058915C56391690314
:10D7F4001374F90F238B8412B25022549254025999
:10D80400F249624AD24A424BB24B45618280850951
:10D81400E20993D989410509E31179FDE1BF832721
:10D8240085090356E503797193D60701BD8EC206B7
:10D83400C182358E1357764093575640898B058B9A
:10D844005D8F93573640918B5D8F93571640A18B14
:10D854005D8F93171600C18B5D8F9317360093F776
:10D8640007025D8F931756009355860093F70704BC
:10D874001E065D8F1376F60F518F93D7554013D63E
:10D884003540118A898BD18F13D67540D18F13D629
:10D894001540218AD18F13961500418AD18F139692
:10D8A400350013760602D18F1396550013760604BD
:10D8B4009E05D18F93F5F50FCD8FA20745465D8F59
:10D8C4003307C70222D42A8426D252CC56CA032A4A
:10D8D4008413832AC4135AC806D636974207418351
:10D8E40093577740135557400989858BC98F135532
:10D8F40037401189C98F135517402189C98F1315D2
:10D9040017004189C98F1315370013750502C98F94
:10D914001315570093558700137505041E07C98F07
:10D924001377F70FD98F13D5354013D75540118985
:10D93400098B498F13D57540498F13D5154021891B
:10D94400498F139515004189498F13953500137537
:10D954000502498F13955500137505049E05498FDB
:10D9640093F5F50F4D8F2207D98FB387C7024AD09D
:10D974004ECE5EC662C4B697C207C18313D7774042
:10D9840013D557400989058B498F13D53740118921
:10D99400498F13D517402189498F13951700418961
:10D9A400498F1395370013750502498F1395570056
:10D9B40093D58700137505049E07498F93F7F70FD6
:10D9C400D98F13D5354013D755401189098B498F09
:10D9D40013D57540498F13D515402189498F139567
:10D9E40015004189498F1395350013750502498F38
:10D9F40013955500137505049E05498F93F5F50F8E
:10DA04004D8F2207D98FB387C70213065002528560
:10DA1400D685B697BD8E93940601C18033F6C402B1
:10DA2400137BF60F971004E0E78020E305890DEDE2
:10DA34008347D41201498149B3849702130C5002DD
:10DA4400C1804A865285D685971004E0E780E0E0DD
:10DA54000589937BF90F11C563863403850993F90E
:10DA6400F90F0509E31F89FD230B6413B2502254F7
:10DA740092540259F249624AD24A424BB24B224C66
:10DA8400456182805E8BCDB7011197570000938763
:10DA940067F922CC03A4470B26CA06CE2AC42EC695
:10DAA400854419E40145F2406244D2440561828010
:10DAB4008347910003471400858B6304F7000044F7
:10DAC400CDB719469305A10013052400EFF02FDD0F
:10DAD400E31795FE0545C1BF011122CC1754000080
:10DAE400130404E918402AC62EC432C206CE3C4BA5
:10DAF40093F7F7F73CCB977003E0E780C0A1184099
:10DB040097560000938606E43C4B93E707083CCB0A
:10DB14009C423245A24523A0070003471500034851
:10DB2400250022074208429703480500429703480C
:10DB340035006208429798D70347550003486500AB
:10DB4400220742084297034845004297034875005C
:10DB540062084297D8D7034795000348A5002207D7
:10DB6400420842970348850042970348B50062087B
:10DB7400429798DB0347D5000348E5002207420893
:10DB840042970348C5000345F500429762052A976A
:10DB9400D8DB03C7150003C52500220742052A97D1
:10DBA40003C505002A9703C5350062052A9798CF57
:10DBB40003C7550003C56500220742052A9703C51C
:10DBC40045002A9703C5750062052A97D8CF03C775
:10DBD400950003C5A500220742052A9703C58500C1
:10DBE4002A9703C5B50062052A9798D303C7D500C1
:10DBF40003C5E500220742052A9703C5C50083C56E
:10DC0400F5002A97E2052E97D8D3D843759BD8C33D
:10DC1400D84313671700D8C398431367170098C3F2
:10DC2400124698425C43858BD1E71C4F0145230083
:10DC3400F6009C429C4FA183A300F6009C429C4F9B
:10DC4400C1832301F6009C429C4FE183A301F600AB
:10DC54009C42D84F2302E600D84F2183A302E6005A
:10DC6400D84F41832303E600D84F6183A303E60022
:10DC740098532304E60098532183A304E6009853A1
:10DC840041832305E60098536183A305E600D85336
:10DC94002306E600D8532183A306E600D853418324
:10DCA4002307E600DC53E183A307F600F240624455
:10DCB400056182800100B5B7175700001307C7C874
:10DCC4001443411122C49C5E4AC006C6998326C2ED
:10DCD400858B3A84175900001309C9C6D1CB9C5EC1
:10DCE40097540000938404C793F7F7F99CDE175701
:10DCF4000000034787C693070008631BF7008327C8
:10DD040009009C4393F70704175700002307F7C43F
:10DD140083C7040093F707049DC3975700009387B4
:10DD2400E7AB9C4382979757000023ADA7C283C7F4
:10DD3400040093F7F70B17570000230DF7C083C7B0
:10DD4400440093F707048DE7854717570000A305A0
:10DD5400F7C0975700009387A7C19C43096798C7EA
:10DD6400130700FC975600002388E6BED844F8D376
:10DD74001C40985F1183058B09CB985F3D9B98DF0E
:10DD84000547975600002389E6BC985F1D83058BE1
:10DD940011CB985F1377F7F798DF85471757000083
:10DDA400230CF7BA83270900D8430583058B19C7C9
:10DDB400D843759BD8C3D843799BD8C3B240224477
:10DDC4009244024941018280397106DE16DC1ADA76
:10DDD4001ED82AD62ED432D236D03ACE3ECC42CA1F
:10DDE40046C872C676C47AC27EC0F935F250E25291
:10DDF4005253C2533255A255125682567247E247C5
:10DE04005248C248324EA24E124F824F21617300D3
:10DE14002030975700009387A7B594439757000085
:10DE2400938747B303C70700058B11CB97570000AF
:10DE3400238407B297570000A38007B2828003C7E8
:10DE44001700058B65F7F85271FF83C75700DDB7DC
:10DE540017580000130848AF032708001C5F958378
:10DE6400858BD1E709C61C5BBD832300F60085CAF8
:10DE740083270800985B460793576701635607009A
:10DE840093E707C0C207C18303970600C207C1878F
:10DE940009C7BA970947B3C7E7022390F60085CDAF
:10DEA400834715008DCB9756000083C606AB93F6C7
:10DEB40006041387970089478DCA3A9503470500DE
:10DEC400854699471376F7066311D6026207618780
:10DED400B947634C0700832708009C5FED838D8B53
:10DEE40017570000A30DF7A681473E85828085471A
:10DEF400EDBF411122C406C617540000130444A701
:10DF0400184049E9AE877453FDFE3E85B2859757A4
:10DF14000000238207A4976003E0E780C035975789
:10DF24000000938767A29C43B70680009843558FEF
:10DF340098C3D857719BD8D797570000A38E07A0D2
:10DF440097570000A38807A01C40094798C3B7F758
:10DF540000E003A707D16D9B23A8E7D003A707D14F
:10DF64005D9B23A8E7D0730050101440175700009E
:10DF74001307479E83472700858B89EB8347370028
:10DF8400858BD9C7975700002388079CB240224449
:10DF9400410182808D476310F502975700009387F3
:10DFA400A79A9C43B70680009843558F98C3D857C7
:10DFB400719BD8D75DBF8547E319F5FAB567BD07EF
:10DFC4005CC70F1000001C400967094698C7130777
:10DFD40000F8975600002381E698175700001307AE
:10DFE400A7961443984231830D8B6319C700130716
:10DFF400E043F8D33D673D07D8C785BF98423183D6
:10E004000D8B01E713076019EDB71307E01BD5B7B4
:10E01400FC52ADF3A5BF5D7152DC175A0000130A20
:10E02400AA9203270A0086C6A2C4A6C2CAC04EDEAC
:10E034001C439759000093896998175900001309E4
:10E04400299393F7F7E793E707081CC383A609000E
:10E054003707CEFF7D179C46130680022A84F98F6A
:10E064009CC683270900130700082800B8CBAE8498
:10E0740093051008EFE03FFD976003E0E780A049B7
:10E08400976003E0E780A05683270A009376F41F85
:10E09400370FFCFF23A40700984B4E88CA881367E8
:10E0A400F70398CBF84F130510F8D285137707E0E0
:10E0B400558FF8CF9843F576FD16758F98C398431E
:10E0C400B7063300B70204001377F7E798C3984301
:10E0D4009303401F7D1F1377F7E71367071098C357
:10E0E40003A70900930F800285491C47D58F1CC7DD
:10E0F400832709001307900D3400B8CB1149014759
:10E104001353370026938347030013767700B3D75E
:10E11400C740858BDDCF9C41832E0800239C0704D8
:10E124002390070603AECE02137EDEFF23A6CE03A2
:10E1340083AE0700137EF70793FE0EF833EECE018D
:10E1440023A0C70103AE4702336E5E0023A2C703B8
:10E1540083AE0800014E23A27E0603DA0706630796
:10E164004E0303AE0703038A0600135EFE00620E2D
:10E17400135E8E416358CA0103AE0703135EFE00AB
:10E184002380C60103DE0706137EFE0F03AA4E0694
:10E1940063060A0003DA8705E37F49FB03AE4702FF
:10E1A400337EEE0123A2C70383870600635CF40079
:10E1B400034E03003396C9001346F6FF3376C601B7
:10E1C4002300C3003E8663D3A7002A861315860165
:10E1D400618505071377F70F8506E313F7F3B64058
:10E1E400264496440649F259625A616182809746F0
:10E1F40000009386E6779C42D847131617016355AF
:10E204000602984713161701635006027D57B8D7C4
:10E21400174700001307C752584F05071746000059
:10E22400232EE652116798C798470D83058B1DC3AB
:10E2340017470000034727721367170017460000AB
:10E24400230BE670130700F8174600002306E67058
:10E25400214798C79847058B09CF17470000034704
:10E26400776F1367170017460000A305E66E05478E
:10E2740098C798470983058B09E798470583058B59
:10E2840031CF9847174600001306C66C17450000A7
:10E294001305856B0983058B630307101841184325
:10E2A40031830D8B75EBAC4B184E93F50502034788
:10E2B4001700CDCD79EF13077006D8CF03470600BA
:10E2C40013671700174600002306E668114798C72E
:10E2D40018415C57F19B93E717005CD79C42984721
:10E2E4009316370163D606029746000083C6C67AA2
:10E2F400C18A174700001307E772C5CE03474707D3
:10E3040013670702974600002388E678056798C7D5
:10E3140098479316270163D1060217470000034765
:10E32400A7636207618763570700054797460000A4
:10E334002384E662096798C798479316070163D652
:10E3440006029746000083C63675858A1747000083
:10E354001307476DADCE034757071367270097464A
:10E364000000A38BE672216798C7828029D7854570
:10E374006315B7001307B00689B789456315B7005D
:10E384001307F0061DBF8D456315B700130730074B
:10E394002DB71307500715B71307600739BF034795
:10E3A40036001367170017460000A306E65A09470C
:10E3B40039BF834647070946BD8A6388C6000347B9
:10E3C40047078D463D8BE313D7F4114725BF83469A
:10E3D4005707918AC9DA034757071367870041B77C
:10E3E400397106DE16DC1ADA1ED82AD62ED432D2B9
:10E3F40036D03ACE3ECC42CA46C872C676C47AC239
:10E404007EC0F533F250E2525253C2533255A255F4
:10E41400125682567247E2475248C248324EA24EC2
:10E42400124F824F216173002030174700001307F9
:10E4340067548346B7019747000083C777564C4B10
:10E44400B697FD8B33D7F50097460000A384F652A8
:10E4540097460000A386F654058B15EF1747000076
:10E4640003475754B3F7E7028146014713050002F7
:10E4740033D6E500058A1378F70F19CA6397D700D6
:10E4840097470000A388074F8280850693F6F60F0E
:10E494000507E31FA7FC8280974700009387073492
:10E4A4009C43011122CC4EC606CE26CA4AC852C489
:10E4B40056C28297974700009387C74D804781498A
:10E4C4006305A406BE84974700009387E72C03875F
:10E4D40067013E8963550706018D1354550097471C
:10E4E400000083C7C74A9379F501636DF402370AC4
:10E4F400C0A8B70A4057153F9C449746000083C6FE
:10E504000649139756003E9783076901158C63C526
:10E5140007006363470156979747000023A0E74825
:10E52400E37BD4FC1604B3693401F24062444E85A3
:10E53400D2444249B249224A924A05618280E37D2B
:10E5440085F8B707C0A833848740229579B79747E1
:10E5540000009387A7289C43411122C406C626C203
:10E564008297974700009387E74280476309A40690
:10E57400BE8497470000938727228387670163D867
:10E584000704018D135455009747000083C72740A3
:10E594006367F404593D98449747000083C7273FB5
:10E5A4009396570036971D8C9746000023A8E63EA5
:10E5B400E372F4FE2244B24092441745000003453E
:10E5C400753B81454101176303E067006349E37AC2
:10E5D40085FAB707C0A833848740229565B7B2404F
:10E5E4002244924441018280974700009387073D6B
:10E5F4009843B75702009387079F8326070913960A
:10E604005600635806008326070913966600634480
:10E614000600FD17FDF3828071C5AA870145E9C58F
:10E624008D07C207C183F19BC207C183130740034F
:10E63400636FF702174700001307473E0843174765
:10E6440000001307273D14436398A60217470000F0
:10E6540013078714185B014541CB4111C20706C655
:10E664000545DD8D0297B24001454101828017477F
:10E6740000001307673AD9B70357650035E303571A
:10E684004500636FF704B306F7402146637CD60266
:10E6940003280500938687001D8FAA9661171746E5
:10E6A40000000356460A2392E60023A006012393A2
:10E6B400060014C12312F500130786FF97460000D5
:10E6C4002393E6082313B5009745000083D5A507D7
:10E6D400B387F540174700002317F706210582800A
:10E6E40008419DB70145828082800DC19747000093
:10E6F4009387C73203A307009747000093878731A6
:10E7040083A8070081469A8763E31701828003A8E0
:10E714000700636DF50A636BA80A13878700E36734
:10E72400E5FE03D66700216705076317E60003C704
:10E73400019B05072388E19A9745000093854500CE
:10E7440003D6470003D76500239307003297420797
:10E754004183174500002318E5FE638A67021745C5
:10E7640000001305652B08416303F50203D5660019
:10E7740019ED83D7460023A0060121073E96210602
:10E784002392C60097470000239FE7FAB687984371
:10E79400E30E17F797460000938606289442E30792
:10E7A400D7F683566700BDF283D647000356470069
:10E7B4001843A106B2962392D70098C383D7650065
:10E7C400A107174700002310F7F88280BE86C2878E
:10E7D40025BF0111974700009387C72422CC03A4C7
:10E7E400C70B26CA4AC84EC606CEAA8413092500FA
:10E7F400854915C083C7140003473400858B63041F
:10E80400F700405CFDB71946930544004A85EFE0E4
:10E814001F89E31835FF2285F2406244D2444249FD
:10E82400B249056182804111974700009387871F91
:10E8340022C403A4C70B26C24AC006C693042500FB
:10E84400054901E82285B24022449244024941012B
:10E854008280A6851305A402970004E0E78020B512
:10E86400E30225FF405CF1BF411197470000938705
:10E87400671B22C403A4C70B26C24AC006C693045E
:10E884002500054901E82285B24022449244024908
:10E8940041018280A6851305A401970004E0E78066
:0CE8A40000B1E30225FF405CF1BF000062
:10E8B0009751FF1F938101C31791FF1F13018174AB
:10E8C00017D5FFFF130545749715FF1F93858573B3
:10E8D0001746FF1F1306C6FD63FAC5008322050015
:10E8E00023A0550011059105E3EAC5FE17050400B4
:10E8F000130505149745FF1F938585FB1386018833
:10E9000063FAC5008322050023A055001105910577
:10E91000E3EAC5FE138501889785FF1F938585224D
:10E920006377B500232005001105E36DB5FEFD42B8
:10E93000739002BC8D4273904280B7220000938294
:10E94000828873A002309712FF1F9382A26B93E21A
:10E9500032007390523097120100938202ED73904F
:10E960001234730020303D432A876373C3029377C8
:10E97000F700BDEFADE5937606FF3D8ABA960CC36E
:10E980004CC30CC74CC74107E36BD7FE11E2828032
:10E99000B306C3408A069702000096966780A600D9
:10E9A0002307B700A306B7002306B700A305B700E7
:10E9B0002305B700A304B7002304B700A303B700DF
:10E9C0002303B700A302B7002302B700A301B700D7
:10E9D0002301B700A300B7002300B700828093F59E
:10E9E000F50F93968500D58D93960501D58D61B76A
:10E9F000939627009702000096968682E78086FA13
:10EA00009680C1171D8F3E96E374C3F8A5B7336790
:10EA1000B500FD530D8B79E7B7877F7F9387F7F7B5
:10EA200010419441B372F6003363F600BE92B3E234
:10EA300062006397720C6318D6065041D441B372DA
:10EA4000F6003363F600BE92B3E262006398720A86
:10EA5000631BD60410459445B372F6003363F60089
:10EA6000BE92B3E262006391720A631ED602504501
:10EA7000D445B372F6003363F600BE92B3E262008F
:10EA8000639A72086311D60210499449B372F60072
:10EA90003363F600BE92B3E26200639372085105DD
:10EAA000D105E30FD6F61317060193970601631CF1
:10EAB000F7001357060193D706013305F740937506
:10EAC000F50F91E982804183C1833305F740937547
:10EAD000F50F91E182801377F70F93F7F70F330566
:10EAE000F74082800346050083C6050005058505BD
:10EAF0006313D60065FA3305D6408280110591056F
:10EB0000E312D6FE014582802105A105E31CD6FC57
:10EB1000014582803105B105E316D6FC01458280AE
:10EB20004105C105E310D6FC01458280014711462D
:10EB30004148B386E5008147B308F50083C8080063
:10EB40008507C10623A816FFE398C7FE1107110524
:10EB5000E31107FF8280935785019CC193570541BC
:10EB600093F7F70FDCC19357854093F7F70F1375B1
:10EB7000F50F9CC5C8C582801C41411113070501D2
:10EB80003EC05C413EC21C453EC45C453EC69397B8
:10EB900025001408B69783A707FF85051105232EC6
:10EBA000F5FE8D89E315E5FE41018280397122DC95
:10EBB0004166138441A206DE26DA4AD84ED652D4E4
:10EBC00056D25AD05ECE93050501A2863708FF00C3
:10EBD0007D1683070500034735001105E207D98F2D
:10EBE0000307D5FF9106420733770701D98F030743
:10EBF000E5FF2207718FD98F23AEF6FEE39BA5FCBC
:10EC000081499144930A010117BB0300130BCBCE3A
:10EC100097BB0300938BCBCB130AC00293F734004E
:10EC2000032904004844BDE78A85353785450A85B0
:10EC3000A1370A871C43110793F6F70093F7070FD4
:10EC4000DA97B69783C70700232EF7FEE394EAFE10
:10EC5000024592476205C2075D8DB2475D8DA247AE
:10EC6000A2075D8D93972900DE979C4385093D8D12
:10EC70003345250108C885041104E39144FBF25093
:10EC80006254D2544259B259225A925A025BF24B00
:10EC9000216182803345A90008C8F1BF797122D46F
:10ECA00026D24AD04ECE52CC56CA06D62A8A93993C
:10ECB00045000144938A41A213090101C144B307ED
:10ECC0003401D69788438A85793533078A008A8745
:10ECD0001443904391074107B18E2328D7FEE3994F
:10ECE00027FF1104E31D94FCB250225492540259A0
:10ECF000F249624AD24A45618280397122DC1304AA
:10ED0000050106DE22878147C1460C433306F10028
:10ED100011070CC24C4710083E960CC24C4F101005
:10ED20003E960CC29107E392D7FE85450A85A93528
:10ED30008945080891358D4508103D3D814741477B
:10ED4000B306F10094421104232ED4FE1408BE969B
:10ED5000944254C41410BE969442910754CCE3914B
:10ED6000E7FEF25062542161828006059377051018
:10ED700089C71375F50F1345B5018280411106C689
:10ED8000ED37B2404101D5B781471148C1483386BC
:10ED9000F500B306F500014703AE06003303E600B5
:10EDA00005072300C301C106E31807FF9107E3909D
:10EDB00017FF82809306050117B603001306C6B33A
:10EDC00013050505138706FF1C43110793F5F7008C
:10EDD00093F7070FB297AE9783C70700232EF7FE6E
:10EDE000E394E6FEC106E31FD5FC8280411122C4F4
:10EDF00006C626C285472E846301F502894763183B
:10EE0000F5002244B24092442E854101B9BF8D479E
:10EE1000631BF5002E85913F298C2285B240224448
:10EE2000924441018280A5476315F5002E85B937CC
:10EE3000DDB7AD47631AF5002E8589373D37AA84C3
:10EE400022852537258DC9BFB5476316F5002E8568
:10EE50003537AA84FDB7B947E311F5FC2E85393F54
:10EE6000AA842137A98C228509373344950075B7C8
:10EE70006382051493F7F500639E07121571D6C3DC
:10EE8000AA8A3285A2CDA6CB86CFCAC9CEC7D2C5A3
:10EE9000DAC15EDF62DD66DB6AD96ED73284AE84AA
:10EEA000EF708346C147631EF50022850133014997
:10EEB000130A010697BB0300938B0BB8294C6341DF
:10EEC0009902FE406E44DE444E49BE492E4A9E4A97
:10EED0000E4BFA5B6A5CDA5C4A5DBA5D2D6182803A
:10EEE000338B2A010C105A859131814508107D33EE
:10EEF00085490810C135081009351C10D2863E8797
:10EF000010434107C10623A8C6FE032647FF23AAD4
:10EF1000C6FE032687FF23ACC6FE0326C7FF23AE2B
:10EF2000C6FEE31FEAFC17B703001307E7AC03288C
:10EF30000700832D4700032D8700832CC7005284D0
:10EF4000138607010C4042853ECE3ACC32CA42C8F5
:10EF5000713D0C482AC66E85513DB2460C501104D5
:10EF6000A98E6A8536C65935B2464C54A98E668537
:10EF700036C6AD3DB246F2475246358D88C391073D
:10EF800042486247E310F6FC4107B287E391EBFA8F
:10EF9000CE85081085091933E39D89F50810193DC0
:10EFA0000810A13BA9450810D539DA850810E93BBE
:10EFB000410931B782809307F00F6384F60A2D71FF
:10EFC000232A911023282111B284232631111306FC
:10EFD00000102E89AA89930530020A85232E11106C
:10EFE000232C811036844132A2852685EFB010642F
:10EFF00013178500935785003365F7002310A10090
:10F00000A685228613053100930434002301810074
:10F0100093F4F40FEF60235893F6F40089C64D047F
:10F02000158C9374F40F1C02A697A6850A8517B653
:10F030000300130666A0238007F01D3D26868A85FF
:10F040004E85EF604355230099008320C1110324AE
:10F05000811183244111032901118329C1101561F4
:10F0600082808280411106C6EF703055B240AA8678
:10F0700017B70300130747A21756FF1F130686167C
:10F0800097B50300938585A2114541016FB0907239
:10F09000130101DB2324812423202125232611248D
:10F0A00023229124232E3123232C4123232A51234D
:10F0B0002328612303470500930710042A892E841F
:10F0C0006317F76603471500930740056311F7665A
:10F0D000034725009307E005631BF7642E86AA8586
:10F0E0002545EFB0D0621306D003A2854A85EFB064
:10F0F000F079AA84635A05003546A2854A85EFB0A7
:10F10000F078AA84634405089389D4FF9307100319
:10F1100063CE37074E86930539002808EF70A32287
:10F120001C1CBE9917BA0300130A4AC2238409DEC5
:10F13000D28A81494D4B83254A002808EFB0D06E12
:10F140000DC18E09D69983D709004947636FF7002F
:10F1500017B703001307878F8A07BA979C43BA979C
:10F1600082878509210AE39869FD97B50300938595
:10F1700025BDCDA89305F4FF858D13851400C20528
:10F1800081460146C1814A95EF2090428320C124E7
:10F190000324812483244124032901248329C123B6
:10F1A000032A8123832A4123032B012313010125F1
:10F1B00082801306F4FF058E938514004206418277
:10F1C000CA95E800EFC0E0141305D104EF70C31333
:10F1D00093150501C1811305D104EFC0002097B537
:10F1E00003009385E58D1305D104EFB0F06319CDCD
:10F1F00097B503009385458D0545EFB0F04617653B
:10F20000FF1F034535C5EF50005F49B797B50300B1
:10F210009385C58C1305D104EFB0106119CD97B556
:10F2200003009385258C0545EFB010441765FF1F3B
:10F23000034555C2EF50E05E91BF97B5030093853B
:10F24000658B1305D104EFB0305E0DC13717004058
:10F250008327C70C97B503009385458A93E7070179
:10F260002326F70C2545EFB030400DB797B50300C6
:10F27000938585891305D104EFB0105B11CD371745
:10F2800000408327870C97B503009385658893E733
:10F2900007012324F70CF9B797B503009385C587B9
:10F2A0001305D104EFB0505811CD37170040832714
:10F2B000C70C97B503009385E58693E707082326D7
:10F2C000F70C4DB797B503009385C5861305D10498
:10F2D000EFB0905511CD371700408327870C97B5B5
:10F2E00003009385E58593E707082324F70C9DBF6A
:10F2F00097B503009385C5851305D104EFB0D052AF
:10F3000097B503009385858531FD97B503009385F7
:10F31000A5851305D104EFB0305197B5030093854F
:10F32000658529F197B50300938585851305D1047B
:10F33000EFB0904F11C59767FF1F23A507B2B9B56E
:10F3400097B50300938585841305D104EFB0D04DA4
:10F3500001C5EF50D06C1DBD97B503009385C583E3
:10F360001305D104EFB0504C01C5EF50B06B39BD5F
:10F3700097B50300938505831305D104EFB0D04AF8
:10F3800001C5EF50706919B597B5030093854582A3
:10F390001305D104EFB0504901C5EF50B069FDB37A
:10F3A00097B50300938585811305D104EFB0D0474D
:10F3B00011C913059108EF60431B1375F50FEF504A
:10F3C0003064E9B397A503009385857F1305D104C5
:10F3D000EFB0904501C5EF90C0074DBB97A5030066
:10F3E0009385857E1305D104EFB0104409C505450A
:10F3F000EF90001A61BB97A503009385657D130507
:10F40000D104EFB0704219C10145DDB797A50300E3
:10F410009385857C1305D104EFB0104111C93717CE
:10F4200000408327C70AA166D58F2326F70AB9BBF8
:10F4300097A503009385C57A1305D104EFB0D03E9C
:10F4400011C9371700408327870AA166D58F232467
:10F45000F70A2DBB0346D104A547130606FD137614
:10F46000F60FE3E5C7D29767FF1F2386C79E97A5D0
:10F470000300938565770145EFB0D03301BB1306D8
:10F48000F4FF058E138514004206418297B50300F0
:10F490009385C5274A95EFB0F04C1764FF1F1304FE
:10F4A000A49A31C597A50300938545751145EFB022
:10F4B000B01B8357040097A503009385E574E8000B
:10F4C00093E717001767FF1F2310F798EF60B362E9
:10F4D000E800EF607363131605014182EC001385A9
:10F4E0000168EF8080354145EFC0204B45B197A5BD
:10F4F00003009385E5721145EFB010177D55EFC0FD
:10F50000A04C83570400F99B1767FF1F231EF79237
:10F51000B5B9893EA5B91306F4FF058E138514000D
:10F520004206418297B503009385451E4A95EFB088
:10F5300070431764FF1F1304249129C183570400EB
:10F5400097A503009385456CE80093E717001767BC
:10F55000FF1F231BF78EEF60135AE800EF60D35AAA
:10F5600013160501EC00418213850168EF80E02C41
:10F5700097A503009385856B1145F5B197A5030009
:10F580009385856BE800EF601357E800EF60D35771
:10F5900013160501EC00418213850168EF80E02914
:10F5A0008357040097A503009385856AF99B176725
:10F5B000FF1F231BF788C9B7EF70403C9767FF1FF9
:10F5C00093878788C85FEF503351AE862A8697A508
:10F5D00003009385A5681145EFB0D01D45BEEF50DF
:10F5E000C0396DB617B603001306C61297A50300FF
:10F5F00093858567114549B5EF70500097A50300C5
:10F600009385456735F997A503009385A567ADB741
:10F610000D45EF80D049AA84EF50134C2A86AE8660
:10F62000254597A5030093852567EFB0B01897A7E8
:10F6300003009387A7488843A6851754FF1F130428
:10F64000A4D2EF50035F2320A422EF7070010325A2
:10F650000422EF507348AE862A8697A5030093854F
:10F66000656495BF81451145EF507023EF7020749C
:10F670002A8697A503009385A565ADBF81451D45E5
:10F68000EF50F02181452545EF50702197A50300EB
:10F69000938505652145EF509020EF70A0712AC633
:10F6A000EF700072B2462A871756FF1F130686B303
:10F6B00097A50300938505631145EFB0B00FF9B42A
:10F6C0001757FF1F035707EC9756FF1F9386E6D384
:10F6D0001756FF1F130606B197A503009385C56251
:10F6E000E1BF85471757FF1F2306F7EAEF70407702
:10F6F00097A503009385856241B51757FF1F034700
:10F7000067E9854797A503009385C561E316F7E68A
:10F71000C5B79757FF1F93872773885FEF50D33B79
:10F72000AE862A8697A50300938545606DB5014690
:10F73000A2854A85EF50A07791BC411122C4216473
:10F740009305048099460146254506C69710FF1F7C
:10F75000E7808055930504802244B2409946138681
:10F760000188294541011713FF1F6700E35399E101
:10F770000145828075DD011152C403DA418826CA31
:10F7800093548A008504A204C204C18056C2B38A7D
:10F790004441C20A22CC4AC82E862E842A8997A5C3
:10F7A00003009385E57E254593DA0A014EC606CE11
:10F7B00093890188EFB0100063ED8A0883D54188F2
:10F7C00093F7F50FB1CF8D6783D541889387078075
:10F7D000A2864A86BE9529459710FF1FE780C04C38
:10F7E0001375F50F29ED83D749001566A29723926B
:10F7F000F18803D7418883D721886309F70063F331
:10F80000E700B297998F139607014182254597A586
:10F81000030093856579EFB0E0791375F40F0DA0BF
:10F820008D6793870780930600100146BE95254596
:10F830009710FF1FE78040471375F50F49D5014525
:10F84000F2406244D2444249B249224A924A056196
:10F850008280B3079440D297C207C183A18303C7B4
:10F860004900850793F7F70F9396870011EB93866E
:10F87000170093740AF0A206C204C206C180C182B6
:10F8800083D7218863F6F40033879600E3C9E7FA4B
:10F890000D6A130A0A800146B38544012545971075
:10F8A000FF1FE78060401375F50F51F983D541883C
:10F8B000A2864A86D29505B7411122C413840188D5
:10F8C00022858145194606C69710FF1FE780E0771D
:10F8D0009307B0FA2300F4008D352244B24097A577
:10F8E000030093856563254541016FB0E057A1652D
:10F8F0004111994613860188938505802D4506C6DA
:10F900009710FF1FE780403A03C701889307B00AAA
:10F910006303F7005537B24083D6418803D6218868
:10F9200097A5030093850560254541016FB0806868
:10F9300083D741AD0145638C071003D561AD636684
:10F94000F50023AA01AC014582803385A740D14749
:10F950003355F5021375F50F01E5239A01AC82804A
:10F96000130101BD23248142232611422322914207
:10F9700023202143232E3141232C4141232A51416D
:10F9800095471374F50F63F3A7001544228697A5D6
:10F990000300938525632545EFB0C061014981448B
:10F9A000938981AD514AA14A9377F90F03D561AD8F
:10F9B0001757FF1F0347E7B163E98704D1473304B3
:10F9C000F4022A94239B81ACA147631CF706A68509
:10F9D0000808EF40800E03D761AD83D741AD0545E0
:10F9E0006364F70023AA01AC8320C142032481424F
:10F9F00083244142032901428329C141032A8141D1
:10FA0000832A4141130101438280B307490314084B
:10FA1000AA97CE9733859600631E5701BE85EF40A7
:10FA200040292317A1008357E1000509BE94C204B1
:10FA3000C1809DBFAA851306E1003E85EF90607EE0
:10FA4000DDB726860C080145EF60B05D69B782809E
:10FA5000011106CE22CC26CA4AC84EC691E90144FD
:10FA60002285F2406244D2444249B2490561828013
:10FA7000AA8975D583D7418803D621882E849564B9
:10FA8000638AC7006374F60015673A961D8E931457
:10FA90000601C180268697A503009385E544254588
:10FAA000EFB04051938714F06356F4009307F00FC2
:10FAB00063EA970097A50300938585442545EFB039
:10FAC000604F71BF83D4418833878400956763C7D3
:10FAD000E700A2854E8561398D3159B71569330923
:10FAE0009940420913590901CA854E85493125D9E2
:10FAF000ED75A695A295C20523920188C181338533
:10FB00002901D1BF83D641AD81EA97A50300938532
:10FB1000A54525456FB0403503D661AD4111918EA5
:10FB200097A5030093854545254506C6EFB0804857
:10FB3000138741AD8355070083D761AD138581AD30
:10FB40009D8DC2053E95C1812137B24023AA01ACEB
:10FB500041018280411183D741AD22C426C206C62D
:10FB6000AE971307401FAA842E84635AF700593FAB
:10FB700097A503009385053D2545EFB0E02E83D77B
:10FB800041AD138581AD2286A6853E95EF50B32009
:10FB900003D641AD229642062244B24092444182AD
:10FBA000239AC1AC97A503009385453B25454101A8
:10FBB0006FB04040011126CA06CE22CC4AC84EC6BC
:10FBC00052C456C2814459C1D1C183D7218803D4BC
:10FBD0004188638D870663F587081D8C4204418048
:10FBE000AE892A89228697A503009385652C014555
:10FBF000EFB0403CA28463F38900CE84C2040D6A56
:10FC000083D7218803D74188C180938A0188130A4A
:10FC10000A8063FAE704A6864A86B38547012D4524
:10FC20009710FF1FE780400883D72A00A6972391EB
:10FC3000F188EFF09FB083D6418803D6218897A53D
:10FC40000300938525282545EFB0C036F240624475
:10FC500026854249D244B249224A924A05618280AD
:10FC600015673A949DBF15671D8FB385470163D50E
:10FC7000E400A6864A8665B79569B389F9406D7434
:10FC80003E94C20993D909012694CE864A8642043D
:10FC90002D459710FF1FE78020014180A286330683
:10FCA0003901D2852D45239101889710FF1FE780E8
:10FCB000A0FF83D72A003E94239181889DBF39718C
:10FCC00026DA4AD84ED652D456D25AD006DE22DC94
:10FCD00062CE66CC2A89EF6023639374F50F814965
:10FCE000254BE54A17AA0300130A4A3391ECF25058
:10FCF00062544E85D2544259B259225A925A025BEA
:10FD0000724CE24C2161828003470900930707FD92
:10FD100093F7F70F637CFB009307F7F993F7F70F5F
:10FD200063E2FA06930797FA93F7F70F13948701A4
:10FD30006184FD14230089002685EF40532B2A8619
:10FD4000AE8603250A0083254A0093F4F40F0509C3
:10FD5000EFF030582AC422852EC6EF4053292246A0
:10FD6000B246EF3073592A8C4E85AE8CEF40532F3C
:10FD70002A86AE866285E685EF20F36CEF4073211C
:10FD8000AA89ADB79306F7FB93F6F60F8147E3EF29
:10FD9000DAF8930797FC49BF411122C406C68307CE
:10FDA00095022A8499C713059502EF50037C238599
:10FDB000A10C8307D41291CB1305D412EF50837A90
:10FDC000EF50435C93878109C8D3B240224441017C
:10FDD0008280411126C29304150022C497A5030016
:10FDE0009385452A2A84268506C6EFB0E02B631842
:10FDF000050E97A50300938525292685EFB0C02A17
:10FE000045CD85448307D403DDC313059402EF5029
:10FE1000C37585471305D4036385F40C894763894B
:10FE2000F414EF508374A386A10C8307D408938441
:10FE3000810991CF1305D408EF50237383C77188CC
:10FE400013871700A697A383E188A38BA7048307D2
:10FE5000D40D91CF1305D40DEF50237183C7718852
:10FE600013871700A697A383E188A38BA7048307B2
:10FE7000D41291CF1305D412EF50236F83C771882A
:10FE800013871700A697A383E188A38BA704830792
:10FE9000D41791CF1305D417EF50236D83C7718802
:10FEA00013871700BE94A383E188A38BA404B240F8
:10FEB000224492444101828097A503009385051D49
:10FEC0002685EFB0601EE31E05F2268597A5030088
:10FED0009385051CEFB0401D8944E31505F281446C
:10FEE00015B7EF5083682387A10C8307D408938448
:10FEF000810991CF1305D408EF50236783C7618828
:10FF000013871700A6972383E188A38CA702830792
:10FF1000D40D91CF1305D40DEF50236583C76188AD
:10FF200013871700A6972383E188A38CA702830772
:10FF3000D41291CF1305D412EF50236383C7618885
:10FF400013871700A6972383E188A38CA702830752
:10FF5000D417B1DF1305D417EF50236183C761882D
:10FF600013871700BE942383E188A38CA40281B772
:10FF7000EF50A35FA387A10C1DBF411122C406C689
:10FF8000830795072A8499C713059507EF50E35D0A
:10FF9000A385A10C8307D40899C71305D408EF5093
:10FFA000C35C2386A10C8307540B91CB1305540B20
:10FFB000EF50435BEF50033D9387810988D7B240F0
:10FFC000224441018280411122C406C6030715055F
:10FFD0008147014419C703444505130404FD137404
:10FFE000F40F0307550619C713055506EF50E357DD
:10FFF0009377F50F1374B40F0D476313E4021D4795
:020000021000EC
:10000000637CF7009757FF1F83C727E493E78700B8
:100010001757FF1F230BF7E2B240224441018280B1
:100020005547F9BF011126CA8146B284014652C420
:1000300056C206CE22CC4AC84EC62A8AAE8AEF30B5
:10004000D30E41CD9307E0046386F4009307300597
:100050006395F40897A903009389490003A6090052
:1000600083A649005285D685EF301329379498002E
:10007000EF402372130404682A8933758502EF4028
:10008000237E03A6090083A64900EF30C32E97A75D
:100090000300938727FD9043D443EF30C32D2A8A72
:1000A00033558902AE8AEF40A37B2A86AE865285FD
:1000B000D685EF20533913073005AE876395E400EA
:1000C000B7070080AD8FF2406244D2444249B24942
:1000D000224A924ABE850561828001458147E5B783
:1000E000011126CA8146B284014652C456C206CEC8
:1000F00022CC4AC84EC62A8AAE8AEF30130341CDBD
:10010000930750046386F400930770056395F40821
:1001100097A90300938989F403A6090083A64900DF
:100120005285D685EF30531D37949800EF406366B3
:10013000130404682A8933758502EF40637203A6AD
:10014000090083A64900EF30032397A70300938794
:1001500067F19043D443EF3003222A8A3355890252
:10016000AE8AEF40E36F2A86AE865285D685EF20B1
:10017000932D13077005AE876395E400B7070080E1
:10018000AD8FF2406244D2444249B249224A924A77
:10019000BE850561828001458147E5B7411122C4D2
:1001A00006C626C2830755012A84B9C7A946938784
:1001B00007FDB387D70203476501130707FDBA9709
:1001C000A38DF1080307750183478501130707FD18
:1001D0003307D702938707FD3E97238EE1088307F5
:1001E00095010347A501938707FDB387D70213073E
:1001F00007FDBA97A38EF1088307940281CB1307FA
:1002000010046398E7108547238FF1088307D40310
:100210009384810999C71305D403EF50A33488C48C
:10022000CCC40306140501CA8844CC442384C10C01
:10023000D53B88C4CCC48307540699C7130554061C
:10024000EF50433288C8CCC80306940701CA8848D7
:10025000CC48A384C10C693588C8CCC88307D408AE
:1002600099CF1305D408EF50E32F97A70300938786
:1002700067E29043D443EF30330888CCCCCC83077B
:10028000140A99C71305140AEF50232E239CA10AC0
:100290008307540BB9C7A946938707FDB387D702D5
:1002A0000347640B130707FDBA97238DF108030773
:1002B000740B8347840B130707FD3307D70293871B
:1002C00007FD3E97A38CE1088307940B0347A40B1B
:1002D000938707FDB387D702130707FDBA97238CCF
:1002E000F108838734000567130707E1B387E70246
:1002F0009306C00303C7C109B240224492443307A6
:10030000D702BA9703C7D109BA9723A2F10C4101CA
:100310008280238F0108DDBD1357850093570501A7
:1003200013D885009376F50F01111377F70F93F724
:10033000F70F618593F5F50F1378F80F99C211C384
:10034000B9E3230CD100A30CE100230DF100A30DB0
:10035000A10003459101834781010347A1012205C3
:10036000A30E01014207C98F230EB1000345B1015D
:10037000D98F0347D1018345C101620522075D8DF5
:10038000D98D0561828032951375F50F13138501A0
:10039000135383415D466357660861463363C30266
:1003A00085071376D70F114593F7F70F6305A6005E
:1003B0002545631AA6007946637FF6020507137781
:1003C000F70F85470DA809466312C7041386067DFB
:1003D00093084006B36816036385080013F53600DA
:1003E00011C5130500193366A60219EE754663742C
:1003F000F60085470D47230CD100A30CE100230D27
:10040000F100A30D6100B1B77146D5B77D46E37425
:10041000F6FEB147E314F7FA850693F6F60F854723
:100420000547D1BFE35903FC6105FD17131385018F
:1004300093F7F70F13538341DDFF7D171377F70F02
:100440001146F947E309C7FA1946E306C7FA2546F4
:10045000E303C7FA2D46E300C7FA89476316F7029C
:100460001386067D93074006B367F60291C793F89B
:100470003600F547E38108F893070019B367F602E1
:1004800093B71700F10785BFFD4735F7FD1693F6C3
:10049000F60F31478DB7834715000347050001115B
:1004A000A2075D8F834725008346350083454500BD
:1004B000C207D98F0347550022CC1744FF1F1304EE
:1004C000A4EA03062420E206220733E5F600D98DCC
:1004D00006CE9935135885001356050193D785002C
:1004E00013F7F50F93F7F70F935685011376F60F71
:1004F0009375F80F1375F50FEF705035834714009F
:10050000054793F7B70F6397E7006244F240056130
:100510006F705043F2406244056182804971232428
:100520008116138481098307340083C8D10903C865
:10053000C10903C7A10983C6910903C6810997A50B
:1005400003009385A5B64810232611162322911681
:1005500023202117232E3115EF5093554810EF50CB
:10056000B35A18485C48030604033AC03EC2030865
:1005700014035C441844541097A50300938505B5F3
:100580003695EF50F3524810EF5013585C103E95DB
:100590008307640017A603001306C6B089C717A611
:1005A00003001306A6AF97A503009385E574EF50EB
:1005B00033504810EF505355544C104C5C1097A5D5
:1005C00003009385A5B13E95EF50934E4810EF5030
:1005D000B353030634035C103E9597A5030093853F
:1005E000A5B0EF50F34C4810EF501352030724030B
:1005F000AA8448503ACE13848109EF40F34D7247E4
:100600005C10AE862A8697A503009385E5AE3385F8
:100610009700EF50F3494810EF50134F5C1003C69A
:10062000C10C97A503009385A5AE3E95EF505348A6
:100630004810EF50734D5C1097A50300938545AEAD
:100640003E95EF50534B1389610BA28497A9030089
:100650009389096A03C6740519CA481032CEEF504F
:10066000B34A72465C10CE853E95EF5073448504C4
:10067000E39224FF4810EF5033495C1097A5030024
:10068000938585AA3E95EF50134797A40300938462
:1006900024660346940319CA481032CEEF50D3465D
:1006A00072465C10A6853E95EF5093400504E31218
:1006B00024FF4C102545EFA0207B8320C116032486
:1006C000811683244116032901168329C1157561FA
:1006D00082801747FF1F13072777835707004111B1
:1006E00022C426C206C693F68700BA841384810901
:1006F000A1E68306640005476390E60403C7A109E9
:1007000019EB08444C4401468146EF3003220DE9C1
:10071000238F010881A80307340065D703C7C109E7
:100720006DD303C7D10971DF93E78700228517478F
:10073000FF1F231BF770853383076400F9F3C9BFDC
:1007400008484C4801468146EF30231E71D183C7CB
:10075000A109DDDF13068007938581091385010256
:10076000EF40736303C501CD9D4705053365F50271
:1007700013068007938581092388A1CC93078007FE
:100780003305F502938781CD3E95EF40D3607933F1
:100790009C50130680078145138581091747FF1F69
:1007A0002328F76CEFE02F9CB2402244A3830188FA
:1007B000238301889244410182800171232C811E90
:1007C000232A911E1306101E2A84AE8468008145D8
:1007D000232E111E2328211FEFE0EF98814581472A
:1007E000014701465148CD485D436341960899C190
:1007F0002306F1001306A002A6852285EFA01009AA
:100800008347C10051473386A440B387E70293056D
:10081000150078007D16A29585073305F700EF4097
:1008200093571306A002A685228503491400EFA062
:10083000F005894763C4A7080345C100D1473305C4
:10084000F5027C0005053E95EFF06FC7631DA90416
:10085000194697A50300938565811305D100EFA084
:1008600070102DC56800EFF07F9335A8B306C40063
:1008700003C50600930665FD93F6D60F91EA85073A
:1008800093F7F70F6361F302854501470506B1BF92
:10089000B3860703130E011FF296BA96A38EA6E045
:1008A0000507E3D5E8FE8320C11F0324811F8324AD
:1008B000411F0329011F1301012082803307F40027
:1008C0000347070085073349E900ADB719469795F7
:1008D00003009385E5791305D100EFA0B00825E961
:1008E0001946979503009385E5781305D100EFA08D
:1008F000700731E91946979503009385E57713054D
:10090000D100EFA0300605ED1946979503009385B9
:10091000E5761305D100EFA0F00411ED1946979587
:1009200003009385E5751305D100EFA0B00325DD25
:10093000680045338DBF6800EFF0EFE8ADB76800A1
:10094000EFF02FC98DB76800EFF02FE3A9BF680063
:10095000EFF08FC489BF757122C526C34AC1CEDEB0
:10096000D2DCD6DADAD806C7AA892E8981440144B6
:100970008147130A4002854A354B1397040141838E
:10098000636C2701BA402A449A440A49F659665AC8
:10099000D65A465B49618280338799000347070036
:1009A00063004703639C5701631D67019C18A2976E
:1009B000A2856800238E07F809358147850475BF35
:1009C00001449C18A29705041374F40F238EE7F8D2
:1009D00093373406E5B7411106C6138501CD834729
:1009E0000500130780078145B387E70213068007D8
:1009F000A1073E95EFD03FF7B24081451145410137
:100A00006FA03073138501CD83470500130780075E
:100A1000B387E702A1073E95828013850102828099
:100A2000397126DA979403009384445B62CC66CADA
:100A3000328CB68C9040D44006DE22DC4AD84ED6AA
:100A400052D456D25AD05ECE6AC842C046C217941B
:100A50000300130424593AC43EC6EF30E3091040A2
:100A60005440179D0300130D6D58EF20D3102247FB
:100A7000B2479040D4402A8AAE8A3A85BE85EF308C
:100A8000A30710405440EF20130F2A89AE892A860D
:100A9000AE865285D685EF30A35103260D008326FE
:100AA0004D00EF306305EFE0B06D2A8BAE8B5285C1
:100AB000D685EFE0D0632A8AAE8A4A85CE85EFE0FC
:100AC0001063024892482A894286C686AE896285AA
:100AD000E685EF30E34D9040D440EF30E301104025
:100AE0005440EF20530903260D0083264D00EF30BC
:100AF000A300EFE0F0682A84AE844A86CE86528551
:100B0000D685EF20737F2286A686EF20F37E22868D
:100B1000A686EF20737E2A84AE845A86DE865A85A6
:100B2000DE85EF20737D2A86AE862285A685EF209E
:100B30008311EFF0602CEFE0F06D2A86AE86EF2097
:100B40008310979703009387E74A9043D443EF209D
:100B5000B37A979703009387674A9043D443EF2073
:100B6000B379F2506254D2544259B259225A925A2D
:100B7000025BF24B624CD24C424D216182801841A3
:100B800093870111104598C303574500544590C7FA
:100B90002392E70058551049D4C7544998CF9795E8
:100BA00003009385E5490547254590CBD4CB238E9B
:100BB000E7006FA0602B5971D2CC138A01CDA2D46B
:100BC000A6D2CECED6CADAC8DEC6E2C4E6C286D681
:100BD000CAD083C401CD8149930B80075284179CEE
:100BE0000300130C2C42854C1D4B954A338974032A
:100BF00052998307E900638C071A03260C008326A9
:100C00004C000325090283254902EF2093636340CA
:100C1000051A83470904638E97199397190058089A
:100C2000BA97035789022390E7007C00CE97238070
:100C3000970085099904B3E46403E39959FB0357CA
:100C4000C10183574101998F13D7F741B98F998F0C
:100C5000939407011307400BC1806358F700930773
:100C60008016B3849740C204C180268697950300FE
:100C70009385C5390810EF50A3630C102545EFA0EC
:100C8000A01E938714FFC207C18379476360F706EC
:100C90008344D1001309800785450145B3842403AB
:100CA000A104A2942686EF80D03D8347F1008545BC
:100CB0000145B3872703A1073E942286EF80703C4D
:100CC000A6850D45EF302001A2850D45EF30A0002F
:100CD0000545B650265496540659F649664AD64AF2
:100CE000464BB64B264C964C656182809307D002EA
:100CF000E3F097FE034BC100130A80078545330BD1
:100D00004B030145930B8B00A29B5E86EF807037EF
:100D1000834AD10085450145B38A4A03229BA10A33
:100D2000A29A5686EF80F0358349E100854501455A
:100D3000B3894903A109A2994E86EF8090340349F3
:100D4000F1008545014533094903210922994A8665
:100D5000EF8030338344010185450145B38444036A
:100D6000A104A2942686EF80D031DE850D45EF20C8
:100D70009076D6850D45EF201076CE850D45EF2077
:100D80009075CA850D45EF201075A6850D45EF209D
:100D9000907483C701CD338A470303274B035294D2
:100DA0005C58E317F7F285472300F40415B77D5527
:100DB0000DB7795539BF7571094506C722C526C3D8
:100DC0004AC1CEDEEFA0704301E523A4018889A8C3
:100DD00013050002EFA070426DF9138481881C4056
:100DE000850723A4F188C13B1C401737FF1F035719
:100DF000E77763E7E70203C501CD93048007330576
:100E00009502138401CDB307A4000387E70009CB43
:100E100003C7C1129385011119EB21052295853372
:100E2000BA402A449A440A49F6594961828003A883
:100E3000870183A8C701984B9049DC4BD44988456A
:100E4000CC45EFF0FFBD2A86AE862A89AE896800C0
:100E5000979503009385051DEF5083456C0025454C
:100E6000EFA080001735FF1F0345155AEF303318E8
:100E70002A86AE864A85CE85EF20D331E352A0FA8A
:100E800003C601CD3306960285450145210622960B
:100E9000EF80301F83C501CDB38595020D45A105B7
:100EA000A295EF20506303C501CD330595022105BE
:100EB0002295EFF0DFCC11BF914763E3C70A179784
:100EC0000300130727270A063A961C42411122C441
:100ED00006C6BA972A84828797A503009385057072
:100EE0001145EF907078A2851145EF90F07722447C
:100EF000B24097A5030093852570114541016F907D
:100F0000B076B9CA9737FF1F83C7676981C7904218
:100F1000EF50901D2244B240014697650000938532
:100F200025A33D4541016F3060699DC62244C8C27A
:100F3000B24003C5A6002394B6003686954541010C
:100F40006F8030142244B24041016FE0D01022443F
:100F5000B24041016F300023B240224441018280FF
:100F60008280411106C6EF90A028B24041016F80F7
:100F70001072557158109306310213062102930521
:100F80001102930751021305610286C7EF70E00555
:100F90009747FF1F938747EB83D70700BD9B1747F2
:100FA000FF1F2313F7EAEFF0FFA5030305039305E3
:100FB000E00483566102034711028347210203487C
:100FC000310283484102034E510217D60300130633
:100FD000E68F6316B30017960300130626C4830E2C
:100FE000150313035004032F8500832FC500979525
:100FF00003009385A5C263866E0097D50300938591
:10100000E58C03230501832345017AC41ACC1ECE47
:101010007EC672C02EC832C297A503009385C5AAAA
:101020001736FF1F1306061C2810EF506328EF80A9
:10103000B0262810EF50432D9387C1889043931515
:101040000501938601132810C181BD35BE40696139
:101050008280411122C426C206C623A6B1882A84F2
:10106000B28481C69C4223A8F1120545EFB0E07A14
:101070000545EFB030030347040089476317F702C3
:101080001305D403EF40634E0DE1EFB0207CEFB0C9
:10109000700713050002EFA03013979503009385A6
:1010A00025172685EF50232541A0034704008547D7
:1010B00063F2E7081305D4039747FF1F239307E064
:1010C000EF40A34A9747FF1F238CA7DE1305940721
:1010D000EF40A3491375F50F9747FF1F2384A7DE41
:1010E0001747FF1F0347C7DD8D4763E6E700174734
:1010F000FF1F2307F7DC11E5A9471747FF1F23034D
:10110000F7DC13050002EFA050099746FF1F83C6C6
:1011100066DB1746FF1F0346A6DA97950300938503
:1011200065102685EF50C3182244B2409244410115
:101130006F80D0150545EFA0500697950300938565
:10114000A51285B7411122C42A848307D40306C699
:1011500026C22E8589C71307F0036398E702173765
:10116000FF1F130737279736FF1F938696231736DF
:10117000FF1F1306F61F979503009385651D2244F4
:10118000B240924441016F50A312034704008547C7
:10119000AE8463FCE700130620039305D4031735E0
:1011A000FF1F1305F51CEF50031A8307940785C32F
:1011B00003470400894763FCE700130620039305F7
:1011C00094071735FF1F1305D51DEF50C31783076D
:1011D000540B85C3034704008D4763FCE7001306E7
:1011E00020039305540B1735FF1F1305B51EEF5051
:1011F00083158307140F91CF03470400914763FAC7
:10120000E7001305140FEF4043369737FF1FA38CF9
:10121000A71E9736FF1F83C6161F1736FF1F13061C
:10122000761B9735FF1F9385D5171735FF1F1305BD
:101230003514EF4040470146977500009385E5322D
:101240001305C012EF308037EF5090411737FF1F62
:10125000130757189736FF1F9386B6141736FF1FCC
:1012600013061611979503009385C510268501BFB7
:10127000411126C206C622C4034705008947AE8431
:1012800063F7E7029305D5032A8413062003173575
:10129000FF1F1305E506EF50030B13059407EF40FE
:1012A000C32C9737FF1F239FA70AEF50F035EF504D
:1012B000B0399736FF1F83D6E60A1736FF1F13068D
:1012C000260497950300938525772685EF40537E66
:1012D00085479735FF1F9385E5F01735FF1F1305E9
:1012E000E5001737FF1FA307F7F6EF50C300973548
:1012F000FF1F9385F5071735FF1F1305C5F5EF4051
:10130000937F9735FF1F9385D5091735FF1F130569
:10131000A5F7EF40537E9735FF1F9385B50B173523
:10132000FF1F130585F9EF40137D97850300938513
:10133000A5761735FF1F1305C5FFEF40D37BEF5090
:10134000B02C0146974500009385A5ED7945EF3017
:10135000E0262244B24092440146977500009385EE
:10136000C5201305200841016F304025411122C4DA
:1013700026C24AC006C68307D503AE841799030068
:101380001309493A1744FF1F130404AC89C7130714
:10139000F0036391E7041735FF1F0345E506EF30BF
:1013A00003450326090083264900EF10D37CEF3064
:1013B000737D28C0EF305372AE862A86979503005E
:1013C0009385C5362244B2400249268592444101A4
:1013D0006F40136E1305D503EF4023199737FF1F96
:1013E0002384A7021375F50FEF306340032609002D
:1013F00083264900EF103378EF30D37828C0EF50C0
:1014000030262840EF30536DAE862A86979503002C
:101410009385C53345BFAA870387D7032E8509C7A0
:101420009306F0036315D7029737FF1F83C717F49E
:10143000179603001306462C89E717960300130638
:10144000262C979503009385252D6F4073664111D7
:101450001385D70306C622C42E84EF4003119737A5
:10146000FF1FA385A7F0EF50B01F9737FF1F83C75B
:10147000F7EF979503009385252989E79795030052
:101480009385052922852244B24041016F40B3660D
:10149000411126C206C6AA8422C48387D4032E859E
:1014A00089C71307F0036396E7049737FF1F83C7C5
:1014B00017EC05476385E70289CB09476386E70296
:1014C000B240224492444101828097950300938563
:1014D000252C2244B240924441016F40D36197953C
:1014E00003009385652DF5B7979503009385852FA8
:1014F000CDB79384D4032E842685979503009385D6
:101500006531EF4093661DC189471737FF1FA30060
:10151000F7E697950300938525342285EF40B35D68
:101520002244B240924441016F5090132685EF400F
:10153000C3031375F50F9737FF1FA38AA7E28547EB
:10154000979503009385452FE309F5FC97950300D4
:101550009385C52C79D18947E30DF5FA1737FF1F1D
:10156000A307F7E097950300938545317DB74111B7
:101570002E85979503009385E53306C6EF40B35754
:101580000146974500009385C5C97945EF300003B2
:10159000B240014697750000938525FD130540066E
:1015A00041016F30A001411122C426C206C6830743
:1015B000D503AE841734FF1F130404DB89C7130758
:1015C000F003639BE70283062420179603001306AB
:1015D000A64A63D6060017860300130626642685EE
:1015E0009795030093858549EF40934C2244B24080
:1015F000924441016F9030611305D503EF30F376CB
:101600009737FF1F2383A7F6EF90F05F0306242090
:1016100097950300938545482545EF90B01983477A
:1016200024206147B10793F7F70F6377F700A147CD
:101630001737FF1F230BF7F2EF5090028306242089
:10164000179603001306464363D606001786030069
:101650001306C65C2244B240268592449795030047
:101660009385054441016F40B344797122D49307B7
:10167000D1012E8478089306B1011306A1019305C8
:1016800091011305E10106D626D2EF6010168348BA
:10169000D1010348C1018347B1010347A10183463A
:1016A00091010356E10197950300938525F022856A
:1016B000EF4013402285EF4033459737FF1F938754
:1016C000A7788C5303A887020566130606E19306E4
:1016D000C00333F3C50222953377D802B378C8022A
:1016E0003AC0DC4F33F7D502B3D8D8023358C8021A
:1016F000B356D30233D6C50297950300938545EDC3
:10170000EF40133B2285EF403340B304A400EF9039
:10171000202F17960300130626E909C51796030024
:10172000130646E897950300938585EE2685EF40DE
:1017300033382285EF40533D22951737FF1F03575B
:1017400007729736FF1F83C666701736FF1F034662
:101750001670979503009385A5ECEF407335B25052
:101760002254925445618280AA870387D7032E852D
:1017700009C79306F0036311D7029737FF1F83C78A
:1017800027BF97950300938525B389E797950300B5
:10179000938585B56F40333641111385D70322C435
:1017A00006C62E84EF30735C1375F50F9737FF1F55
:1017B0002380A7BC1737FF1F034717BB8947631652
:1017C000F7000DE91145EFA0401D9737FF1F83C7B4
:1017D00027BA979503009385A5B289E797950300EB
:1017E000938545B52285EF4013312244B240410133
:1017F0006F5000671145EFA0201DC1BFAA87038766
:10180000D7032E8509C79306F003631ED7029737C7
:10181000FF1F83C7C7B50547638DE70089C7094721
:10182000638EE700828097950300938565B76F40CC
:10183000932C979503009385E5BAD5BF9795030040
:10184000938505C0EDB741111385D70322C406C6A1
:101850002E84EF3093511375F50F9737FF1F2388B0
:10186000A7B08547979503009385C5B76306F50232
:10187000979503009385C5B205C1894797950300E5
:10188000938505BC630AF5001737FF1F2301F7AEE8
:1018900097950300938585C02285EF40D325224488
:1018A000B24041016F50C05BAA870387D7032E85E2
:1018B00009C79306F003631CD7001736FF1F0346C2
:1018C000B6B4979503009385A5DD6F40731E411153
:1018D0001385D70306C622C42E84EF309349973769
:1018E000FF1FA383A7B2EF50A05722852244B24026
:1018F0001736FF1F034656B197950300938585DC85
:101900004101E1B7411122C425452E84814506C617
:10191000EF30E078EF50C04A2A8622852244B24058
:1019200097950300938585DC41016F407318411141
:1019300022C41305D5032E8497950300938545D1C2
:1019400006C6EF90607611CD0145EF50E05B9795AC
:1019500003009385A5D022852244B24041016F4007
:1019600093190545EF50405A979503009385C5D0CC
:10197000DDB7411122C42A848307D40306C626C2D8
:101980002E8589C71307F003639CE7029737FF1F73
:10199000938707B11737FF1F130767AD9736FF1FF0
:1019A00083D6E6BD1736FF1F130646A99795030099
:1019B000938585F22244B240924441016F40530F17
:1019C000AE841735FF1F130565A79305D403EF40B9
:1019D00093121735FF1F130565A6EF40F3129315F9
:1019E0000501C1811735FF1F130545A5EF90F022B2
:1019F0008307940789CB13059407EF301337973784
:101A0000FF1F239EA7B68307540B85CB9305540B6A
:101A10001735FF1F1305A5A5EF40F30D1735FF1F61
:101A20001305E5A4EF40530E93150501C181173549
:101A3000FF1F1305C5A3EF90501E8307140F85CB1E
:101A40009305140F1735FF1F130585A5EF40B30A43
:101A50001735FF1F1305C5A4EF40130B93150501A0
:101A6000C1811735FF1F1305A5A3EF90101BEF5081
:101A7000203F9737FF1F9387A7A21737FF1F130732
:101A8000079F9736FF1F83D686AF1736FF1F1306B3
:101A9000E69A97950300938565E5268521BFAA8779
:101AA0000387D7032E8509C79306F003631CD7006D
:101AB0001736FF1F035686AB97950300938545F5B0
:101AC0006F40037F41111385D70306C622C42E84BD
