:04C000006F20900B12
:10C00400000000000000000090000020080A00204A
:10C01400A9BDF9F594000020000000000000000014
:10C02400960000209800002000000000000000009E
:10C034009A000020000000009C0000200000000086
:10C044009E0000201603002026040020A4000020E7
:10C05400A6000020A8000020AA000020AC000020B8
:10C06400AE000020B0000020C60000205A010020CD
:10C07400840A0020B8000020BA000020BC00002080
:10C08400BE000020EE01002082020020C400002037
:10C0940001A001A001A001A001A001A001A001A094
:10C0A40001A001A001A001A001A001A001A001A084
:10C0B40001A001A001A001A001A001A001A001A074
:10C0C40001A001A001A037370040834747009946EB
:10C0D4004111BD8B638CD70231476384E706114756
:10C0E400639EE702A3030100175600000346C683BC
:10C0F40037370040834771006315F6022C0013851F
:10C10400C166977001E0E780001E09A883475700C5
:10C1140093F7F70F2304F100834781004101730073
:10C12400203083477100834687000C08AE97238C28
:10C13400D7FE83477100850793F7F70FA303F10038
:10C1440055BF280097E001E0E780C0411375F50F63
:10C15400A303A1000346710055B737370040834756
:10C16400474099464111BD8B638CD70231476384A4
:10C17400E7061147639EE702A30301001746000088
:10C184000346A67A37370040834771006315F602E9
:10C194002C0013850168977001E0E780C01409A89A
:10C1A4008347574093F7F70F2304F1008347810037
:10C1B40041017300203083477100834687400C0897
:10C1C400AE97238CD7FE83477100850793F7F70F4B
:10C1D400A303F10055BF280097E001E0E780404A3F
:10C1E4001375F50FA303A1000346710055B7374734
:10C1F40000408347478099464111BD8B638CD70229
:10C2040031476384E7061147639EE702A3030100F5
:10C2140017460000034656713747004083477100B4
:10C224006315F6022C0013854169977001E0E780DD
:10C23400800B09A88347578093F7F70F2304F10075
:10C244008347810041017300203083477100834696
:10C2540087800C08AE97238CD7FE8347710085072F
:10C2640093F7F70FA303F10055BF280097E001E00F
:10C27400E780C0521375F50FA303A10003467100B4
:10C2840055B737470040834747C099464111BD8B96
:10C29400638CD70231476384E7061147639EE70244
:10C2A400A303010017560000034606A937470040C0
:10C2B400834771006315F6022C001385816A977019
:10C2C40001E0E780400209A8834757C093F7F70FBE
:10C2D4002304F10083478100410173002030834728
:10C2E4007100834687C00C08AE97238CD7FE834722
:10C2F4007100850793F7F70FA303F10055BF2800DA
:10C3040097E001E0E780405B1375F50FA303A100FC
:10C314000346710055B7371700408357C709C20752
:10C32400C18393F60720A1C69756000083C686BA38
:10C33400850617560000230FD6B89756000093863B
:10C34400A6B0944293E6064017560000232ED6AEBC
:10C3540093060020231ED7088326470A93F6062057
:10C36400D9CE8326C70A93E606202326D70A056773
:10C3740013070780B3F6E7009DCE97560000938617
:10C38400A6AC944237061000D18E17560000232D18
:10C39400D6AAB716004003A6460A798E25CA03A674
:10C3A400C60A518F23A6E60A0567B716004013078D
:10C3B4000780239EE60893F70740A1C39757000020
:10C3C400938787A89C4337078000D98F17570000AD
:10C3D400232CF7A6B717004003A7470A1377074093
:10C3E40005CF03A7C70A1367074023A6E70AB717B1
:10C3F400004013070040239EE70873002030832683
:10C40400870A93E606202324D70A95B703A6860A4B
:10C41400518F23A4E60A49BF03A7870A136707407D
:10C4240023A4E70AE9B7411126C4B714004083D70F
:10C43400E40983D7E40922C6056413040480E18F68
:10C4440089CBA145014597C001E0E780C050239FF7
:10C4540084083244A244410173002030411122C4B3
:10C46400175400001304449E1C4006C613F70740EB
:10C4740021C713974701634A07028D45094597C0B1
:10C4840001E0E780404D9145175500000345059DA7
:10C49400972002E0E780E07297C504E09385851752
:10C4A400254597B001E0E780A0B41C4093F7F7BF9F
:10C4B40017570000232AF7981C401397B700635EB0
:10C4C4000704371700408326470A056713070780C8
:10C4D400F98E9DCAF98F8DEB8D45094597C001E012
:10C4E400E78060479145175500000345259797203D
:10C4F40002E0E780006D97C504E09385A512254509
:10C5040097B001E0E780C0AE1C403707F0FF7D170D
:10C51400F98F175700002329F792B24022444101B2
:10C5240082804111814601468145114506C6EF00CE
:10C53400A077B727004011472383E780B7F700E0CF
:10C5440003A707D16D9B23A8E7D003A707D15D9B61
:10C5540023A8E7D07300501001000100B24041014C
:10C5640082804111814681450146114506C62D2F21
:10C57400B727004011472383E780B717004003C75C
:10C58400E70283C5E70483D7870391661377F70F20
:10C5940093E5350063E5D700719B13671700B71760
:10C5A4000040130670052380C704930680FA238095
:10C5B400D70401000100238207022380C7042380DB
:10C5C400D704010001002387E7022387B7042380EF
:10C5D400C7042380D7040100010003C7B70413670D
:10C5E4000702A385E7042380070437F700E08325C7
:10C5F40007D193E545002328B7D0832507D1DD99DA
:10C604002328B7D073005010010001002380C70411
:10C614002380D7040100010003C7B7041377F70D83
:10C62400A385E70423800704B240410182800111FD
:10C63400B7F5070022CC8146E1052A840A8619450C
:10C6440006CE26CA02C023120100B92DB717004036
:10C6540003C7E70283C5E70483D78703916613778B
:10C66400F70F93E5350063E5D700719B1367170057
:10C67400B7170040130670052380C704930680FA99
:10C684002380D70401000100238207022380C7040A
:10C694002380D704010001002387E7022387B7041E
:10C6A40023800704B7F500E003A705D1136747000B
:10C6B40023A8E5D003D50702657711071375056034
:10C6C400418D598D4205418101002380C704238097
:10C6D400D7040100010003C7F70037F40700B7F4DB
:10C6E40000E013670704A387E70003C7B7046104E6
:10C6F40013670702A385E7042390A70283A704D145
:10C70400DD9B23A8F4D07300501001000100130531
:10C714006004352E81463000A285194502C42316D3
:10C724000100592322478247E31AF7FCB717004058
:10C73400130770052380E704130780FA2380E704B6
:10C744000100010003C7B7041377F70DA385E704BD
:10C7540023800704F2406244D244056182800111BF
:10C764004EC681460146AA898145114506CE22CC92
:10C7740026CA4AC8152BB716004083C7E60203C76A
:10C78400E60483D68603116693F7F70F1367370021
:10C7940063E5C600F19B93E71700371400401309C3
:10C7A400700523002405930480FA230094040100F7
:10C7B4000100230204022300240523009404010041
:10C7C40001002307F4022307E404230004041305EF
:10C7D40050025920B7F700E003A707D113674700B9
:10C7E40023A8E7D0230024052300940401000100BA
:10C7F4000347F40013670704A307E4002300240598
:10C8040023009404010001002567B3E9E900231023
:10C81400340303A707D15D9B23A8E7D0730050100E
:10C82400010001008146014681451145B5292300D7
:10C83400240523009404010001008347640493E762
:10C8440017002303F40423000404F2406244D24496
:10C854004249B24905618280B717004093067005CA
:10C864002380D704130780FA2380E7040100010022
:10C8740003C6B7041376F60DA385C7042380070403
:10C88400137605024DC203C6A700118A1DE2238058
:10C89400D7042380E7040100010003C7A70013673E
:10C8A40047002385E7009307004B01000100FD17B3
:10C8B400EDFFB7170040930670052380D7041307D4
:10C8C40080FA2380E704010001007D892394A700F6
:10C8D4000100010001000100238007042380D70424
:10C8E4002380E70401000100010001003727004014
:10C8F40093061005A303D78023800704B7170040CD
:10C90400130770052380E704130780FA2380E704E4
:10C914000100010003C7B70413670708A385E704F0
:10C924002380070482801376050441C603C6A7004A
:10C93400418A1DE22380D7042380E704010001001B
:10C9440003C7A700136707012385E7009307007D4A
:10C9540001000100FD17EDFFB717004093067005B5
:10C964002380D704130780FA2380E7040100010021
:10C974001376F501136606042394C7000100010031
:10C9840001000100238007042380D70413066004F8
:10C994002380E7046318C500010001003727004025
:10C9A400894689BF0100010037270040930620050E
:10C9B40091B72380D7042380E7040100010003D743
:10C9C40087001367070C2394E7000DBF41118146CC
:10C9D40001468145114506C6C12CB717004013070F
:10C9E40070052380E704130780FA2380E70401001D
:10C9F400010003C76704136717002383E704238038
:10CA04000704B240410182808146014681451145B7
:10CA1400612CB7170040930670052380D7041307D1
:10CA240080FA2380E704010001007D562396C702A3
:10CA34002380D7042380E7040100010003C76704AF
:10CA4400136717002383E7042380070401A0BD476D
:10CA54003305F50201007D1575FD8280411122C464
:10CA640026C206C6AA84014463179400B240224435
:10CA740092444101828005041305803E4204C13F73
:10CA84004180DDB7B7170040130700032388E7028E
:10CA9400854717470000232DF74473002030397170
:10CAA40022DC4ED656D237140040E57AB7F9070097
:10CAB40026DA52D45AD05ECE06DE4AD862CC2A8B0D
:10CAC400916B93040404130A7005910AE1098347E6
:10CAD400E4020347E4048356840393F7F70F1367D0
:10CAE400370063E57601F19B93E717002380440147
:10CAF400130980FA238024010100010023020402A7
:10CB04002380440123802401010001002307F4024F
:10CB14002307E4042380040037F700E0832707D1C8
:10CB240093E747002328F7D08357040293F707605D
:10CB3400B3E76701B3E75701C207C183010023804C
:10CB4400440123802401010001008346F400130CF6
:10CB5400B40493E60604A307D4008346B40493E61E
:10CB64000602A305D4042310F402832707D1DD9B16
:10CB74002328F7D07300501001000100130560044E
:10CB8400F9353000CE858146194502C423160100CB
:10CB9400212A114697450000938505362800112364
:10CBA4001DD5930770052380F40023802401010020
:10CBB400010083470C0093F7F70D2300FC0023804A
:10CBC4000400F2506254D2544259B259225A925A31
:10CBD400025BF24B624C21618280411106C6AD2D8D
:10CBE400B538978001E0E780808DD5BF23030480AA
:10CBF40015472303E48001002302A4808280830775
:10CC04006480E3CE07FE230304808280830764806C
:10CC1400E3CE07FE03454480828083076480E3CE2D
:10CC240007FE2302A4808280411126C44AC24EC05A
:10CC340006C61377F50BAD47AA892E89954463067A
:10CC4400F70019456537653F8D444E854537FD59D5
:10CC5400FD1463983401B240A2441249824941014F
:10CC64008280135509011375F50F453F2209CDB78D
:10CC7400011126CC06CEB704080051371545BD373F
:10CC8400713769372AC6A53F32459377150089EB7A
:10CC9400136515001375F50FF240E24405618280B7
:10CCA400FD14E9FC0145CDBF397126DC4ADA4ED8C2
:10CCB40052D656D45AD25ED006DE62CE66CCB7E7E0
:10CCC40000E07D5783AA070022C603AA470023A0D9
:10CCD400E71823A2E718B71700401307700523804D
:10CCE400E704130780FA2380E70483C74704930B00
:10CCF40075FFB684E20793FBFB0F8546AA892E8B4A
:10CD0400328937240040E187015763FA76016308CA
:10CD1400D5008946130700026313D5000157D98F44
:10CD240093F7F70FB71C00402382FC041147230339
:10CD3400E4801305F00F5D3D094CD135636D7C1122
:10CD4400B7050700DA9537870700795563F2E504DC
:10CD5400B3879500636EF702370B0800A94733EBDE
:10CD640065016399F90689E48144513D26850DA046
:10CD7400DA850945553D05090345F9FFFD14050B01
:10CD8400693D81C49377FB0FFDF7DD3569FD7D5562
:10CD9400B7170040130770052380E704130780FAD0
:10CDA4002380E70403C74704418B2382E704F2503E
:10CDB400B7E700E023A0571123A24711E2543244FD
:10CDC4005259C259325AA25A125B825B724CE24CDB
:10CDD40021618280A5476395F90685691309F00FDF
:10CDE400B3069900B3742B01B6941349F9FFB374D5
:10CDF4009900856B33796901416B9387F9FFB3F728
:10CE0400270199E363FC340193D94900C147E3E660
:10CE140037FF99BF0569C1697D19D9B71305800D1D
:10CE240063886901130500026384790113051008FE
:10CE3400CA85DD3B353D21DD4E99B3843441D9B7F4
:10CE4400DA852D45D533CA94E30099F205097D3B73
:10CE5400A30FA9FED5BF9387F9FF93F7F70F63617B
:10CE6400FC0C83C71C0413073008631FF70437073F
:10CE74000800636BEB04B3079B00B706100063F56F
:10CE8400D704334BEB0089476393F9068980D5496E
:10CE9400E38C04ECDA850945413B11090327C9FFFA
:10CEA40091472320E48003076480E34E07FE2303B5
:10CEB4003481FD17EDFBFD14110B81C49377FB0F37
:10CEC400E9FF7D3371F5E1B5B717004003C7570497
:10CED400B70708001377070219E3B78707007955E6
:10CEE400E378FBEA33079B00E3FFE7F855B5854792
:10CEF400E382F9F2DA852D45053B9389F4FFE38556
:10CF040004E6293393F7390091EB83260480032741
:10CF1400090093074900E39AE6E43E89CE84F1BF11
:10CF2400B5476396F9001305900BC93135BDB14778
:10CF34001305B00AE38BF9FE99476391F904B70529
:10CF44000800B365BB002D45C53181448D4BA14913
:10CF5400753963967401832704802320F9008504BE
:10CF6400E39834FF8327048013172B0163550700CC
:10CF74002312F900D5BB2322F900FDB39D47639921
:10CF8400F90281451305B0044531BD44232009004D
:10CF940023220900FD599D3993F77400CA9703C7EA
:10CFA4000700FD14398D2380A700E39634FF6DBB81
:10CFB400A1476392F9046D398144630D0B008D47D9
:10CFC4009304C0036308FB009304000563048B010E
:10CFD400930440041375C507E30895D819453931FE
:10CFE40039390545213126850D3909453D31493108
:10CFF400E31C05D669BB91476399F90013056006E4
:10D00400F536F53E130590090DB7E38F09D4F154B5
:10D01400A9BB19CD91CD09CE81473387F50083464D
:10D0240007003307F50085072300D700E317F6FE52
:10D03400828019C991C909CA910583A7C5FF110541
:10D044007D16232EF5FEC5BF828001C919C62A9616
:10D054000505A30FB5FEE31DA6FE828081473307B5
:10D06400F5000307070019E33E8582808507C5BFE5
:10D0740001112E8626CAAA84131506019305F0040D
:10D08400418122CC06CE32C6EF1040592A8401C514
:10D094003246A685BD3F2285F2406244D2440561F2
:10D0A4008280854715C18DC105C28147B306F5004D
:10D0B4003387F50083C60600034707006398E6003C
:10D0C4008507E315F6FE85473E8582808147EDBFDF
:10D0D4009307F6FFBE952A966313C5008280FD155B
:10D0E40083C715000505A30FF5FEFDB7AA87014503
:10D0F40081CF09CE3E96850703C7F7FF6317B700B4
:10D10400E39BC7FE05458280828001458280797158
:10D11400975700009387476822D4804306D626D2C7
:10D124004AD04ECE52CC56CA5AC85EC662C45DCCF2
:10D1340037C9C901814B175A0000130A6A6A975408
:10D1440000009384A4651309F937975A0000938A61
:10D154006A5FB709C0A8370B40578357240095E38B
:10D164005C44639D0B00175700002327F762032CD0
:10D17400C4002285EF10A057628499A823A6FB005F
:10D18400FDB783270A008297838664011C4463DB0E
:10D1940006063307F5406367E9089757000023AB99
:10D1A400075A8355240003450400972002E0E780D2
:10D1B40040A15C405844A9CF1444B69783866401C7
:10D1C40063C5060063E33701DA971CC4A28B3A8473
:10D1D40049F4975700009387E7569C4B09476378B7
:10D1E400F706F917175700002326F756B2502254B2
:10D1F40092540259F249624AD24A424BB24B224CEF
:10D2040045618280E377F5F83387F9402A9761B75F
:10D2140063970B009757000023A0E75889BF23A604
:10D22400EB00B1B7D85009CF63DF06003385A740C0
:10D2340083A70A016376F5009757000023ACA75033
:10D24400A28B404471B7E3F3A7FECE97C5B79757B7
:10D25400000023A1075059BF411122C417540000F4
:10D26400130444511C4006C626C24AC091C7829783
:10D274009757000023A007505C4091C382971C403D
:10D284006391071C9757000083C7576D858B9DC713
:10D2940097570000A384076C175700000347376CA7
:10D2A400954763FDE700EF0010379757000083C7E9
:10D2B400176BF5178A07A2979C43829717590000AA
:10D2C4001309896D8347C900918B99C3EF106028B6
:10D2D4001C4491C38297975400009384A44B9840B4
:10D2E40017560000034616469757000083C7874524
:10D2F40093961700BA9683D60600D5CA97570000AE
:10D3040083C7474463EFC70A97570000238C07423B
:10D314001C40639807129757000083C7776491CF26
:10D324009757000083C7B76389EB97570000A38919
:10D334000762977003E0E7800028975700009387FF
:10D34400274A9C43638F070EB707C0A817570000EE
:10D354002322F7406D3B9757000093872744DC5303
:10D36400EDC3175700001307E73D184B975700000C
:10D3740083C717446367F70C175700000347375EEA
:10D38400954763E0E70C8347C900918BDDEB904040
:10D394009756000083C6163B63CBD70A2244B2409B
:10D3A400924402494101171302E06700A35E850716
:10D3B40093F7F70F975600002386F638E3E6C7F293
:10D3C40035BF86073E9783550700231007009757FC
:10D3D4000000239F073A97570000938767399C43BF
:10D3E400175500000345053613172500BA979C43CB
:10D3F40082979757000083D7A73917570000034730
:10D40400673493C7F7FF7D8D9317170098403E97B5
:10D41400835707005D8D2310A7009757000083C72B
:10D42400673291C7850717570000230DF730175748
:10D434000000034727319757000083C7B730E375CF
:10D44400F7ECB2402244924402494101828013978E
:10D4540017003297035707006DF7850735BFAD678F
:10D4640037C70040BD072326F7200F100000975749
:10D4740000009387272DC84F83278726BD66BD06E6
:10D4840093C7F7FF99836A052326D7205D8D828091
:10D494004111B7170040985F3AC6945F3247E39C46
:10D4A400E6FE3245410182808280032785116300B4
:10D4B4000712411122C406C68347C5008345C5042B
:10D4C4002A8493F7C70F2306F50083469700035673
:10D4D400C70013958601618563F1C508635A050683
:10D4E4000345870093F6F607A304D700054693E6A1
:10D4F40027006314C50093E617002306D4005C4399
:10D5040089075CC3A30AB400032504112E864C4387
:10D51400090501368327841103465401D44303D7F4
:10D52400C700B296118FD4C32396E7008947A30D91
:10D53400F400034744039757000083C747276378E1
:10D54400F7048347C40093E707012306F40081A08E
:10D5540093E717002306F40075B79376F60F635D1F
:10D56400050203458700854513E627006314B500CB
:10D5740013E617002306C400A30AD400A30407007B
:10D584008547A30DF400832784119C43DDF3B24047
:10D59400224401454101828093E717002306F400E9
:10D5A400A30AD400A3040700032504114C4309056E
:10D5B4008D348327841103465401D44303D7C70011
:10D5C400B296118FD4C32396E7008D475DBF0545FE
:10D5D4008280975700009387A7369C43411122C449
:10D5E40006C6858B2A84C5EF4165130525F597107A
:10D5F40003E0E780A00F45C58347A5002315F50088
:10D6040083270412BDE72320A4122322A4128547F2
:10D614002310F40423200500834764015441231696
:10D62400F5000347D4002304E5000547A304E500FF
:10D634001757000013074732184F13851702158137
:10D644001C437D151375F50F9CC25C43DCC21C475B
:10D654009CC65C47DCC61C4B9CCA5C4BDCCA1C4F9A
:10D664009CCE5C4FDCCE19CD9386060213070702CD
:10D67400C1BF8327441288C3835704042322A412FE
:10D68400850779B79757000083D7473A8507175717
:10D694000000231DF738B2402244410182808347B1
:10D6A400C40023090400054593C747002306F4007A
:10D6B400DDB78347850193F7E70FD5EF83479501DE
:10D6C400DDEB034625018346C50009CA83454503AE
:10D6D400175700000347B70D63E7E50013F706018A
:10D6E40041CF014709C6C18A0357651C81C68356C9
:10D6F400A51C369751C31307C712175500000355CD
:10D70400E506B335A70237460F0041111306062478
:10D71400814622C426C206C67D543305A70297104B
:10D7240004E0E780C01F9757000083C7B708B3849D
:10D73400A700975700009387E72E03A707098327BD
:10D74400070963F387003E84184375FB975700006D
:10D75400938707099C43829781476364A400B307B6
:10D76400A440B2402244B3B7970093C71700924431
:10D774003E854101828081473E858280797126D22F
:10D7840006D622D44AD04ECE52CC56CA5AC85EC609
:10D794008347350303447513AA843E941374F40F2A
:10D7A4009307400263F687001304B4FD1374F40F67
:10D7B40003AA841383AAC413A38B841222865285DA
:10D7C400D685971004E0E7800010058915E503CBA2
:10D7D400D41201498149337B6403930B50024A8676
:10D7E4005285D685971004E0E780E00D058915C5BC
:10D7F400639169031374F90F238B8412B25022547A
:10D8040092540259F249624AD24A424BB24B4561A0
:10D8140082808509E20993D989410509E31179FDDB
:10D82400E1BF832785090356E503797193D6070180
:10D83400BD8EC206C182358E13577640935756402B
:10D84400898B058B5D8F93573640918B5D8F9357F2
:10D854001640A18B5D8F93171600C18B5D8F9317B4
:10D86400360093F707025D8F931756009355860091
:10D8740093F707041E065D8F1376F60F518F93D727
:10D88400554013D63540118A898BD18F13D67540F4
:10D89400D18F13D61540218AD18F13961500418A52
:10D8A400D18F1396350013760602D18F1396550047
:10D8B400137606049E05D18F93F5F50FCD8FA2073D
:10D8C40045465D8F3307C70222D42A8426D252CC20
:10D8D40056CA032A8413832AC4135AC806D6369711
:10D8E4004207418393577740135557400989858BE5
:10D8F400C98F135537401189C98F13551740218992
:10D90400C98F131517004189C98F13153700137573
:10D914000502C98F13155700935587001375050425
:10D924001E07C98F1377F70FD98F13D5354013D737
:10D9340055401189098B498F13D57540498F13D5EB
:10D9440015402189498F139515004189498F1395F5
:10D95400350013750502498F139555001375050499
:10D964009E05498F93F5F50F4D8F2207D98FB38705
:10D97400C7024AD04ECE5EC662C4B697C207C18300
:10D9840013D7774013D557400989058B498F13D591
:10D9940037401189498F13D517402189498F139531
:10D9A40017004189498F1395370013750502498F74
:10D9B4001395570093D58700137505049E07498F67
:10D9C40093F7F70FD98F13D5354013D755401189E5
:10D9D400098B498F13D57540498F13D5154021897B
:10D9E400498F139515004189498F13953500137597
:10D9F4000502498F13955500137505049E05498F3B
:10DA040093F5F50F4D8F2207D98FB387C7021306FD
:10DA140050025285D685B697BD8E93940601C18077
:10DA240033F6C402137BF60F971004E0E780A0E9F5
:10DA340005890DED8347D41201498149B3849702C6
:10DA4400130C5002C1804A865285D685971004E093
:10DA5400E78060E70589937BF90F11C5638634037A
:10DA6400850993F9F90F0509E31F89FD230B641355
:10DA7400B250225492540259F249624AD24A424B59
:10DA8400B24B224C456182805E8BCDB70111975712
:10DA94000000938727F922CC03A4470B26CA06CE9D
:10DAA4002AC42EC6854419E40145F2406244D24496
:10DAB400056182808347910003471400858B6304CA
:10DAC400F7000044CDB719469305A10013052400BF
:10DAD400EFF02FDDE31795FE0545C1BF011122CC00
:10DAE40017540000130404E918402AC62EC432C295
:10DAF40006CE3C4B93F7F7F73CCB977003E0E780F7
:10DB040040A8184097560000938606E43C4B93E7E0
:10DB140007083CCB9C423245A24523A0070003479B
:10DB240015000348250022074208429703480500D0
:10DB34004297034835006208429798D70347550037
:10DB4400034865002207420842970348450042976C
:10DB54000348750062084297D8D7034795000348E5
:10DB6400A5002207420842970348850042970348CC
:10DB7400B5006208429798DB0347D5000348E500E7
:10DB84002207420842970348C5000345F50042971F
:10DB940062052A97D8DB03C7150003C525002207B1
:10DBA40042052A9703C505002A9703C53500620577
:10DBB4002A9798CF03C7550003C56500220742057D
:10DBC4002A9703C545002A9703C5750062052A975D
:10DBD400D8CF03C7950003C5A500220742052A979D
:10DBE40003C585002A9703C5B50062052A9798D313
:10DBF40003C7D50003C5E500220742052A9703C5DC
:10DC0400C50083C5F5002A97E2052E97D8D3D843DB
:10DC1400759BD8C3D84313671700D8C398431367B9
:10DC2400170098C3124698425C43858BD1E71C4F7A
:10DC340001452300F6009C429C4FA183A300F600FB
:10DC44009C429C4FC1832301F6009C429C4FE1837C
:10DC5400A301F6009C42D84F2302E600D84F21834B
:10DC6400A302E600D84F41832303E600D84F618323
:10DC7400A303E60098532304E60098532183A304E6
:10DC8400E600985341832305E60098536183A30576
:10DC9400E600D8532306E600D8532183A306E60002
:10DCA400D85341832307E600DC53E183A307F6003E
:10DCB400F2406244056182800100B5B71757000045
:10DCC4001307C7C81443411122C49C5E4AC006C648
:10DCD400998326C2858B3A84175900001309C9C653
:10DCE400D1CB9C5E97540000938404C793F7F7F953
:10DCF4009CDE17570000034787C693070008631B81
:10DD0400F700832709009C4393F707041757000083
:10DD14002307F7C483C7040093F707049DC39757E9
:10DD240000009387E7AB9C4382979757000023AD8D
:10DD3400A7C283C7040093F7F70B17570000230DFE
:10DD4400F7C083C7440093F707048DE78547175747
:10DD54000000A305F7C0975700009387A7C19C4311
:10DD6400096798C7130700FC975600002388E6BE8E
:10DD7400D844F8D31C40985F1183058B09CB985F76
:10DD84003D9B98DF0547975600002389E6BC985FC2
:10DD94001D83058B11CB985F1377F7F798DF8547C1
:10DDA40017570000230CF7BA83270900D8430583CB
:10DDB400058B19C7D843759BD8C3D843799BD8C35F
:10DDC400B24022449244024941018280397106DE04
:10DDD40016DC1ADA1ED82AD62ED432D236D03ACE4F
:10DDE4003ECC42CA46C872C676C47AC27EC0F935F1
:10DDF400F250E2525253C2533255A2551256825631
:10DE04007247E2475248C248324EA24E124F824FE6
:10DE1400216173002030975700009387A7B594437E
:10DE240097570000938747B303C70700058B11CBAF
:10DE340097570000238407B297570000A38007B2C6
:10DE4400828003C71700058B65F7F85271FF83C7FB
:10DE54005700DDB717580000130848AF0327080020
:10DE64001C5F9583858BD1E709C61C5BBD832300AA
:10DE7400F60085CA83270800985B46079357670115
:10DE84006356070093E707C0C207C18303970600E0
:10DE9400C207C18709C7BA970947B3C7E7022390E6
:10DEA400F60085CD834715008DCB9756000083C6B9
:10DEB40006AB93F606041387970089478DCA3A95F3
:10DEC40003470500854699471376F7066311D60282
:10DED40062076187B947634C0700832708009C5F8A
:10DEE400ED838D8B17570000A30DF7A681473E8560
:10DEF40082808547EDBF411122C406C61754000035
:10DF0400130444A7184049E9AE877453FDFE3E85C7
:10DF1400B28597570000238207A4976003E0E78047
:10DF2400403C97570000938767A29C43B706800044
:10DF34009843558F98C3D857719BD8D797570000EB
:10DF4400A38E07A097570000A38807A01C40094789
:10DF540098C3B7F700E003A707D16D9B23A8E7D0C8
:10DF640003A707D15D9B23A8E7D07300501014408A
:10DF7400175700001307479E83472700858B89EBBB
:10DF840083473700858BD9C7975700002388079CA0
:10DF9400B2402244410182808D476310F5029757B5
:10DFA40000009387A79A9C43B70680009843558F37
:10DFB40098C3D857719BD8D75DBF8547E319F5FA45
:10DFC400B567BD075CC70F1000001C400967094610
:10DFD40098C7130700F8975600002381E69817574F
:10DFE40000001307A7961443984231830D8B6319DD
:10DFF400C7001307E043F8D33D673D07D8C785BF83
:10E00400984231830D8B01E713076019EDB71307AD
:10E01400E01BD5B7FC52ADF3A5BF5D7152DC175AB6
:10E024000000130AAA9203270A0086C6A2C4A6C245
:10E03400CAC04EDE1C43975900009389699817594A
:10E0440000001309299393F7F7E793E707081CC324
:10E0540083A609003707CEFF7D179C46130680026E
:10E064002A84F98F9CC68327090013070008280017
:10E07400B8CBAE8493051008EFE03FFD976003E052
:10E08400E7802050976003E0E780205D83270A0043
:10E094009376F41F370FFCFF23A40700984B4E8898
:10E0A400CA881367F70398CBF84F130510F8D28585
:10E0B400137707E0558FF8CF9843F576FD16758FE3
:10E0C40098C39843B7063300B70204001377F7E701
:10E0D40098C398439303401F7D1F1377F7E7136793
:10E0E400071098C303A70900930F800285491C47B2
:10E0F400D58F1CC7832709001307900D3400B8CBB4
:10E1040011490147135337002693834703001376BD
:10E114007700B3D7C740858BDDCF9C41832E0800A1
:10E12400239C07042390070603AECE02137EDEFF72
:10E1340023A6CE0383AE0700137EF70793FE0EF8E3
:10E1440033EECE0123A0C70103AE4702336E5E0057
:10E1540023A2C70383AE0800014E23A27E0603DA7E
:10E16400070663074E0303AE0703038A0600135E24
:10E17400FE00620E135E8E416358CA0103AE0703AC
:10E18400135EFE002380C60103DE0706137EFE0F26
:10E1940003AA4E0663060A0003DA8705E37F49FBF8
:10E1A40003AE4702337EEE0123A2C7038387060032
:10E1B400635CF400034E03003396C9001346F6FF74
:10E1C4003376C6012300C3003E8663D3A7002A86A4
:10E1D40013158601618505071377F70F8506E31389
:10E1E400F7F3B640264496440649F259625A6161EF
:10E1F4008280974600009386E6779C42D8471316A0
:10E204001701635506029847131617016350060257
:10E214007D57B8D7174700001307C752584F050753
:10E2240017460000232EE652116798C798470D83BE
:10E23400058B1DC317470000034727721367170098
:10E2440017460000230BE670130700F8174600007A
:10E254002306E670214798C79847058B09CF1747CF
:10E2640000000347776F1367170017460000A305E4
:10E27400E66E054798C798470983058B09E79847D1
:10E284000583058B31CF9847174600001306C66CEB
:10E29400174500001305856B0983058B630307107D
:10E2A4001841184331830D8B75EBAC4B184E93F525
:10E2B400050203471700CDCD79EF13077006D8CFB9
:10E2C4000347060013671700174600002306E66895
:10E2D400114798C718415C57F19B93E717005CD727
:10E2E4009C4298479316370163D60602974600006E
:10E2F40083C6867AC18A174700001307A772C5CE62
:10E304000347470713670702974600002386E6780A
:10E31400056798C798479316270163D106021747E4
:10E3240000000347A7636207618763570700054737
:10E33400974600002384E662096798C798479316B6
:10E34400070163D606029746000083C6F674858AE1
:10E35400174700001307076DADCE03475707136730
:10E36400270097460000A389E672216798C7828038
:10E3740029D785456315B7001307B00689B78945C2
:10E384006315B7001307F0061DBF8D456315B7006D
:10E39400130730072DB71307500715B71307600786
:10E3A40039BF034736001367170017460000A3065A
:10E3B400E65A094739BF834647070946BD8A638839
:10E3C400C600034747078D463D8BE313D7F4114737
:10E3D40025BF83465707918AC9DA0347570713674E
:10E3E400870041B7397106DE16DC1ADA1ED82AD640
:10E3F4002ED432D236D03ACE3ECC42CA46C872C6A9
:10E4040076C47AC27EC0F533F250E2525253C253FC
:10E414003255A255125682567247E2475248C248B4
:10E42400324EA24E124F824F2161730020301747A3
:10E434000000130767548346B7019747000083C75A
:10E4440077564C4BB697FD8B33D7F50097460000B3
:10E45400A384F65297460000A386F654058B15EF65
:10E464001747000003475754B3F7E70281460147B3
:10E474001305000233D6E500058A1378F70F19CA8D
:10E484006397D70097470000A388074F82808506CB
:10E4940093F6F60F0507E31FA7FC82809747000059
:10E4A400938707349C43011122CC4EC606CE26CA5C
:10E4B4004AC852C456C28297974700009387C74DF3
:10E4C400804781496305A406BE849747000093876B
:10E4D400E72C038767013E8963550706018D1354B2
:10E4E40055009747000083C7C74A9379F501636DC8
:10E4F400F402370AC0A8B70A4057153F9C44974610
:10E50400000083C60649139756003E9783076901A6
:10E51400158C63C50700636347015697974700004E
:10E5240023A0E748E37BD4FC1604B3693401F2402A
:10E5340062444E85D2444249B249224A924A056114
:10E544008280E37D85F8B707C0A83384874022958D
:10E5540079B7974700009387A7289C43411122C4A9
:10E5640006C626C28297974700009387E7428047F2
:10E574006309A406BE8497470000938727228387F4
:10E58400670163D80704018D1354550097470000B1
:10E5940083C727406367F404593D984497470000B4
:10E5A40083C7273F9396570036971D8C97460000E4
:10E5B40023A8E63EE372F4FE2244B2409244174597
:10E5C40000000345753B81454101176303E0670083
:10E5D400E34FE37A85FAB707C0A8338487402295CE
:10E5E40065B7B240224492444101828097470000BB
:10E5F4009387073D9843B75702009387079F832665
:10E6040007091396560063580600832607091396D4
:10E61400660063440600FD17FDF3828071C5AA8776
:10E624000145E9C58D07C207C183F19BC207C183B8
:10E6340013074003636FF702174700001307473EB1
:10E644000843174700001307273D14436398A602A5
:10E654001747000013078714185B014541CB41118C
:10E66400C20706C60545DD8D0297B240014541014A
:10E674008280174700001307673AD9B7035765002C
:10E6840035E303574500636FF704B306F7402146AB
:10E69400637CD60203280500938687001D8FAA9603
:10E6A4006117174600000356460A2392E60023A08A
:10E6B40006012393060014C12312F500130786FFF5
:10E6C400974600002393E6082313B50097450000FE
:10E6D40083D5A507B387F540174700002317F7062E
:10E6E4002105828008419DB70145828082800DC149
:10E6F400974700009387C73203A30700974700009A
:10E704009387873183A8070081469A8763E31701BB
:10E71400828003A80700636DF50A636BA80A138758
:10E724008700E367E5FE03D66700216705076317E3
:10E73400E60003C7019B05072388E19A974500007B
:10E744009385450003D6470003D76500239307004C
:10E75400329742074183174500002318E5FE638A78
:10E764006702174500001305652B08416303F50292
:10E7740003D5660019ED83D7460023A006012107BF
:10E784003E9621062392C60097470000239FE7FA8E
:10E79400B6879843E30E17F797460000938606283A
:10E7A4009442E307D7F683566700BDF283D6470049
:10E7B400035647001843A106B2962392D70098C384
:10E7C40083D76500A107174700002310F7F882805C
:10E7D400BE86C28725BF011197470000938787240F
:10E7E40022CC03A4C70B26CA4AC84EC606CEAA84A6
:10E7F40013092500854915C083C714000347340055
:10E80400858B6304F700405CFDB71946930544000B
:10E814004A85EFE01F89E31835FF2285F240624400
:10E82400D2444249B24905618280411197470000B0
:10E834009387471F22C403A4C70B26C24AC006C637
:10E8440093042500054901E82285B24022449244FC
:10E85400024941018280A6851305A402970004E0C1
:10E86400E780A0BBE30225FF405CF1BF411197475D
:10E8740000009387271B22C403A4C70B26C24AC0E7
:10E8840006C693042500054901E82285B2402244C6
:10E894009244024941018280A6851305A401970090
:10E8A40004E0E78080B7E30225FF405CF1BF00008D
:10E8B8009751FF1F938101C31791FF1F1301017423
:10E8C80017D5FFFF1305C5739715FF1F93850573AC
:10E8D8001746FF1F130686FD63FAC500832205004D
:10E8E80023A0550011059105E3EAC5FE17050400AC
:10E8F800130505209745FF1F938545FB138601885F
:10E9080063FAC5008322050023A05500110591056F
:10E91800E3EAC5FE138501889785FF1F93850522C5
:10E928006377B500232005001105E36DB5FEFD42B0
:10E93800739002BC8D4273904280B722000093828C
:10E94800828873A002309712FF1F9382226B93E292
:10E9580032007390523097120100938242F3739001
:10E968001234730020303D432A876373C3029377C0
:10E97800F700BDEFADE5937606FF3D8ABA960CC366
:10E988004CC30CC74CC74107E36BD7FE11E282802A
:10E99800B306C3408A069702000096966780A600D1
:10E9A8002307B700A306B7002306B700A305B700DF
:10E9B8002305B700A304B7002304B700A303B700D7
:10E9C8002303B700A302B7002302B700A301B700CF
:10E9D8002301B700A300B7002300B700828093F596
:10E9E800F50F93968500D58D93960501D58D61B762
:10E9F800939627009702000096968682E78086FA0B
:10EA08009680C1171D8F3E96E374C3F8A5B7336788
:10EA1800B500FD530D8B79E7B7877F7F9387F7F7AD
:10EA280010419441B372F6003363F600BE92B3E22C
:10EA380062006397720C6318D6065041D441B372D2
:10EA4800F6003363F600BE92B3E262006398720A7E
:10EA5800631BD60410459445B372F6003363F60081
:10EA6800BE92B3E262006391720A631ED6025045F9
:10EA7800D445B372F6003363F600BE92B3E2620087
:10EA8800639A72086311D60210499449B372F6006A
:10EA98003363F600BE92B3E26200639372085105D5
:10EAA800D105E30FD6F61317060193970601631CE9
:10EAB800F7001357060193D706013305F7409375FE
:10EAC800F50F91E982804183C1833305F74093753F
:10EAD800F50F91E182801377F70F93F7F70F33055E
:10EAE800F74082800346050083C6050005058505B5
:10EAF8006313D60065FA3305D64082801105910567
:10EB0800E312D6FE014582802105A105E31CD6FC4F
:10EB1800014582803105B105E316D6FC01458280A6
:10EB28004105C105E310D6FC014582800147114625
:10EB38004148B386E5008147B308F50083C808005B
:10EB48008507C10623A816FFE398C7FE110711051C
:10EB5800E31107FF8280935785019CC193570541B4
:10EB680093F7F70FDCC19357854093F7F70F1375A9
:10EB7800F50F9CC5C8C582801C41411113070501CA
:10EB88003EC05C413EC21C453EC45C453EC69397B0
:10EB980025001408B69783A707FF85051105232EBE
:10EBA800F5FE8D89E315E5FE41018280397122DC8D
:10EBB8004166138441A206DE26DA4AD84ED652D4DC
:10EBC80056D25AD05ECE93050501A2863708FF00BB
:10EBD8007D1683070500034735001105E207D98F25
:10EBE8000307D5FF9106420733770701D98F03073B
:10EBF800E5FF2207718FD98F23AEF6FEE39BA5FCB4
:10EC080081499144930A010117BB0300130B0BD5EB
:10EC180097BB0300938B0BD2130AC00293F73400FF
:10EC2800032904004844BDE78A85353785450A85A8
:10EC3800A1370A871C43110793F6F70093F7070FCC
:10EC4800DA97B69783C70700232EF7FEE394EAFE08
:10EC5800024592476205C2075D8DB2475D8DA247A6
:10EC6800A2075D8D93972900DE979C4385093D8D0A
:10EC78003345250108C885041104E39144FBF2508B
:10EC88006254D2544259B259225A925A025BF24BF8
:10EC9800216182803345A90008C8F1BF797122D467
:10ECA80026D24AD04ECE52CC56CA06D62A8A939934
:10ECB80045000144938A41A213090101C144B307E5
:10ECC8003401D69788438A85793533078A008A873D
:10ECD8001443904391074107B18E2328D7FEE39947
:10ECE80027FF1104E31D94FCB25022549254025998
:10ECF800F249624AD24A45618280397122DC1304A2
:10ED0800050106DE22878147C1460C433306F10020
:10ED180011070CC24C4710083E960CC24C4F1010FD
:10ED28003E960CC29107E392D7FE85450A85A93520
:10ED38008945080891358D4508103D3D8147414773
:10ED4800B306F10094421104232ED4FE1408BE9693
:10ED5800944254C41410BE969442910754CCE39143
:10ED6800E7FEF25062542161828006059377051010
:10ED780089C71375F50F1345B5018280411106C681
:10ED8800ED37B2404101D5B781471148C1483386B4
:10ED9800F500B306F500014703AE06003303E600AD
:10EDA80005072300C301C106E31807FF9107E39095
:10EDB80017FF82809306050117B60300130606BAEB
:10EDC80013050505138706FF1C43110793F5F70084
:10EDD80093F7070FB297AE9783C70700232EF7FE66
:10EDE800E394E6FEC106E31FD5FC8280411122C4EC
:10EDF80006C626C285472E846301F5028947631833
:10EE0800F5002244B24092442E854101B9BF8D4796
:10EE1800631BF5002E85913F298C2285B240224440
:10EE2800924441018280A5476315F5002E85B937C4
:10EE3800DDB7AD47631AF5002E8589373D37AA84BB
:10EE480022852537258DC9BFB5476316F5002E8560
:10EE58003537AA84FDB7B947E311F5FC2E85393F4C
:10EE6800AA842137A98C228509373344950075B7C0
:10EE78006382051493F7F500639E07121571D6C3D4
:10EE8800AA8A3285A2CDA6CB86CFCAC9CEC7D2C59B
:10EE9800DAC15EDF62DD66DB6AD96ED73284AE84A2
:10EEA800EF70C34CC147631EF50022850133014949
:10EEB800130A010697BB0300938B4BBE294C634191
:10EEC8009902FE406E44DE444E49BE492E4A9E4A8F
:10EED8000E4BFA5B6A5CDA5C4A5DBA5D2D61828032
:10EEE800338B2A010C105A859131814508107D33E6
:10EEF80085490810C135081009351C10D2863E878F
:10EF080010434107C10623A8C6FE032647FF23AACC
:10EF1800C6FE032687FF23ACC6FE0326C7FF23AE23
:10EF2800C6FEE31FEAFC17B70300130727B303283D
:10EF38000700832D4700032D8700832CC7005284C8
:10EF4800138607010C4042853ECE3ACC32CA42C8ED
:10EF5800713D0C482AC66E85513DB2460C501104CD
:10EF6800A98E6A8536C65935B2464C54A98E66852F
:10EF780036C6AD3DB246F2475246358D88C3910735
:10EF880042486247E310F6FC4107B287E391EBFA87
:10EF9800CE85081085091933E39D89F50810193DB8
:10EFA8000810A13BA9450810D539DA850810E93BB6
:10EFB800410931B782809307F00F6384F60A2D71F7
:10EFC800232A911023282111B284232631111306F4
:10EFD80000102E89AA89930530020A85232E111064
:10EFE800232C811036844132A2852685EFB0106724
:10EFF80013178500935785003365F7002310A10088
:10F00800A68522861305310093043400230181006C
:10F0180093F4F40FEF60635E93F6F40089C64D0431
:10F02800158C9374F40F1C02A697A6850A8517B64B
:10F0380003001306A6A6238007F01D3D26868A85B1
:10F048004E85EF60835B230099008320C111032460
:10F05800811183244111032901118329C1101561EC
:10F0680082808280411106C6EF70D058B240AA86CD
:10F0780017B70300130787A81756FF1F130686162E
:10F0880097B503009385C5A8114541016FB09075E8
:10F09800130101DB23248124232021252326112485
:10F0A80023229124232E3123232C4123232A512345
:10F0B8002328612303470500930710042A892E8417
:10F0C800631FF76603471500930740056319F76642
:10F0D800034725009307E0056313F7662E86AA8584
:10F0E8002545EFB0D0651306D003A2854A85EFB059
:10F0F800F07CAA84635A05003546A2854A85EFB09C
:10F10800F07BAA84634405089389D4FF930710030E
:10F1180063CE37074E86930539002808EF70E32839
:10F128001C1CBE9917BA0300130A4AC9238409DEB6
:10F13800D28A81494D4B83254A002808EFB0D07107
:10F148000DC18E09D69983D709004947636FF70027
:10F1580017B703001307C7958A07BA979C43BA974E
:10F1680082878509210AE39869FD97B5030093858D
:10F1780025C4CDA89305F4FF858D13851400C20519
:10F1880081460146C1814A95EF2010468320C1245B
:10F198000324812483244124032901248329C123AE
:10F1A800032A8123832A4123032B012313010125E9
:10F1B80082801306F4FF058E93851400420641826F
:10F1C800CA95E800EFC0E0171305D104EF70031AE1
:10F1D80093150501C1811305D104EFC0002397B52C
:10F1E8000300938525941305D104EFB0F06619CD7B
:10F1F80097B50300938585930545EFB0F0491765EA
:10F20800FF1F0345C5C4EF50806249B797B5030097
:10F21800938505931305D104EFB0106419CD97B504
:10F228000300938565920545EFB010471765FF1FEA
:10F238000345E5C1EF50606291BF97B50300938520
:10F24800A5911305D104EFB030610DC13717004007
:10F258008327C70C97B503009385859093E707012B
:10F268002326F70C2545EFB030430DB797B50300BB
:10F278009385C58F1305D104EFB0105E11CD3717F4
:10F2880000408327870C97B503009385A58E93E7E5
:10F2980007012324F70CF9B797B503009385058E6A
:10F2A8001305D104EFB0505B11CD37170040832709
:10F2B800C70C97B503009385258D93E70708232688
:10F2C800F70C4DB797B503009385058D1305D10449
:10F2D800EFB0905811CD371700408327870C97B5AA
:10F2E80003009385258C93E707082324F70C9DBF1B
:10F2F80097B503009385058C1305D104EFB0D0555D
:10F3080097B503009385C58B31FD97B503009385A9
:10F31800E58B1305D104EFB0305497B503009385FE
:10F32800A58B29F197B503009385C58B1305D104E7
:10F33800EFB0905211C59767FF1F23A307B2B9B565
:10F3480097B503009385C58A1305D104EFB0D05053
:10F3580001C5EF5010701DBD97B503009385058A50
:10F368001305D104EFB0504F01C5EF50F06E39BD11
:10F3780097B50300938545891305D104EFB0D04DA7
:10F3880001C5EF50B06C19B597B503009385858812
:10F398001305D104EFB0504C01C5EF50F06CFDB32C
:10F3A80097B503009385C5871305D104EFB0D04AFC
:10F3B80011C913059108EF6083211375F50FEF50FC
:10F3C8007067E9B397B503009385C5851305D10424
:10F3D800EFB0904801C5EF90200C4DBB97B50300E6
:10F3E8009385C5841305D104EFB0104709C50545B9
:10F3F800EF90401E61BB97B503009385A583130565
:10F40800D104EFB0704519C10145DDB797B50300C8
:10F418009385C5821305D104EFB0104411C937177D
:10F4280000408327C70AA166D58F2326F70AB9BBF0
:10F4380097B50300938505811305D104EFB0D0413A
:10F4480011C9371700408327870AA166D58F23245F
:10F45800F70A2DBB97A503009385457F1305D104B3
:10F46800EFB0903F01C5EFC0D04B0DB30346D104B8
:10F47800A547130606FD1376F60FE3E9C7D097678D
:10F48800FF1FA386C79C97A503009385E57C0145CC
:10F49800EFB05035E5B91306F4FF058E1385140057
:10F4A8004206418297B503009385452F4A95EFB0F0
:10F4B800704E1764FF1F1304A49829C597A503006D
:10F4C8009385C57A1145EFB0301D1C4097A5030000
:10F4D8009385857AE80093E717001767FF1F2321B4
:10F4E800F796EF609367E800EF605368131605011D
:10F4F8004182EC0013850168EF8040384145EFC038
:10F50800804C69B197A50300938585781145EFB0C4
:10F51800B0187D55EFC0004E1C40F99B1767FF1FC0
:10F528002320F792A5B13D3E95B11306F4FF058E51
:10F53800138514004206418297B50300938505267A
:10F548004A95EFB030451764FF1F1304648F21C13B
:10F558001C4097A5030093852572E80093E71700E0
:10F568001767FF1F232EF78CEF60335FE800EF600B
:10F57800F35F13160501EC00418213850168EF80E3
:10F58800E02F97A50300938565711145E9B997A503
:10F59800030093856571E800EF60335CE800EF6075
:10F5A800F35C13160501EC00418213850168EF80B6
:10F5B800E02C1C4097A5030093858570F99B17677D
:10F5C800FF1F232FF786D1B7EF70403E9767FF1FC5
:10F5D80093870787A843EF507356AE862A8697A568
:10F5E80003009385A56E1145EFB0D01F45B6EF50C7
:10F5F800403C69BE17B603001306C61A97A5030058
:10F608009385856D114569B5EF70F00297A50300E4
:10F618009385456D3DF997A503009385A56DB5B70D
:10F628000D45EF80304DAA84EF5053512A86AE869F
:10F63800254597A503009385256DEFB0B01A97A7C8
:10F6480003009387E74D8843A6851754FF1F1304CB
:10F6580024D1EF5043642320A422EF701004032523
:10F668000422EF50B34DAE862A8697A503009385F2
:10F67800656A95BF81451145EF50B025EF70C0769A
:10F688002A8697A503009385A56BADBF81451D45C7
:10F69800EF50302481452545EF50B02397A503004E
:10F6A8009385056B2145EF50D022EF7040742AC630
:10F6B800EF70A074B2462A871756FF1F130686B24A
:10F6C80097A50300938505691145EFB0B0117DBC7E
:10F6D8001757FF1F035787EA9756FF1F938666D26F
:10F6E8001756FF1F130606B097A503009385C56834
:10F6F800E1BF85471757FF1F230AF7E8EF70E07946
:10F7080097A503009385856849B51757FF1F0347D9
:10F71800E7E7854797A503009385C567E317F7E6ED
:10F72800C5B79757FF1F9387A771C85FEF5013415D
:10F73800AE862A8697A50300938545666DB5014672
:10F74800A2854A85EF50E07991B4411122C4216421
:10F758009305048099460146254506C69710FF1F64
:10F76800E7804054930504802244B24099461386AA
:10F778000188294541011713FF1F6700A35299E12A
:10F788000145828075DD011152C403DA418826CA19
:10F7980093548A008504A204C204C18056C2B38A65
:10F7A8004441C20A22CC4AC82E862E842A8997B59B
:10F7B80003009385E584254593DA0A014EC606CEF3
:10F7C80093890188EFB0100263ED8A0883D54188D8
:10F7D80093F7F50FB1CF8D6783D54188938707805D
:10F7E800A2864A86BE9529459710FF1FE780804B61
:10F7F8001375F50F29ED83D749001566A297239253
:10F80800F18803D7418883D721886309F70063F318
:10F81800E700B297998F139607014182254597A56E
:10F8280003009385657FEFB0E07B1375F40F0DA09F
:10F838008D6793870780930600100146BE9525457E
:10F848009710FF1FE78000461375F50F49D501454E
:10F85800F2406244D2444249B249224A924A05617E
:10F868008280B3079440D297C207C183A18303C79C
:10F878004900850793F7F70F9396870011EB938656
:10F88800170093740AF0A206C204C206C180C1829E
:10F8980083D7218863F6F40033879600E3C9E7FA33
:10F8A8000D6A130A0A800146B3854401254597105D
:10F8B800FF1FE780203F1375F50F51F983D5418865
:10F8C800A2864A86D29505B7411122C413840188BD
:10F8D80022858145194606C69710FF1FE780A07646
:10F8E8009307B0FA2300F4008D352244B24097A55F
:10F8F800030093856569254541016FB0E059A1650D
:10F908004111994613860188938505802D4506C6C1
:10F918009710FF1FE780003903C701889307B00AD3
:10F928006303F7005537B24083D6418803D6218850
:10F9380097A5030093850566254541016FB0806A48
:10F9480083D741AD0145638C071003D561AD63666C
:10F95800F50023AA01AC014582803385A740D14731
:10F968003355F5021375F50F01E5239A01AC828032
:10F97800130101BD232481422326114223229142EF
:10F9880023202143232E3141232C4141232A514155
:10F9980095471374F50F63F3A7001544228697A5BE
:10F9A8000300938525692545EFB0C063014981446B
:10F9B800938981AD514AA14A9377F90F03D561AD77
:10F9C8001757FF1F034767B063E98704D14733041C
:10F9D800F4022A94239B81ACA147631CF706A685F1
:10F9E8000808EF40001103D761AD83D741AD054545
:10F9F8006364F70023AA01AC8320C1420324814237
:10FA080083244142032901428329C141032A8141B8
:10FA1800832A4141130101438280B3074903140833
:10FA2800AA97CE9733859600631E5701BE85EF408F
:10FA3800C02B2317A1008357E1000509BE94C20417
:10FA4800C1809DBFAA851306E1003E85EF90700135
:10FA5800DDB726860C080145EF60B05F69B7828084
:10FA6800011106CE22CC26CA4AC84EC691E90144E5
:10FA78002285F2406244D2444249B24905618280FB
:10FA8800AA8975D583D7418803D621882E849564A1
:10FA9800638AC7006374F60015673A961D8E93143F
:10FAA8000601C180268697A503009385E54A25456A
:10FAB800EFB04053938714F06356F4009307F00FA8
:10FAC80063EA970097A503009385854A2545EFB01B
:10FAD800605171BF83D4418833878400956763C7B9
:10FAE800E700A2854E8561398D3159B7156933090B
:10FAF8009940420913590901CA854E85493125D9CA
:10FB0800ED75A695A295C20523920188C18133851A
:10FB18002901D1BF83D641AD81EA97A5030093851A
:10FB2800A54B25456FB0403703D661AD4111918E85
:10FB380097A503009385454B254506C6EFB0804A37
:10FB4800138741AD8355070083D761AD138581AD18
:10FB58009D8DC2053E95C1812137B24023AA01ACD3
:10FB680041018280411183D741AD22C426C206C615
:10FB7800AE971307401FAA842E84635AF700593F93
:10FB880097A50300938505432545EFB0E03083D75B
:10FB980041AD138581AD2286A6853E95EF50F325AC
:10FBA80003D641AD229642062244B2409244418295
:10FBB800239AC1AC97A5030093854541254541018A
:10FBC8006FB04042011126CA06CE22CC4AC84EC6A2
:10FBD80052C456C2814459C1D1C183D7218803D4A4
:10FBE8004188638D870663F587081D8C4204418030
:10FBF800AE892A89228697A5030093856532014537
:10FC0800EFB0403EA28463F38900CE84C2040D6A3B
:10FC180083D7218803D74188C180938A0188130A32
:10FC28000A8063FAE704A6864A86B38547012D450C
:10FC38009710FF1FE780000783D72A00A697239114
:10FC4800F188EFF09FB083D6418803D6218897A525
:10FC580003009385252E2545EFB0C038F240624455
:10FC680026854249D244B249224A924A0561828095
:10FC780015673A949DBF15671D8FB385470163D5F6
:10FC8800E400A6864A8665B79569B389F9406D741C
:10FC98003E94C20993D909012694CE864A86420425
:10FCA8002D459710FF1FE780E0FF4180A2863306AD
:10FCB8003901D2852D45239101889710FF1FE780D0
:10FCC80060FE83D72A003E94239181889DBF3971B5
:10FCD80026DA4AD84ED652D456D25AD006DE22DC7C
:10FCE80062CE66CC2A89EF6063689374F50F814908
:10FCF800254BE54A17AA0300130A4A3991ECF2503A
:10FD080062544E85D2544259B259225A925A025BD1
:10FD1800724CE24C2161828003470900930707FD7A
:10FD280093F7F70F637CFB009307F7F993F7F70F47
:10FD380063E2FA06930797FA93F7F70F139487018C
:10FD48006184FD14230089002685EF4093302A86BC
:10FD5800AE8603250A0083254A0093F4F40F0509AB
:10FD6800EFF0705D2AC422852EC6EF40932E2246FE
:10FD7800B246EF30B35E2A8C4E85AE8CEF4093349A
:10FD88002A86AE866285E685EF203372EF40B32679
:10FD9800AA89ADB79306F7FB93F6F60F8147E3EF11
:10FDA800DAF8930797FC49BF411122C406C68307B6
:10FDB80095022A8499C713059502EF5053012385AC
:10FDC800A10C8307D41291CB1305D412EF50C37F33
:10FDD800EF50836193878109C8D3B240224441011F
:10FDE8008280411126C29304150022C497A50300FE
:10FDF800938545302A84268506C6EFB0E02D631822
:10FE0800050E97A503009385252F2685EFB0C02CF6
:10FE180045CD85448307D403DDC313059402EF5011
:10FE2800037B85471305D4036385F40C89476389ED
:10FE3800F414EF50C379A386A10C8307D4089384E4
:10FE4800810991CF1305D408EF50637883C771886F
:10FE580013871700A697A383E188A38BA7048307BA
:10FE6800D40D91CF1305D40DEF50637683C77188F5
:10FE780013871700A697A383E188A38BA70483079A
:10FE8800D41291CF1305D412EF50637483C77188CD
:10FE980013871700A697A383E188A38BA70483077A
:10FEA800D41791CF1305D417EF50637283C77188A5
:10FEB80013871700BE94A383E188A38BA404B240E0
:10FEC800224492444101828097A50300938505232B
:10FED8002685EFB06020E31E05F2268597A503006E
:10FEE80093850522EFB0401F8944E31505F281444C
:10FEF80015B7EF50C36D2387A10C8307D4089384EB
:10FF0800810991CF1305D408EF50636C83C76188CA
:10FF180013871700A6972383E188A38CA70283077A
:10FF2800D40D91CF1305D40DEF50636A83C7618850
:10FF380013871700A6972383E188A38CA70283075A
:10FF4800D41291CF1305D412EF50636883C7618828
:10FF580013871700A6972383E188A38CA70283073A
:10FF6800D417B1DF1305D417EF50636683C76188D0
:10FF780013871700BE942383E188A38CA40281B75A
:10FF8800EF50E364A387A10C1DBF411122C406C62C
:10FF9800830795072A8499C713059507EF502363AC
:10FFA800A385A10C8307D40899C71305D408EF507B
:10FFB80003622386A10C8307540B91CB1305540BC2
:10FFC800EF508360EF5043429387810988D7B2404E
:10FFD800224441018280411122C406C60307150547
:10FFE8008147014419C703444505130404FD1374EC
:08FFF800F40F0307550619C7B9
:020000021000EC
:1000000013055506EF50235D9377F50F1374B40F66
:100010000D476315E4021D47637EF7009757FF1FE6
:10002000938787E29C4337070800D98F1757FF1F34
:10003000232CF7E0B2402244410182805547E9BFBA
:10004000011126CA8146B284014652C456C206CE68
:1000500022CC4AC84EC62A8AAE8AEF30D31341CD8D
:100060009307E0046386F400930730056395F40872
:1000700097A903009389090603A6090083A64900EE
:100080005285D685EF30132E37949800EF402377B2
:10009000130404682A8933758502EF40330303A6ED
:1000A000090083A64900EF30C33397A70300938765
:1000B000E7029043D443EF30C3322A8A3355890292
:1000C000AE8AEF40B3002A86AE865285D685EF20F1
:1000D000533E13073005AE876395E400B7070080F1
:1000E000AD8FF2406244D2444249B249224A924A18
:1000F000BE850561828001458147E5B7011126CAA9
:100100008146B284014652C456C206CE22CC4AC8A9
:100110004EC62A8AAE8AEF30130841CD93075004A9
:100120006386F400930770056395F40897A90300AC
:10013000938949FA03A6090083A649005285D6850A
:10014000EF30532237949800EF40636B1304046838
:100150002A8933758502EF40637703A6090083A6D9
:100160004900EF30032897A70300938727F79043B0
:10017000D443EF3003272A8A33558902AE8AEF40F1
:10018000E3742A86AE865285D685EF209332130714
:100190007005AE876395E400B7070080AD8FF2402D
:1001A0006244D2444249B249224A924ABE8505611C
:1001B000828001458147E5B7411122C406C626C2A7
:1001C000830755012A84B9C7A946938707FDB387DA
:1001D000D70203476501130707FDBA97A38DF108FE
:1001E0000307750183478501130707FD3307D7020E
:1001F000938707FD3E97238EE10883079501034708
:10020000A501938707FDB387D702130707FDBA97A8
:10021000A38EF1088307940281CB1307100463981F
:10022000E7108547238FF1088307D403938481095E
:1002300099C71305D403EF50A33988C4CCC403066F
:10024000140501CA8844CC442384C10CD53B88C41E
:10025000CCC48307540699C713055406EF5043379F
:1002600088C8CCC80306940701CA8848CC48A38430
:10027000C10C693588C8CCC88307D40899CF130549
:10028000D408EF50E33497A70300938727E89043FF
:10029000D443EF30330D88CCCCCC8307140A99C7F4
:1002A0001305140AEF502333239CA10A8307540B30
:1002B000B9C7A946938707FDB387D7020347640BE5
:1002C000130707FDBA97238DF1080307740B8347C3
:1002D000840B130707FD3307D702938707FD3E976B
:1002E000A38CE1088307940B0347A40B938707FDB6
:1002F000B387D702130707FDBA97238CF1088387CA
:1003000034000567130707E1B387E7029306C003CC
:1003100003C7C109B240224492443307D702BA97B7
:1003200003C7D109BA9723A2F10C41018280238F20
:100330000108DDBD135785009357050113D88500CB
:100340009376F50F01111377F70F93F7F70F618588
:1003500093F5F50F1378F80F99C211C3B9E3230C85
:10036000D100A30CE100230DF100A30DA100034572
:100370009101834781010347A1012205A30E0101D9
:100380004207C98F230EB1000345B101D98F03473E
:10039000D1018345C101620522075D8DD98D0561BB
:1003A000828032951375F50F131385011353834122
:1003B0005D466357660861463363C302850713765B
:1003C000D70F114593F7F70F6305A6002545631A6C
:1003D000A6007946637FF60205071377F70F854776
:1003E0000DA809466312C7041386067D93084006CC
:1003F000B36816036385080013F5360011C51305AD
:1004000000193366A60219EE75466374F600854737
:100410000D47230CD100A30CE100230DF100A30D27
:100420006100B1B77146D5B77D46E374F6FEB147BA
:10043000E314F7FA850693F6F60F85470547D1BF13
:10044000E35903FC6105FD171313850193F7F70FBB
:1004500013538341DDFF7D171377F70F1146F947DB
:10046000E309C7FA1946E306C7FA2546E303C7FAC4
:100470002D46E300C7FA89476316F7021386067D07
:1004800093074006B367F60291C793F83600F54725
:10049000E38108F893070019B367F60293B71700D2
:1004A000F10785BFFD4735F7FD1693F6F60F314787
:1004B0008DB783471500034705000111A2075D8F23
:1004C000834725008346350083454500C207D98F01
:1004D0000347550022CC1744FF1F1304E4E803062A
:1004E0002420E206220733E5F600D98D06CE9935A1
:1004F000135885001356050193D7850013F7F50FA0
:1005000093F7F70F935685011376F60F9375F80F4F
:100510001375F50FEF70703883471400054793F794
:10052000B70F6397E7006244F24005616F70704651
:10053000F24062440561828049712324811613844C
:1005400081098307340083C8D10903C8C10903C7DF
:10055000A10983C6910903C6810997A50300938564
:1005600065BC48102326111623229116232021173B
:10057000232E3115EF50935A4810EF50B35F1848AF
:100580005C48030604033AC03EC2030814035C44FB
:100590001844541097A503009385C5BA3695EF50BB
:1005A000F3574810EF50135D5C103E9583076400CD
:1005B00017A60300130686B689C717A603001306FD
:1005C00066B597A503009385A57CEF503355481079
:1005D000EF50535A544C104C5C1097A50300938570
:1005E00065B73E95EF5093534810EF50B35803064C
:1005F00034035C103E9597A50300938565B6EF50D4
:10060000F3514810EF50135703072403AA844850AE
:100610003ACE13848109EF40F35272475C10AE86E4
:100620002A8697A503009385A5B433859700EF50DC
:10063000F34E4810EF5013545C1003C6C10C97A53D
:100640000300938565B43E95EF50534D4810EF502D
:1006500073525C1097A50300938505B43E95EF5047
:1006600053501389610BA28497A903009389C97120
:1006700003C6740519CA481032CEEF50B34F724604
:100680005C10CE853E95EF5073498504E39224FFBC
:100690004810EF50334E5C1097A50300938545B08A
:1006A0003E95EF50134C97A403009384E46D0346EA
:1006B000940319CA481032CEEF50D34B72465C10E7
:1006C000A6853E95EF5093450504E31224FF4C1098
:1006D0002545EFA0E07C8320C116032481168324E6
:1006E0004116032901168329C115756182801747B8
:1006F000FF1F130767751C43411122C426C206C69B
:1007000093F68700BA8413848109A1E68306640006
:1007100005476390E60403C7A10919EB08444C445C
:1007200001468146EF3023270DE9238F010881A878
:100730000307340065D703C7C1096DD303C7D109C7
:1007400071DF93E7870022851747FF1F232EF76E7F
:100750008D3383076400F9F3C9BF08484C4801464C
:100760008146EF30432371D183C7A109DDDF130632
:1007700080079385810913850102EF40936803C5C3
:1007800001CD9D4705053365F50213068007938566
:1007900081092388A1CC930780073305F50293874D
:1007A00081CD3E95EF40F365413BDC501306800759
:1007B0008145138581091747FF1F232DF76AEFE055
:1007C0000F9BB2402244A383018823830188924473
:1007D000410182800171232C811E232A911E130660
:1007E000101E2A84AE8468008145232E111E232802
:1007F000211FEFE0CF9781458147014701465148CE
:10080000CD485D436341960899C12306F100130664
:10081000A002A6852285EFA0F00A8347C1005147B8
:100820003386A440B387E7029305150078007D1650
:10083000A29585073305F700EF40B35C1306A002CD
:10084000A685228503491400EFA0D007894763C419
:10085000A7080345C100D1473305F5027C00050513
:100860003E95EFF04FC7631DA904194697A50300F5
:10087000938545871305D100EFA050122DC5680060
:10088000EFF09F9335A8B306C40003C50600930696
:1008900065FD93F6D60F91EA850793F7F70F63612D
:1008A000F302854501470506B1BFB3860703130E62
:1008B000011FF296BA96A38EA6E00507E3D5E8FEDF
:1008C0008320C11F0324811F8324411F0329011F8B
:1008D0001301012082803307F400034707008507D6
:1008E0003349E900ADB71946979503009385C57F55
:1008F0001305D100EFA0900A25E91946979503004A
:100900009385C57E1305D100EFA0500931E9194642
:10091000979503009385C57D1305D100EFA01008BE
:1009200005ED1946979503009385C57C1305D10005
:10093000EFA0D00611ED1946979503009385C57B6E
:100940001305D100EFA0900525DD68004D338DBF64
:100950006800EFF0CFE8ADB76800EFF00FC98DB7D2
:100960006800EFF00FE3A9BF6800EFF06FC489BF24
:10097000757122C526C34AC1CEDED2DCD6DADAD8FA
:1009800006C7AA892E89814401448147130A40027F
:10099000854A354B139704014183636C2701BA40A4
:1009A0002A449A440A49F659665AD65A465B49611E
:1009B0008280338799000347070063004703639CE5
:1009C0005701631D67019C18A297A2856800238EBA
:1009D00007F809358147850475BF01449C18A29723
:1009E00005041374F40F238EE7F893373406E5B744
:1009F000411106C6138501CD834705001307800703
:100A00008145B387E70213068007A1073E95EFD023
:100A10001FF6B2408145114541016FA0D074138586
:100A200001CD8347050013078007B387E702A107BD
:100A30003E958280138501028280397126DA97946F
:100A400003009384246162CC66CA328CB68C9040D9
:100A5000D44006DE22DC4AD84ED652D456D25AD0E2
:100A60005ECE6AC842C046C2179403001304045FF6
:100A70003AC43EC6EF30030F10405440179D0300A8
:100A8000130D4D5EEF20F3152247B2479040D4403E
:100A90002A8AAE8A3A85BE85EF30C30C1040544096
:100AA000EF2033142A89AE892A86AE865285D685F0
:100AB000EF30C35603260D0083264D00EF30830A26
:100AC000EFE0D0722A8BAE8B5285D685EFE0F068CE
:100AD0002A8AAE8A4A85CE85EFE03068024892487D
:100AE0002A894286C686AE896285E685EF30035341
:100AF0009040D440EF30030710405440EF20730E75
:100B000003260D0083264D00EF30C305EFE0106E85
:100B10002A84AE844A86CE865285D685EF308304F9
:100B20002286A686EF3003042286A686EF30830352
:100B30002A84AE845A86DE865A85DE85EF308302AB
:100B40002A86AE862285A685EF20A316EFF0803197
:100B5000EFE010732A86AE86EF20A3159797030067
:100B60009387C7509043D443EF20D37F97970300D8
:100B7000938747509043D443EF20D37EF250625482
:100B8000D2544259B259225A925A025BF24B624CE9
:100B9000D24C424D2161828018419387011110454A
:100BA00098C303574500544590C72392E700585512
:100BB0001049D4C7544998CF979503009385C54FE2
:100BC0000547254590CBD4CB238EE7006FA0402D61
:100BD0005971D2CC138A01CDA2D4A6D2CECED6CA18
:100BE000DAC8DEC6E2C4E6C286D6CAD083C401CD66
:100BF0008149930B80075284179C0300130C0C4807
:100C0000854C1D4B954A3389740352998307E9003B
:100C1000638C071A03260C0083264C000325090267
:100C200083254902EF20B3686340051A834709040E
:100C3000638E9719939719005808BA97035789023A
:100C40002390E7007C00CE972380970085099904C4
:100C5000B3E46403E39959FB0357C101835741018E
:100C6000998F13D7F741B98F998F93940701130781
:100C7000400BC1806358F70093078016B3849740F8
:100C8000C204C1802686979503009385A53F08106E
:100C9000EF50C3680C102545EFA08020938714FF08
:100CA000C207C18379476360F7068344D100130903
:100CB000800785450145B3842403A104A2942686B8
:100CC000EF80B0408347F10085450145B387270396
:100CD000A1073E942286EF80503FA6850D45EF3058
:100CE0008003A2850D45EF3000030545B65026541C
:100CF00096540659F649664AD64A464BB64B264C98
:100D0000964C656182809307D002E3F097FE034B17
:100D1000C100130A80078545330B4B030145930B34
:100D20008B00A29B5E86EF80503A834AD1008545B6
:100D30000145B38A4A03229BA10AA29A5686EF80F4
:100D4000D0388349E10085450145B3894903A109AC
:100D5000A2994E86EF8070370349F1008545014521
:100D600033094903210922994A86EF8010368344CA
:100D7000010185450145B3844403A104A29426865C
:100D8000EF80B034DE850D45EF20F078D6850D4537
:100D9000EF207078CE850D45EF20F077CA850D45A0
:100DA000EF207077A6850D45EF20F07683C701CD43
:100DB000338A470303274B0352945C58E317F7F237
:100DC00085472300F40415B77D550DB7795539BF14
:100DD0007571094506C722C526C34AC1CEDEEFA0FC
:100DE000104501E523A4018889A813050002EFA09E
:100DF00010446DF9138481881C40850723A4F18871
:100E0000C13B1C401737FF1F0357477663E7E702D4
:100E100003C501CD9304800733059502138401CDEA
:100E2000B307A4000387E70009CB03C7C11293856A
:100E3000011119EB210522958533BA402A449A44C1
:100E40000A49F6594961828003A8870183A8C7012E
:100E5000984B9049DC4BD4498845CC45EFF0FFBD19
:100E60002A86AE862A89AE89680097950300938505
:100E7000E522EF50A34A6C002545EFA0600217352C
:100E8000FF1F03457558EF30531D2A86AE864A85ED
:100E9000CE85EF20F336E352A0FA03C601CD330628
:100EA00096028545014521062296EF80102283C5D2
:100EB00001CDB38595020D45A105A295EF20B06542
:100EC00003C501CD3305950221052295EFF0DFCC56
:100ED00011BF914763E3C70A179703001307072D54
:100EE0000A063A961C42411122C406C6BA972A84C1
:100EF000828797A503009385E5771145EF90507A97
:100F0000A2851145EF90D0792244B24097A5030005
:100F100093850578114541016F909078B9CA97374C
:100F2000FF1F83C7C76781C79042EF50701F2244DD
:100F3000B240014697650000938505A53D454101F6
:100F40006F30C06B9DC62244C8C2B24003C5A60024
:100F50002394B6003686954541016F8010172244D0
:100F6000B24041016FE0F0152244B24041016F30C0
:100F70006025B2402244410182808280411106C630
:100F8000EF90E02AB24041016F80D0745571581043
:100F900093063102130621029305110293075102B1
:100FA0001305610286C7EF7020099747FF1F9387DB
:100FB000A7E99C43BD9B1747FF1F2327F7E8EFF0E6
:100FC0001FA6030305039305E0048356610203474C
:100FD0001102834721020348310283484102034E34
:100FE000510217D603001306E69A6316B30017964C
:100FF0000300130626CA830E150313035004032FA0
:101000008500832FC500979503009385A5C8638647
:101010006E0097D503009385E5970323050183238D
:1010200045017AC41ACC1ECE7EC672C02EC832C20A
:1010300097A503009385C5B21736FF1F1306061B3D
:101040002810EF50A32DEF80B0292810EF508332E5
:101050009387C18890439315050193860113281047
:10106000C181853DBE4069618280411122C426C292
:1010700006C623A6B1882A84B28481C69C4223A8CE
:10108000F1120545EFB0C07A0545EFB0D002034735
:10109000040089476317F7021305D403EF40A353F5
:1010A0000DE1EFB0E07BEFB0F00613050002EFA01A
:1010B000F014979503009385251D2685EF50632A2C
:1010C00041A003470400854763F2E7081305D403F2
:1010D0009747FF1F239907DEEF40E34F9747FF1F16
:1010E0002382A7DE13059407EF40E34E1375F50F37
:1010F0009747FF1F238AA7DC1747FF1F034787DC9B
:101100008D4763E6E7001747FF1F230DF7DA11E568
:10111000A9471747FF1F2309F7DA13050002EFA0BD
:10112000100B9746FF1F83C626DA1746FF1F03469C
:1011300066D997950300938565162685EF50031EA3
:101140002244B240924441016F80D0180545EFA07F
:101150001008979503009385A51885B7411122C4FF
:101160002A848307D40306C626C22E8589C713079F
:10117000F0036398E7021737FF1F1307B725973669
:10118000FF1F938616221736FF1F1306761E9795AC
:101190000300938565232244B240924441016F507D
:1011A000E317034704008547AE8463FCE70013069A
:1011B00020039305D4031735FF1F1305751BEF504C
:1011C000431F8307940785C303470400894763FCD3
:1011D000E70013062003930594071735FF1F130537
:1011E000551CEF50031D8307540B85C303470400B0
:1011F0008D4763FCE700130620039305540B173556
:10120000FF1F1305351DEF50C31A8307140F91CF2D
:1012100003470400914763FAE7001305140FEF40FA
:10122000833B9737FF1FA380A71E9736FF1F83C6F8
:10123000961D1736FF1F1306F6199735FF1F938566
:1012400055161735FF1F1305B512EF40C04801466C
:1012500097750000938525361305C012EF30003ACC
:10126000EF5030441737FF1F1307D7169736FF1F6D
:10127000938636131736FF1F1306960F97950300B4
:101280009385C516268501BF411126C206C622C414
:10129000034705008947AE8463F7E7029305D5034A
:1012A0002A84130620031735FF1F13056505EF5029
:1012B000431013059407EF4003329737FF1F239322
:1012C000A70AEF509038EF50503C9736FF1F83D657
:1012D00066091736FF1F1306A6029795030093852C
:1012E000257F2685EF50830385479735FF1F93851C
:1012F000E5EF1735FF1F130565FF1737FF1FA30B1A
:10130000F7F4EF5003069735FF1F938575061735E1
:10131000FF1F130545F4EF50C3049735FF1F938556
:1013200055081735FF1F130525F6EF508303973532
:10133000FF1F9385350A1735FF1F130505F8EF507A
:101340004302978503009385E57B1735FF1F13053F
:1013500045FEEF500301EF50502F01469745000026
:101360009385E5EF7945EF3060292244B2409244FD
:101370000146977500009385052413052008410157
:101380006F30C027411122C426C24AC006C6830757
:10139000D503AE8417990300130949421744FF1F70
:1013A000130484AA89C71307F0036391E704173570
:1013B000FF1F03456505EF30434A032609008326D6
:1013C0004900EF200302EF40A30268C0EF3093779B
:1013D000AE862A86979503009385C53E2244B24087
:1013E00002492685924441016F4053731305D5038A
:1013F000EF40631E9737FF1F2388A7001375F50F73
:10140000EF30A3450326090083264900EF10737DC2
:10141000EF30137E68C0EF50D0286840EF309372F1
:10142000AE862A86979503009385C53B45BFAA875C
:101430000387D7032E8509C79306F0036315D702E8
:101440009737FF1F83C797F217960300130646349A
:1014500089E71796030013062634979503009385B2
:1014600025356F40B36B41111385D70306C622C4DF
:101470002E84EF4043169737FF1FA389A7EEEF5046
:1014800050229737FF1F83C777EE97950300938508
:10149000253189E7979503009385053122852244FC
:1014A000B24041016F40F36B411126C206C6AA84C7
:1014B00022C48387D4032E8589C71307F00363965C
:1014C000E7049737FF1F83C797EA05476385E7025D
:1014D00089CB09476386E702B24022449244410126
:1014E000828097950300938525342244B24092442C
:1014F00041016F4013679795030093856535F5B7F4
:101500009795030093858537CDB79384D4032E84B4
:1015100026859795030093856539EF40D36B1DC1F0
:1015200089471737FF1FA304F7E4979503009385B6
:10153000253C2285EF40F3622244B24092444101AF
:101540006F5030162685EF4003091375F50F973756
:10155000FF1FA38EA7E08547979503009385453726
:10156000E309F5FC979503009385C53479D1894744
:10157000E30DF5FA1737FF1FA30BF7DE979503006E
:10158000938545397DB741112E8597950300938545
:10159000E53B06C6EF40F35C0146974500009385A6
:1015A00005CC7945EF308005B240014697750000C3
:1015B000938565001305400641016F3020044111F9
:1015C00022C426C206C68307D503AE841734FF1F84
:1015D000130484D989C71307F003639BE7028306CA
:1015E0002420179603001306A65263D6060017861A
:1015F00003001306266A2685979503009385855177
:10160000EF40D3512244B240924441016F90306385
:101610001305D503EF30337C9737FF1F2387A7F4DB
:10162000EF90F061030624209795030093854550C1
:101630002545EF90B01B834724206147B10793F7FE
:10164000F70F6377F700A1471737FF1F230FF7F056
:10165000EF50300583062420179603001306464BEF
:1016600063D60600178603001306C6622244B24002
:1016700026859244979503009385054C41016F4060
:10168000F349797122D49307D1012E847808930607
:10169000B1011306A101930591011305E10106D6DD
:1016A00026D2EF6070198348D1010348C1018347F6
:1016B000B1010347A101834691010356E1019795CA
:1016C0000300938525F62285EF4053452285EF40A0
:1016D000734A9737FF1F93872777CC5303A8C70216
:1016E0000566130606E19306C00333F3C50222958F
:1016F0003377D802B378C8023AC09C5333F7D50287
:10170000B3D8D8023358C802B356D30233D6C50271
:1017100097950300938545F3EF4053402285EF40B2
:101720007345B304A400EF9020311796030013060D
:1017300026EF09C517960300130646EE979503009A
:10174000938585F42685EF40733D2285EF409342D3
:101750001737FF1F0357C7709736FF1F83C6166FD3
:101760001736FF1F0346C66E979503009385C5F293
:101770002295EF40B33A2285EF40D33FB7170040A0
:1017800003A6470A83A6470A22952D82A982858A45
:10179000058A97950300938525F3EF403338B250BF
:1017A0002254925445618280AA870387D7032E85ED
:1017B00009C79306F0036311D7029737FF1F83C74A
:1017C00027BB979503009385A5B689E797950300F6
:1017D000938505B96F40F33841111385D70322C4AF
:1017E00006C62E84EF30335F1375F50F9737FF1F52
:1017F0002380A7B81737FF1F034717B7894763161A
:10180000F7000DE91145EFA0801C9737FF1F83C734
:1018100027B697950300938525B689E7979503002A
:101820009385C5B82285EF40D3332244B2404101AD
:101830006F5020671145EFA0601CC1BFAA870387C6
:10184000D7032E8509C79306F003631ED702973787
:10185000FF1F83C7C7B10547638DE70089C70947E5
:10186000638EE7008280979503009385E5BA6F4009
:10187000532F97950300938565BED5BF97950300B9
:10188000938585C3EDB741111385D70322C406C6DE
:101890002E84EF3053541375F50F9737FF1F2388AD
:1018A000A7AC854797950300938545BB6306F50272
:1018B00097950300938545B605C189479795030021
:1018C000938585BF630AF5001737FF1F2301F7AA29
:1018D00097950300938505C42285EF409328224401
:1018E000B24041016F50E05BAA870387D7032E8582
:1018F00009C79306F003631CD7001736FF1F034682
:10190000B6B097950300938525E36F4033214111CD
:101910001385D70306C622C42E84EF30534C973765
:10192000FF1FA383A7AEEF50C05722852244B240C9
:101930001736FF1F034656AD97950300938505E2C2
:101940004101E1B7411122C425452E84814506C6D7
:10195000EF30A078EF50E04A2A8622852244B24038
:1019600097950300938505E241016F40331B4111B8
:1019700022C41305D5032E84979503009385C5D6FD
:1019800006C6EF90E07511CD0145EF50005C9795CC
:101990000300938525D622852244B24041016F4041
:1019A000531C0545EF50605A97950300938545D623
:1019B000DDB7411122C42A848307D40306C626C298
:1019C0002E8589C71307F003639CE7029737FF1F33
:1019D000938707AD1737FF1F130767A99736FF1FB8
:1019E00083D6E6B91736FF1F130646A59795030061
:1019F000938505F82244B240924441016F4013128E
:101A0000AE841735FF1F130565A39305D403EF407C
:101A100053151735FF1F130565A2EF40B315931536
:101A20000501C1811735FF1F130545A1EF90302235
:101A30008307940789CB13059407EF30D339973781
:101A4000FF1F239EA7B28307540B85CB9305540B2E
:101A50001735FF1F1305A5A1EF40B3101735FF1F62
:101A60001305E5A0EF40131193150501C18117354A
:101A7000FF1F1305C59FEF90901D8307140F85CBA3
:101A80009305140F1735FF1F130585A1EF40730D44
:101A90001735FF1F1305C5A0EF40D30D93150501A2
:101AA000C1811735FF1F1305A59FEF90501AEF5006
:101AB000403F9737FF1F9387A79E1737FF1F1307D6
:101AC000079B9736FF1F83D686AB1736FF1F13067B
:101AD000E696979503009385E5EA268521BFAA87B8
