:04C000006F2010128B
:10C00400000000000000000090000020700A0020E2
:10C01400A9BDF9F594000020000000000000000014
:10C02400960000209800002000000000000000009E
:10C034009A000020000000009C0000200000000086
:10C044009E0000201603002026040020A4000020E7
:10C05400A6000020A8000020AA000020AC000020B8
:10C06400AE000020B0000020C60000205A010020CD
:10C07400EC0A0020B8000020BA000020BC00002018
:10C08400BE000020EE01002082020020C400002037
:10C0940001A001A001A001A001A001A001A001A094
:10C0A40001A001A001A001A001A001A001A001A084
:10C0B40001A001A001A001A001A001A001A001A074
:10C0C40001A001A001A037370040834747009946EB
:10C0D4004111BD8B638CD70231476384E706114756
:10C0E400639EE702A3030100175600000346468A35
:10C0F40037370040834771006315F6022C0013851F
:10C10400C166977001E0E780402609A8834757007D
:10C1140093F7F70F2304F100834781004101730073
:10C12400203083477100834687000C08AE97238C28
:10C13400D7FE83477100850793F7F70FA303F10038
:10C1440055BF280097E001E0E780004A1375F50F1A
:10C15400A303A1000346710055B737370040834756
:10C16400474099464111BD8B638CD70231476384A4
:10C17400E7061147639EE702A30301001756000078
:10C184000346268137370040834771006315F60262
:10C194002C0013850168977001E0E780001D09A851
:10C1A4008347574093F7F70F2304F1008347810037
:10C1B40041017300203083477100834687400C0897
:10C1C400AE97238CD7FE83477100850793F7F70F4B
:10C1D400A303F10055BF280097E001E0E7808052F7
:10C1E4001375F50FA303A1000346710055B7374734
:10C1F40000408347478099464111BD8B638CD70229
:10C2040031476384E7061147639EE702A3030100F5
:10C21400174600000346D67737470040834771002E
:10C224006315F6022C0013854169977001E0E780DD
:10C23400C01309A88347578093F7F70F2304F1002D
:10C244008347810041017300203083477100834696
:10C2540087800C08AE97238CD7FE8347710085072F
:10C2640093F7F70FA303F10055BF280097E001E00F
:10C27400E780005B1375F50FA303A100034671006B
:10C2840055B737470040834747C099464111BD8B96
:10C29400638CD70231476384E7061147639EE70244
:10C2A400A303010017560000034686AF374700403A
:10C2B400834771006315F6022C001385816A977019
:10C2C40001E0E780800A09A8834757C093F7F70F76
:10C2D4002304F10083478100410173002030834728
:10C2E4007100834687C00C08AE97238CD7FE834722
:10C2F4007100850793F7F70FA303F10055BF2800DA
:10C3040097E001E0E78080631375F50FA303A100B4
:10C314000346710055B7371700408357C709C20752
:10C32400C18393F60720A1C69756000083C606C1B1
:10C334008506175600002303D6C09756000093863F
:10C3440026B7944293E60640175600002322D6B639
:10C3540093060020231ED7088326470A93F6062057
:10C36400D9CE8326C70A93E606202326D70A056773
:10C3740013070780B3F6E7009DCE97560000938617
:10C3840026B3944237061000D18E1756000023219D
:10C39400D6B2B716004003A6460A798E25CA03A66C
:10C3A400C60A518F23A6E60A0567B716004013078D
:10C3B4000780239EE60893F70740A1C39757000020
:10C3C400938707AF9C4337078000D98F1757000026
:10C3D4002320F7AEB717004003A7470A1377074097
:10C3E40005CF03A7C70A1367074023A6E70AB717B1
:10C3F400004013070040239EE70873002030832683
:10C40400870A93E606202324D70A95B703A6860A4B
:10C41400518F23A4E60A49BF03A7870A136707407D
:10C4240023A4E70AE9B7411126C4B714004083D70F
:10C43400E40983D7E40922C6056413040480E18F68
:10C4440089CBA145014597C001E0E7800059239FAE
:10C4540084083244A244410173002030411122C4B3
:10C46400175400001304C4A41C4006C613F7074065
:10C4740021C713974701634A07028D45094597C0B1
:10C4840001E0E7808055914517550000034585A3D9
:10C49400973002E0E780C08397C504E0938585293F
:10C4A400254597B001E0E780E0BC1C4093F7F7BF57
:10C4B40017570000232EF79E1C401397B700635EA6
:10C4C4000704371700408326470A056713070780C8
:10C4D400F98E9DCAF98F8DEB8D45094597C001E012
:10C4E400E780A04F9145175500000345A59D97206F
:10C4F40002E0E780E07D97C504E09385A524254507
:10C5040097B001E0E78000B71C403707F0FF7D17C4
:10C51400F98F17570000232DF7981C4013978700B5
:10C5240063510706370780FF7D17F98F17570000FF
:10C534002320F798371700400327470A8566938618
:10C544000680F58F13770740D98F85EF8D45094510
:10C5540097C001E0E7806048914517550000034506
:10C564006596972002E0E780A0762244B24097C502
:10C5740004E09385E51D2545410117B301E06700FB
:10C5840063AFB24022444101828041118146014699
:10C594008145114506C6EF00C077B7270040114713
:10C5A4002383E780B7F700E003A707D16D9B23A897
:10C5B400E7D003A707D15D9B23A8E7D073005010F1
:10C5C40001000100B2404101828041118146814550
:10C5D4000146114506C6352FB7270040114723836E
:10C5E400E780B717004003C7E70283C5E70483D792
:10C5F400870391661377F70F93E5350063E5D7005A
:10C60400719B13671700B71700401306700523804A
:10C61400C704930680FA2380D70401000100238213
:10C6240007022380C7042380D70401000100238765
:10C63400E7022387B7042380C7042380D7040100BB
:10C64400010003C7B70413670702A385E704238027
:10C65400070437F700E0832507D193E54500232835
:10C66400B7D0832507D1DD992328B7D073005010A4
:10C67400010001002380C7042380D70401000100C6
:10C6840003C7B7041377F70DA385E70423800704D2
:10C69400B240410182800111B7F5070022CC8146E6
:10C6A400E1052A840A86194506CE26CA02C0231249
:10C6B40001008525B717004003C7E70283C5E704D7
:10C6C40083D7870391661377F70F93E5350063E506
:10C6D400D700719B13671700B71700401306700546
:10C6E4002380C704930680FA2380D7040100010045
:10C6F400238207022380C7042380D704010001009A
:10C704002387E7022387B70423800704B7F500E0F3
:10C7140003A705D11367470023A8E5D003D5070273
:10C724006577110713750560418D598D4205418167
:10C7340001002380C7042380D7040100010003C73C
:10C74400F70037F40700B7F400E013670704A38782
:10C75400E70003C7B704610413670702A385E7046E
:10C764002390A70283A704D1DD9B23A8F4D07300F0
:10C7740050100100010013056004352E814630007D
:10C78400A285194502C4231601006123224782476A
:10C79400E31AF7FCB7170040130770052380E7047A
:10C7A400130780FA2380E7040100010003C7B704DC
:10C7B4001377F70DA385E70423800704F24062444E
:10C7C400D2440561828001114EC681460146AA8980
:10C7D4008145114506CE22CC26CA4AC81D2BB71660
:10C7E400004083C7E60203C7E60483D686031166C6
:10C7F40093F7F70F1367370063E5C600F19B93E7E0
:10C80400170037140040130970052300240593040E
:10C8140080FA23009404010001002302040223008F
:10C82400240523009404010001002307F4022307D4
:10C83400E40423000404130550025920B7F700E070
:10C8440003A707D11367470023A8E7D023002405D3
:10C8540023009404010001000347F4001367070454
:10C86400A307E4002300240523009404010001002D
:10C874002567B3E9E9002310340303A707D15D9BBF
:10C8840023A8E7D07300501001000100814601463F
:10C8940081451145BD29230024052300940401008A
:10C8A40001008347640493E717002303F40423007F
:10C8B4000404F2406244D2444249B2490561828090
:10C8C400B7170040930670052380D704130780FA36
:10C8D4002380E7040100010003C6B7041376F60DB4
:10C8E400A385C70423800704137605024DC203C63B
:10C8F400A700118A1DE22380D7042380E7040100E6
:10C90400010003C7A700136747002385E7009307C7
:10C91400004B01000100FD17EDFFB717004093061F
:10C9240070052380D704130780FA2380E7040100ED
:10C9340001007D892394A70001000100010001008A
:10C94400238007042380D7042380E7040100010027
:10C95400010001003727004093061005A303D78088
:10C9640023800704B7170040130770052380E704EA
:10C97400130780FA2380E7040100010003C7B7040A
:10C9840013670708A385E7042380070482801376CE
:10C99400050441C603C6A700418A1DE22380D704CB
:10C9A4002380E7040100010003C7A7001367070100
:10C9B4002385E7009307007D01000100FD17EDFFCB
:10C9C400B7170040930670052380D704130780FA35
:10C9D4002380E704010001001376F50113660604C1
:10C9E4002394C70001000100010001002380070413
:10C9F4002380D704130660042380E7046318C5006A
:10CA04000100010037270040894689BF0100010069
:10CA1400372700409306200591B72380D70423804D
:10CA2400E7040100010003D787001367070C239470
:10CA3400E7000DBF4111814601468145114506C6F7
:10CA4400C92CB7170040130770052380E7041307A8
:10CA540080FA2380E7040100010003C76704136719
:10CA640017002383E70423800704B2404101828036
:10CA74008146014681451145692CB717004093064C
:10CA840070052380D704130780FA2380E70401008C
:10CA940001007D562396C7022380D7042380E70430
:10CAA4000100010003C76704136717002383E70429
:10CAB4002380070401A0BD473305F50201007D155D
:10CAC40075FD8280411122C426C206C6AA8401448F
:10CAD40063179400B24022449244410182800504C9
:10CAE4001305803E4204C13F4180DDB7B7170040C3
:10CAF400130700032388E702854717470000232D07
:10CB0400F74473002030397122DC4ED656D23714E4
:10CB14000040E57AB7F9070026DA52D45AD05ECE3F
:10CB240006DE4AD862CC2A8B916B93040404130A60
:10CB34007005910AE1098347E4020347E40483563C
:10CB4400840393F7F70F1367370063E57601F19BCE
:10CB540093E7170023804401130980FA23802401FA
:10CB640001000100230204022380440123802401E4
:10CB7400010001002307F4022307E40423800400D6
:10CB840037F700E0832707D193E747002328F7D03E
:10CB94008357040293F70760B3E76701B3E75701CC
:10CBA400C207C183010023804401238024010100C2
:10CBB40001008346F400130CB40493E60604A307AF
:10CBC400D4008346B40493E60602A305D4042310D8
:10CBD400F402832707D1DD9B2328F7D0730050107C
:10CBE4000100010013056004F9353000CE8581464B
:10CBF400194502C423160100292A1146974500004D
:10CC040093850536280019231DD5930770052380C5
:10CC1400F400238024010100010083470C0093F7F2
:10CC2400F70D2300FC0023800400F2506254D25418
:10CC34004259B259225A925A025BF24B624C216118
:10CC44008280411106C6B52DEFF05F81978001E027
:10CC5400E780208FCDBF2303048015472303E4809E
:10CC640001002302A480828083076480E3CE07FE50
:10CC740023030480828083076480E3CE07FE034598
:10CC84004480828083076480E3CE07FE2302A4806D
:10CC94008280411126C44AC24EC006C61377F50BE2
:10CCA400AD47AA892E8995446306F700194565376F
:10CCB400653F8D444E854537FD59FD146398340115
:10CCC400B240A244124982494101828013550901AC
:10CCD4001375F50F453F2209CDB7011126CC06CEB9
:10CCE400B704080051371545BD37713769372AC66F
:10CCF400A53F32459377150089EB1365150013752D
:10CD0400F50FF240E24405618280FD14E9FC01451F
:10CD1400CDBF397126DC4ADA4ED852D656D45AD20F
:10CD24005ED006DE62CE66CCB7E700E07D5783AA0C
:10CD3400070022C603AA470023A0E71823A2E71886
:10CD4400B7170040130770052380E704130780FA20
:10CD54002380E70483C74704930B75FFB684E20777
:10CD640093FBFB0F8546AA892E8B3289372400401A
:10CD7400E187015763FA76016308D50089461307F2
:10CD840000026313D5000157D98F93F7F70FB71C2F
:10CD940000402382FC0411472303E4801305F00FB1
:10CDA4005D3D094CD135636D7C11B7050700DA95FB
:10CDB40037870700795563F2E504B3879500636EFE
:10CDC400F702370B0800A94733EB65016399F906AD
:10CDD40089E48144513D26850DA0DA850945553DF8
:10CDE40005090345F9FFFD14050B693D81C49377DB
:10CDF400FB0FFDF7DD3569FD7D55B71700401307BF
:10CE040070052380E704130780FA2380E70403C72F
:10CE14004704418B2382E704F250B7E700E023A0E4
:10CE2400571123A24711E25432445259C259325A7B
:10CE3400A25A125B825B724CE24C21618280A5474C
:10CE44006395F90685691309F00FB3069900B37465
:10CE54002B01B6941349F9FFB3749900856B3379A8
:10CE64006901416B9387F9FFB3F7270199E363FCE9
:10CE7400340193D94900C147E3E637FF99BF0569F7
:10CE8400C1697D19D9B71305800D6388690113053C
:10CE940000026384790113051008CA85DD3B353D22
:10CEA40021DD4E99B3843441D9B7DA852D45D53384
:10CEB400CA94E30099F205097D3BA30FA9FED5BFEF
:10CEC4009387F9FF93F7F70F6361FC0C83C71C0486
:10CED40013073008631FF70437070800636BEB047C
:10CEE400B3079B00B706100063F5D704334BEB0080
:10CEF40089476393F9068980D549E38C04ECDA8584
:10CF04000945413B11090327C9FF91472320E480C8
:10CF140003076480E34E07FE23033481FD17EDFB12
:10CF2400FD14110B81C49377FB0FE9FF7D3371F579
:10CF3400E1B5B717004003C75704B70708001377D4
:10CF4400070219E3B78707007955E378FBEA33074B
:10CF54009B00E3FFE7F855B58547E382F9F2DA85EC
:10CF64002D45053B9389F4FFE38504E6293393F7C4
:10CF7400390091EB832604800327090093074900B5
:10CF8400E39AE6E43E89CE84F1BFB5476396F9009F
:10CF94001305900BC93135BDB1471305B00AE38BB6
:10CFA400F9FE99476391F904B7050800B365BB001E
:10CFB4002D45C53181448D4BA14975396396740162
:10CFC400832704802320F9008504E39834FF832712
:10CFD400048013172B01635507002312F900D5BBF6
:10CFE4002322F900FDB39D476399F9028145130596
:10CFF400B0044531BD442320090023220900FD5912
:10D004009D3993F77400CA9703C70700FD14398D3F
:10D014002380A700E39634FF6DBBA1476392F90414
:10D024006D398144630D0B008D479304C00363087D
:10D03400FB009304000563048B01930440041375FF
:10D04400C507E30895D819453931393905452131E2
:10D0540026850D3909453D314931E31C05D669BBA7
:10D0640091476399F90013056006F536F53E1305FB
:10D0740090090DB7E38F09D4F154A9BB19CD91CD13
:10D0840009CE81473387F500834607003307F5004F
:10D0940085072300D700E317F6FE828019C991C9DA
:10D0A40009CA910583A7C5FF11057D16232EF5FE38
:10D0B400C5BF828001C919C62A960505A30FB5FE0E
:10D0C400E31DA6FE828081473307F50003070700AE
:10D0D40019E33E8582808507C5BF01112E8626CAC5
:10D0E400AA84131506019305F004418122CC06CECF
:10D0F40032C6EF1040592A8401C53246A685BD3F89
:10D104002285F2406244D24405618280854715C17C
:10D114008DC105C28147B306F5003387F50083C688
:10D124000600034707006398E6008507E315F6FE4B
:10D1340085473E8582808147EDBF9307F6FFBE9504
:10D144002A966313C5008280FD1583C71500050563
:10D15400A30FF5FEFDB7AA87014581CF09CE3E9600
:10D16400850703C7F7FF6317B700E39BC7FE0545B1
:10D17400828082800145828079719757000093876D
:10D18400276822D4804306D626D24AD04ECE52CC2B
:10D1940056CA5AC85EC662C45DCC37C9C901814B40
:10D1A400175A0000130A4A6A97540000938484654E
:10D1B4001309F937975A0000938A4A5FB709C0A840
:10D1C400370B40578357240095E35C44639D0B0061
:10D1D400175700002326F762032CC4002285EF10A2
:10D1E400A057628499A823A6FB00FDB783270A00F1
:10D1F4008297838664011C4463DB06063307F5408B
:10D204006367E9089757000023AA075A8355240047
:10D2140003450400972002E0E78080AB5C4058445B
:10D22400A9CF1444B6978386640163C5060063E3FB
:10D234003701DA971CC4A28B3A8449F4975700004B
:10D244009387C7569C4B09476378F706F917175716
:10D2540000002325F756B250225492540259F24941
:10D26400624AD24A424BB24B224C45618280E377F8
:10D27400F5F83387F9402A9761B763970B009757FE
:10D28400000023AFE75689BF23A6EB00B1B7D850FF
:10D2940009CF63DF06003385A74083A70A016376BD
:10D2A400F5009757000023ABA750A28B404471B7F9
:10D2B400E3F3A7FECE97C5B79757000023A0075006
:10D2C40059BF411122C417540000130424511C40B7
:10D2D40006C626C24AC091C782979757000023AF5B
:10D2E400074E5C4091C382971C406391071C97577B
:10D2F400000083C7376D858B9DC797570000A383B4
:10D30400076C175700000347176C954763FDE70048
:10D31400EF0010379757000083C7F76AF5178A079D
:10D32400A2979C438297175900001309696D83479C
:10D33400C900918B99C3EF1060281C4491C3829754
:10D34400975400009384844B98401756000003467A
:10D35400F6459757000083C7674593961700BA961A
:10D3640083D60600D5CA9757000083C7274463EFC6
:10D37400C70A97570000238B07421C406398071283
:10D384009757000083C7576491CF9757000083C70E
:10D39400976389EB97570000A3880762977003E0AF
:10D3A400E7804032975700009387074A9C43638F76
:10D3B400070EB707C0A8175700002321F7406D3B9D
:10D3C4009757000093870744DC53EDC317570000B9
:10D3D4001307C73D184B9757000083C7F74363678C
:10D3E400F70C175700000347175E954763E0E70CF7
:10D3F4008347C900918BDDEB90409756000083C6AC
:10D40400F63A63CBD70A2244B2409244024941011E
:10D41400171302E06700E368850793F7F70F975641
:10D4240000002385F638E3E6C7F235BF86073E974A
:10D43400835507002310070097570000239E073ADF
:10D4440097570000938747399C43175500000345BD
:10D45400E53513172500BA979C4382979757000028
:10D4640083D78739175700000347473493C7F7FF1B
:10D474007D8D9317170098403E97835707005D8D65
:10D484002310A7009757000083C7473291C7850729
:10D4940017570000230CF7301757000003470731D4
:10D4A4009757000083C79730E375F7ECB2402244E6
:10D4B400924402494101828013971700329703571F
:10D4C40007006DF7850735BFAD6737C70040BD0757
:10D4D4002326F7200F100000975700009387072D8D
:10D4E400C84F83278726BD66BD0693C7F7FF998378
:10D4F4006A052326D7205D8D82804111B71700402D
:10D50400985F3AC6945F3247E39CE6FE3245410198
:10D51400828082800327851163000712411122C48F
:10D5240006C68347C5008345C5042A8493F7C70FFD
:10D534002306F500834697000356C700139586011A
:10D54400618563F1C508635A05060345870093F6B0
:10D55400F607A304D700054693E627006314C50025
:10D5640093E617002306D4005C4389075CC3A30A2F
:10D57400B400032504112E864C4309050136832784
:10D58400841103465401D44303D7C700B296118FC4
:10D59400D4C32396E7008947A30DF400034744034B
:10D5A4009757000083C727276378F7048347C4008D
:10D5B40093E707012306F40081A093E717002306ED
:10D5C400F40075B79376F60F635D05020345870093
:10D5D400854513E627006314B50013E617002306F8
:10D5E400C400A30AD400A30407008547A30DF400D4
:10D5F400832784119C43DDF3B24022440145410159
:10D60400828093E717002306F400A30AD400A3043E
:10D614000700032504114C4309058D348327841125
:10D6240003465401D44303D7C700B296118FD4C321
:10D634002396E7008D475DBF05458280975700001C
:10D64400938787369C43411122C406C6858B2A845E
:10D65400C5EF4165130525F5971003E0E780E01950
:10D6640045C58347A5002315F50083270412BDE7AC
:10D674002320A4122322A41285472310F404232078
:10D6840005008347640154412316F5000347D40081
:10D694002304E5000547A304E5001757000013071A
:10D6A4002732184F1385170215811C437D151375F6
:10D6B400F50F9CC25C43DCC21C479CC65C47DCC6BD
:10D6C4001C4B9CCA5C4BDCCA1C4F9CCE5C4FDCCE12
:10D6D40019CD9386060213070702C1BF832744129C
:10D6E40088C3835704042322A412850779B7975764
:10D6F400000083D7273A850717570000231CF73803
:10D70400B2402244410182808347C40023090400BB
:10D71400054593C747002306F400DDB78347850119
:10D7240093F7E70FD5EF83479501DDEB034625011A
:10D734008346C50009CA83454503175700000347BC
:10D74400970D63E7E50013F7060141CF014709C6CA
:10D75400C18A0357651C81C68356A51C369751C3DD
:10D764001307C712175500000355C506B335A702A2
:10D7740037460F00411113060624814622C426C2EF
:10D7840006C67D543305A702971004E0E780002AFB
:10D794009757000083C79708B384A70097570000E2
:10D7A4009387C72E03A707098327070963F3870015
:10D7B4003E84184375FB975700009387E7089C4302
:10D7C400829781476364A400B307A440B240224413
:10D7D400B3B7970093C7170092443E8541018280F6
:10D7E40081473E858280797126D206D622D44AD0DA
:10D7F4004ECE52CC56CA5AC85EC68347350303443C
:10D804007513AA843E941374F40F9307400263F6CD
:10D8140087001304B4FD1374F40F03AA841383AABA
:10D82400C413A38B841222865285D685971004E0F4
:10D83400E780401A058915E503CBD41201498149D3
:10D84400337B6403930B50024A865285D685971026
:10D8540004E0E7802018058915C5639169031374F2
:10D86400F90F238B8412B250225492540259F24974
:10D87400624AD24A424BB24B456182808509E20931
:10D8840093D989410509E31179FDE1BF832785090E
:10D894000356E503797193D60701BD8EC206C18292
:10D8A400358E1357764093575640898B058B5D8F81
:10D8B40093573640918B5D8F93571640A18B5D8FA4
:10D8C40093171600C18B5D8F9317360093F70702E9
:10D8D4005D8F931756009355860093F707041E0631
:10D8E4005D8F1376F60F518F93D7554013D635407D
:10D8F400118A898BD18F13D67540D18F13D61540D9
:10D90400218AD18F13961500418AD18F1396350041
:10D9140013760602D18F13965500137606049E05DE
:10D92400D18F93F5F50FCD8FA20745465D8F330751
:10D93400C70222D42A8426D252CC56CA032A84137C
:10D94400832AC4135AC806D636974207418393578D
:10D954007740135557400989858BC98F1355374034
:10D964001189C98F135517402189C98F13151700C1
:10D974004189C98F1315370013750502C98F131513
:10D98400570093558700137505041E07C98F137735
:10D99400F70FD98F13D5354013D755401189098B0B
:10D9A400498F13D57540498F13D515402189498F67
:10D9B400139515004189498F139535001375050298
:10D9C400498F13955500137505049E05498F93F5EA
:10D9D400F50F4D8F2207D98FB387C7024AD04ECE99
:10D9E4005EC662C4B697C207C18313D7774013D506
:10D9F40057400989058B498F13D537401189498FC1
:10DA040013D517402189498F139517004189498FF0
:10DA14001395370013750502498F1395570093D555
:10DA24008700137505049E07498F93F7F70FD98F65
:10DA340013D5354013D755401189098B498F13D518
:10DA44007540498F13D515402189498F13951500C9
:10DA54004189498F1395350013750502498F139534
:10DA64005500137505049E05498F93F5F50F4D8FE9
:10DA74002207D98FB387C702130650025285D68571
:10DA8400B697BD8E93940601C18033F6C402137B0E
:10DA9400F60F971004E0E780E0F305890DED834766
:10DAA400D41201498149B3849702130C5002C180F6
:10DAB4004A865285D685971004E0E780A0F105894F
:10DAC400937BF90F11C563863403850993F9F90F24
:10DAD4000509E31F89FD230B6413B25022549254A9
:10DAE4000259F249624AD24A424BB24B224C456136
:10DAF40082805E8BCDB7011197570000938707F999
:10DB040022CC03A4470B26CA06CE2AC42EC68544BB
:10DB140019E40145F2406244D2440561828083479E
:10DB2400910003471400858B6304F7000044CDB7CC
:10DB340019469305A10013052400EFF02FDDE31728
:10DB440095FE0545C1BF011122CC175400001304F2
:10DB5400E4E818402AC62EC432C206CE3C4B93F7E2
:10DB6400F7F73CCB977003E0E78080B218409756F4
:10DB740000009386E6E33C4B93E707083CCB9C42CA
:10DB84003245A24523A0070003471500034825009A
:10DB9400220742084297034805004297034835008C
:10DBA4006208429798D70347550003486500220747
:10DBB40042084297034845004297034875006208AB
:10DBC4004297D8D7034795000348A5002207420887
:10DBD40042970348850042970348B500620842977C
:10DBE40098DB0347D5000348E50022074208429723
:10DBF4000348C5000345F500429762052A97D8DB20
:10DC040003C7150003C52500220742052A9703C54B
:10DC140005002A9703C5350062052A9798CF03C7E4
:10DC2400550003C56500220742052A9703C5450030
:10DC34002A9703C5750062052A97D8CF03C79500B4
:10DC440003C5A500220742052A9703C585002A9724
:10DC540003C5B50062052A9798D303C7D50003C549
:10DC6400E500220742052A9703C5C50083C5F500D0
:10DC74002A97E2052E97D8D3D843759BD8C3D843A7
:10DC840013671700D8C398431367170098C3124645
:10DC940098425C43858BD1E71C4F01452300F60075
:10DCA4009C429C4FA183A300F6009C429C4FC183DD
:10DCB4002301F6009C429C4FE183A301F6009C42A1
:10DCC400D84F2302E600D84F2183A302E600D84FA1
:10DCD40041832303E600D84F6183A303E6009853EE
:10DCE4002304E60098532183A304E6009853418358
:10DCF4002305E60098536183A305E600D853230661
:10DD0400E600D8532183A306E600D85341832307B2
:10DD1400E600DC53E183A307F600F24062440561A8
:10DD240082800100B5B7175700001307A7C8144332
:10DD3400411122C49C5E4AC006C6998326C2858BC3
:10DD44003A84175900001309A9C6D1CB9C5E975495
:10DD540000009384E4C693F7F7F99CDE175700009C
:10DD6400034767C693070008631BF700832709006E
:10DD74009C4393F70704175700002306F7C483C78F
:10DD8400040093F707049DC3975700009387C7AB1C
:10DD94009C4382979757000023ACA7C283C7040013
:10DDA40093F7F70B17570000230CF7C083C7440001
:10DDB40093F707048DE7854717570000A304F7C0BE
:10DDC40097570000938787C19C43096798C7130737
:10DDD40000FC975600002387E6BED844F8D31C40C5
:10DDE400985F1183058B09CB985F3D9B98DF0547AE
:10DDF400975600002388E6BC985F1D83058B11CBE2
:10DE0400985F1377F7F798DF854717570000230BC0
:10DE1400F7BA83270900D8430583058B19C7D8436C
:10DE2400759BD8C3D843799BD8C3B240224492444B
:10DE3400024941018280397106DE16DC1ADA1ED8E5
:10DE44002AD62ED432D236D03ACE3ECC42CA46C896
:10DE540072C676C47AC27EC0F935F250E252525389
:10DE6400C2533255A255125682567247E24752485F
:10DE7400C248324EA24E124F824F216173002030AD
:10DE840097570000938787B594439757000093876B
:10DE940027B303C70700058B11CB975700002383D3
:10DEA40007B297570000A38F07B0828003C71700FB
:10DEB400058B65F7F85271FF83C75700DDB7175814
:10DEC4000000130828AF032708001C5F9583858B87
:10DED400D1E709C61C5BBD832300F60085CA8327EE
:10DEE4000800985B4607935767016356070093E75A
:10DEF40007C0C207C18303970600C207C18709C7C9
:10DF0400BA970947B3C7E7022390F60085CD834744
:10DF140015008DCB9756000083C6E6AA93F6060437
:10DF24001387970089478DCA3A95034705008546AC
:10DF340099471376F7066311D60262076187B947DA
:10DF4400634C0700832708009C5FED838D8B175774
:10DF54000000A30CF7A681473E8582808547EDBF6C
:10DF6400411122C406C617540000130424A7184004
:10DF740049E9AE877453FDFE3E85B285975700008C
:10DF8400238107A4976003E0E78080469757000049
:10DF9400938747A29C43B70680009843558F98C344
:10DFA400D857719BD8D797570000A38D07A09757D0
:10DFB4000000A38707A01C40094798C3B7F700E0F7
:10DFC40003A707D16D9B23A8E7D003A707D15D9BC7
:10DFD40023A8E7D07300501014401757000013070C
:10DFE400279E83472700858B89EB83473700858BE2
:10DFF400D9C7975700002387079CB24022444101A8
:10E0040082808D476310F502975700009387879AA3
:10E014009C43B70680009843558F98C3D857719B8B
:10E02400D8D75DBF8547E319F5FAB567BD075CC767
:10E034000F1000001C400967094698C7130700F831
:10E04400975600002380E698175700001307879619
:10E054001443984231830D8B6319C7001307E043BF
:10E06400F8D33D673D07D8C785BF984231830D8BF0
:10E0740001E713076019EDB71307E01BD5B7FC528E
:10E08400ADF3A5BF5D7152DC175A0000130A8A92E2
:10E0940003270A0086C6A2C4A6C2CAC04EDE1C4319
:10E0A4009759000093894998175900001309099357
:10E0B40093F7F7E793E707081CC383A6090037071C
:10E0C400CEFF7D179C46130680022A84F98F9CC6D6
:10E0D40083270900130700082800B8CBAE849305F2
:10E0E4001008EFE03FFD976003E0E780605A976017
:10E0F40003E0E780606783270A009376F41F370FF5
:10E10400FCFF23A40700984B4E88CA881367F703C3
:10E1140098CBF84F130510F8D285137707E0558F85
:10E12400F8CF9843F576FD16758F98C39843B706D4
:10E134003300B70204001377F7E798C398439303B7
:10E14400401F7D1F1377F7E71367071098C303A7D2
:10E154000900930F800285491C47D58F1CC783276C
:10E1640009001307900D3400B8CB1149014713532C
:10E17400370026938347030013767700B3D7C7404D
:10E18400858BDDCF9C41832E0800239C07042390BC
:10E19400070603AECE02137EDEFF23A6CE0383AEB4
:10E1A4000700137EF70793FE0EF833EECE0123A08B
:10E1B400C70103AE4702336E5E0023A2C70383AEDA
:10E1C4000800014E23A27E0603DA070663074E0306
:10E1D40003AE0703038A0600135EFE00620E135E9D
:10E1E4008E416358CA0103AE0703135EFE00238009
:10E1F400C60103DE0706137EFE0F03AA4E0663065E
:10E204000A0003DA8705E37F49FB03AE4702337E46
:10E21400EE0123A2C70383870600635CF400034E68
:10E2240003003396C9001346F6FF3376C601230074
:10E23400C3003E8663D3A7002A8613158601618531
:10E2440005071377F70F8506E313F7F3B640264463
:10E2540096440649F259625A6161828097460000E9
:10E264009386C6779C42D847131617016355060256
:10E27400984713161701635006027D57B8D71747FE
:10E2840000001307A752584F050717460000232D17
:10E29400E652116798C798470D83058B1DC317472E
:10E2A4000000034707721367170017460000230A8C
:10E2B400E670130700F8174600002305E6702147AF
:10E2C40098C79847058B09CF174700000347576F36
:10E2D4001367170017460000A304E66E054798C7A6
:10E2E40098470983058B09E798470583058B31CF48
:10E2F4009847174600001306A66C1745000013053F
:10E30400656B0983058B6303071018411843318338
:10E314000D8B75EBAC4B184E93F5050203471700B4
:10E32400CDCD79EF13077006D8CF034706001367E6
:10E334001700174600002305E668114798C71841DF
:10E344005C57F19B93E717005CD79C429847931660
:10E35400370163D606029746000083C6667AC18AEF
:10E364001747000013078772C5CE03474707136793
:10E374000702974600002385E678056798C7984703
:10E384009316270163D106021747000003478763EA
:10E394006207618763570700054797460000238398
:10E3A400E662096798C798479316070163D6060281
:10E3B4009746000083C6D674858A17470000130762
:10E3C400E76CADCE03475707136727009746000055
:10E3D400A388E672216798C7828029D7854563158B
:10E3E400B7001307B00689B789456315B70013074B
:10E3F400F0061DBF8D456315B700130730072DB711
:10E404001307500715B71307600739BF03473600D2
:10E414001367170017460000A305E65A094739BFDA
:10E42400834647070946BD8A6388C60003474707F2
:10E434008D463D8BE313D7F4114725BF8346570719
:10E44400918AC9DA034757071367870041B73971BF
:10E4540006DE16DC1ADA1ED82AD62ED432D236D0EC
:10E464003ACE3ECC42CA46C872C676C47AC27EC090
:10E47400F533F250E2525253C2533255A25512565A
:10E4840082567247E2475248C248324EA24E124F59
:10E49400824F21617300203017470000130747544F
:10E4A4008346B7019747000083C757564C4BB6972E
:10E4B400FD8B33D7F50097460000A383F6529746A9
:10E4C4000000A385F654058B15EF1747000003479A
:10E4D4003754B3F7E702814601471305000233D6E8
:10E4E400E500058A1378F70F19CA6397D700974791
:10E4F4000000A387074F8280850693F6F60F050771
:10E50400E31FA7FC8280974700009387E7339C436F
:10E51400011122CC4EC606CE26CA4AC852C456C2DF
:10E524008297974700009387A74D804781496305E9
:10E53400A406BE84974700009387C72C038767010E
:10E544003E8963550706018D135455009747000013
:10E5540083C7A74A9379F501636DF402370AC0A80B
:10E56400B70A4057153F9C449746000083C6E648C7
:10E57400139756003E9783076901158C63C50700FE
:10E584006363470156979747000023AFE746E37B51
:10E59400D4FC1604B3693401F24062444E85D2447B
:10E5A4004249B249224A924A05618280E37D85F854
:10E5B400B707C0A833848740229579B797470000EE
:10E5C400938787289C43411122C406C626C282979A
:10E5D400974700009387C74280476309A406BE8417
:10E5E40097470000938707228387670163D807044E
:10E5F400018D135455009747000083C70740636794
:10E60400F404593D98449747000083C7073F939605
:10E61400570036971D8C9746000023A7E63EE37209
:10E62400F4FE2244B2409244174500000345553B92
:10E6340081454101176303E06700235AE37A85FAB1
:10E64400B707C0A833848740229565B7B2402244F7
:10E65400924441018280974700009387E73C9843A6
:10E66400B75702009387079F83260709139656001E
:10E674006358060083260709139666006344060060
:10E68400FD17FDF3828071C5AA870145E9C58D0791
:10E69400C207C183F19BC207C18313074003636FA1
:10E6A400F702174700001307273E084317470000E7
:10E6B4001307073D14436398A60217470000130786
:10E6C4006714185B014541CB4111C20706C60545D5
:10E6D400DD8D0297B2400145410182801747000059
:10E6E4001307473AD9B70357650035E30357450085
:10E6F400636FF704B306F7402146637CD602032810
:10E704000500938687001D8FAA966117174600009F
:10E714000356260A2392E60023A00601239306004B
:10E7240014C12312F500130786FF974600002392B5
:10E73400E6082313B5009745000083D58507B38702
:10E74400F540174700002316F7062105828008418B
:10E754009DB70145828082800DC197470000938751
:10E76400A73203A30700974700009387673183A864
:10E77400070081469A8763E31701828003A8070094
:10E78400636DF50A636BA80A13878700E367E5FEE8
:10E7940003D66700216705076317E60003C7019BDB
:10E7A40005072388E19A974500009385250003D641
:10E7B400470003D76500239307003297420741833C
:10E7C400174500002317E5FE638A6702174500001A
:10E7D4001305452B08416303F50203D5660019EDC3
:10E7E40083D7460023A0060121073E9621062392E3
:10E7F400C60097470000239EE7FAB6879843E30EC6
:10E8040017F7974600009386E6279442E307D7F666
:10E8140083566700BDF283D647000356470018436A
:10E82400A106B2962392D70098C383D76500A107A7
:10E8340017470000231FF7F68280BE86C28725BFD4
:10E844000111974700009387672422CC03A4C70BC8
:10E8540026CA4AC84EC606CEAA841309250085498D
:10E8640015C083C7140003473400858B6304F70085
:10E87400405CFDB71946930544004A85EFE01F89C3
:10E88400E31835FF2285F2406244D2444249B2493A
:10E89400056182804111974700009387271F22C496
:10E8A40003A4C70B26C24AC006C693042500054923
:10E8B40001E82285B2402244924402494101828007
:10E8C400A6851305A402970004E0E780E0C5E302EF
:10E8D40025FF405CF1BF4111974700009387071B58
:10E8E40022C403A4C70B26C24AC006C6930425004B
:10E8F400054901E82285B24022449244024941017B
:10E904008280A6851305A401970004E0E780C0C1B6
:08E91400E30225FF405CF1BFA6
:10E920009751FF1F938101C31791FF1F1301816D41
:10E9300017D5FFFF1305456D9715FF1F9385856C50
:10E940001746FF1F130686FD63FAC50083220500E4
:10E9500023A0550011059105E3EAC5FE1705040043
:10E960001305053B9745FF1F938545FB13860188DB
:10E9700063FAC5008322050023A055001105910507
:10E98000E3EAC5FE138501889785FF1F938505225D
:10E990006377B500232005001105E36DB5FEFD4248
:10E9A000739002BC8D4273904280B7220000938224
:10E9B000828873A002309712FF1F9382A26493E2B1
:10E9C000320073905230971201009382A2FD73902F
:10E9D0001234730020303D432A876373C302937758
:10E9E000F700BDEFADE5937606FF3D8ABA960CC3FE
:10E9F0004CC30CC74CC74107E36BD7FE11E28280C2
:10EA0000B306C3408A069702000096966780A60068
:10EA10002307B700A306B7002306B700A305B70076
:10EA20002305B700A304B7002304B700A303B7006E
:10EA30002303B700A302B7002302B700A301B70066
:10EA40002301B700A300B7002300B700828093F52D
:10EA5000F50F93968500D58D93960501D58D61B7F9
:10EA6000939627009702000096968682E78086FAA2
:10EA70009680C1171D8F3E96E374C3F8A5B7336720
:10EA8000B500FD530D8B79E7B7877F7F9387F7F745
:10EA900010419441B372F6003363F600BE92B3E2C4
:10EAA00062006397720C6318D6065041D441B3726A
:10EAB000F6003363F600BE92B3E262006398720A16
:10EAC000631BD60410459445B372F6003363F60019
:10EAD000BE92B3E262006391720A631ED602504591
:10EAE000D445B372F6003363F600BE92B3E262001F
:10EAF000639A72086311D60210499449B372F60002
:10EB00003363F600BE92B3E262006393720851056C
:10EB1000D105E30FD6F61317060193970601631C80
:10EB2000F7001357060193D706013305F740937595
:10EB3000F50F91E982804183C1833305F7409375D6
:10EB4000F50F91E182801377F70F93F7F70F3305F5
:10EB5000F74082800346050083C60500050585054C
:10EB60006313D60065FA3305D640828011059105FE
:10EB7000E312D6FE014582802105A105E31CD6FCE7
:10EB8000014582803105B105E316D6FC014582803E
:10EB90004105C105E310D6FC0145828001471146BD
:10EBA0004148B386E5008147B308F50083C80800F3
:10EBB0008507C10623A816FFE398C7FE11071105B4
:10EBC000E31107FF8280935785019CC1935705414C
:10EBD00093F7F70FDCC19357854093F7F70F137541
:10EBE000F50F9CC5C8C582801C4141111307050162
:10EBF0003EC05C413EC21C453EC45C453EC6939748
:10EC000025001408B69783A707FF85051105232E55
:10EC1000F5FE8D89E315E5FE41018280397122DC24
:10EC20004166138441A206DE26DA4AD84ED652D473
:10EC300056D25AD05ECE93050501A2863708FF0052
:10EC40007D1683070500034735001105E207D98FBC
:10EC50000307D5FF9106420733770701D98F0307D2
:10EC6000E5FF2207718FD98F23AEF6FEE39BA5FC4B
:10EC700081499144930A010117BB0300130B8BDFF9
:10EC800097BB0300938B8BDC130AC00293F734000D
:10EC9000032904004844BDE78A85353785450A8540
:10ECA000A1370A871C43110793F6F70093F7070F64
:10ECB000DA97B69783C70700232EF7FEE394EAFEA0
:10ECC000024592476205C2075D8DB2475D8DA2473E
:10ECD000A2075D8D93972900DE979C4385093D8DA2
:10ECE0003345250108C885041104E39144FBF25023
:10ECF0006254D2544259B259225A925A025BF24B90
:10ED0000216182803345A90008C8F1BF797122D4FE
:10ED100026D24AD04ECE52CC56CA06D62A8A9399CB
:10ED200045000144938A41A213090101C144B3077C
:10ED30003401D69788438A85793533078A008A87D4
:10ED40001443904391074107B18E2328D7FEE399DE
:10ED500027FF1104E31D94FCB2502254925402592F
:10ED6000F249624AD24A45618280397122DC130439
:10ED7000050106DE22878147C1460C433306F100B8
:10ED800011070CC24C4710083E960CC24C4F101095
:10ED90003E960CC29107E392D7FE85450A85A935B8
:10EDA0008945080891358D4508103D3D814741470B
:10EDB000B306F10094421104232ED4FE1408BE962B
:10EDC000944254C41410BE969442910754CCE391DB
:10EDD000E7FEF250625421618280060593770510A8
:10EDE00089C71375F50F1345B5018280411106C619
:10EDF000ED37B2404101D5B781471148C14833864C
:10EE0000F500B306F500014703AE06003303E60044
:10EE100005072300C301C106E31807FF9107E3902C
:10EE200017FF82809306050117B60300130686C4F8
:10EE300013050505138706FF1C43110793F5F7001B
:10EE400093F7070FB297AE9783C70700232EF7FEFD
:10EE5000E394E6FEC106E31FD5FC8280411122C483
:10EE600006C626C285472E846301F50289476318CA
:10EE7000F5002244B24092442E854101B9BF8D472E
:10EE8000631BF5002E85913F298C2285B2402244D8
:10EE9000924441018280A5476315F5002E85B9375C
:10EEA000DDB7AD47631AF5002E8589373D37AA8453
:10EEB00022852537258DC9BFB5476316F5002E85F8
:10EEC0003537AA84FDB7B947E311F5FC2E85393FE4
:10EED000AA842137A98C228509373344950075B758
:10EEE0006382051493F7F500639E07121571D6C36C
:10EEF000AA8A3285A2CDA6CB86CFCAC9CEC7D2C533
:10EF0000DAC15EDF62DD66DB6AD96ED73284AE8439
:10EF1000EF702357C147631EF50022850133014975
:10EF2000130A010697BB0300938BCBC8294C63419E
:10EF30009902FE406E44DE444E49BE492E4A9E4A26
:10EF40000E4BFA5B6A5CDA5C4A5DBA5D2D618280C9
:10EF5000338B2A010C105A859131814508107D337D
:10EF600085490810C135081009351C10D2863E8726
:10EF700010434107C10623A8C6FE032647FF23AA64
:10EF8000C6FE032687FF23ACC6FE0326C7FF23AEBB
:10EF9000C6FEE31FEAFC17B703001307A7BD03284B
:10EFA0000700832D4700032D8700832CC700528460
:10EFB000138607010C4042853ECE3ACC32CA42C885
:10EFC000713D0C482AC66E85513DB2460C50110465
:10EFD000A98E6A8536C65935B2464C54A98E6685C7
:10EFE00036C6AD3DB246F2475246358D88C39107CD
:10EFF00042486247E310F6FC4107B287E391EBFA1F
:10F00000CE85081085091933E39D89F50810193D4F
:10F010000810A13BA9450810D539DA850810E93B4D
:10F02000410931B782809307F00F6384F60A2D718E
:10F03000232A911023282111B2842326311113068B
:10F0400000102E89AA89930530020A85232E1110FB
:10F05000232C811036844132A2852685EFB0D068FA
:10F0600013178500935785003365F7002310A1001F
:10F07000A685228613053100930434002301810004
:10F0800093F4F40FEF60C36893F6F40089C64D045F
:10F09000158C9374F40F1C02A697A6850A8517B6E3
:10F0A0000300130626B1238007F01D3D26868A85BE
:10F0B0004E85EF60E365230099008320C11103248E
:10F0C000811183244111032901118329C110156184
:10F0D00082808280411106C6EF70905AB240AA86A3
:10F0E00017B70300130707B31756FF1F130686163B
:10F0F00097B50300938545B3114541016FB0507733
:10F10000130101DB2324812423202125232611241C
:10F1100023229124232E3123232C4123232A5123DC
:10F120002328612303470500930710042A892E84AE
:10F13000631FF76603471500930740056319F766D9
:10F14000034725009307E0056313F7662E86AA851B
:10F150002545EFB090671306D003A2854A85EFB02E
:10F16000B07EAA84635A05003546A2854A85EFB071
:10F17000B07DAA84634405089389D4FF93071003E4
:10F1800063CE37074E86930539002808EF70433366
:10F190001C1CBE9917BA0300130ACAD3238409DEC4
:10F1A000D28A81494D4B83254A002808EFB09073DD
:10F1B0000DC18E09D69983D709004947636FF700BF
:10F1C00017B70300130747A08A07BA979C43BA975B
:10F1D00082878509210AE39869FD97B50300938525
:10F1E000A5CECDA89305F4FF858D13851400C20527
:10F1F00081460146C1814A95EF20D0478320C12432
:10F200000324812483244124032901248329C12345
:10F21000032A8123832A4123032B01231301012580
:10F2200082801306F4FF058E938514004206418206
:10F23000CA95E800EFC0A0191305D104EF7063244C
:10F2400093150501C1811305D104EFC0C02497B502
:10F2500003009385A59E1305D104EFB0B06819CDC6
:10F2600097B503009385059E0545EFB0B04B176534
:10F27000FF1F0345C5C4EF50406449B797B503006D
:10F280009385859D1305D104EFB0D06519CD97B551
:10F2900003009385E59C0545EFB0D0481765FF1F37
:10F2A0000345E5C1EF50206491BF97B503009385F6
:10F2B000259C1305D104EFB0F0620DC13717004053
:10F2C0008327C70C97B503009385059B93E7070138
:10F2D0002326F70C2545EFB0F0440DB797B5030092
:10F2E0009385459A1305D104EFB0D05F11CD371740
:10F2F00000408327870C97B503009385259993E7F2
:10F3000007012324F70CF9B797B503009385859877
:10F310001305D104EFB0105D11CD371700408327DE
:10F32000C70C97B503009385A59793E70708232695
:10F33000F70C4DB797B50300938585971305D10456
:10F34000EFB0505A11CD371700408327870C97B57F
:10F3500003009385A59693E707082324F70C9DBF28
:10F3600097B50300938585961305D104EFB09057A8
:10F3700097B503009385459631FD97B503009385B6
:10F3800065961305D104EFB0F05597B5030093854A
:10F39000259629F197B50300938545961305D10469
:10F3A000EFB0505411C59767FF1F23A307B2B9B53B
:10F3B00097B50300938545951305D104EFB090529E
:10F3C00001C5EF50D0711DBD97B50300938585949D
:10F3D0001305D104EFB0105101C5EF50B07039BD25
:10F3E00097B503009385C5931305D104EFB0904FF3
:10F3F00001C5EF50706E19B597B50300938505935D
:10F400001305D104EFB0104E01C5EF50B06EFDB33F
:10F4100097B50300938545921305D104EFB0904C46
:10F4200011C913059108EF60E32B1375F50FEF5029
:10F430003069E9B397B50300938545901305D1046E
:10F44000EFB0504A01C5EF90E00D4DBB97B50300FA
:10F450009385458F1305D104EFB0D04809C5054504
:10F46000EF90002061BB97B503009385258E1305AF
:10F47000D104EFB0304719C10145DDB797B503009E
:10F480009385458D1305D104EFB0D04511C93717C9
:10F4900000408327C70AA166D58F2326F70AB9BB88
:10F4A00097B503009385858B1305D104EFB0904386
:10F4B00011C9371700408327870AA166D58F2324F7
:10F4C000F70A2DBB97B503009385C5891305D104B1
:10F4D000EFB0504101C5EFC0904D0DB30346D104CC
:10F4E000A547130606FD1376F60FE3E9C7D0976725
:10F4F000FF1FA386C79C97B50300938565870145C9
:10F50000EFB01037E5B91306F4FF058E138514002C
:10F510004206418297B503009385853A4A95EFB03C
:10F5200030501764FF1F1304A49829C597B5030032
:10F53000938545851145EFB0F01E1C4097B503003B
:10F5400093850585E80093E717001767FF1F2321C0
:10F55000F796EF60F371E800EF60B37213160501E0
:10F560004182EC0013850168EF80003A4145EFC00D
:10F57000404E69B197B50300938505831145EFB0FF
:10F58000701A7D55EFC0C04F1C40F99B1767FF1FD5
:10F590002320F792A5B13D3E95B11306F4FF058EE9
:10F5A000138514004206418297B5030093854531C7
:10F5B0004A95EFB0F0461764FF1F1304648F21C112
:10F5C0001C4097A503009385A57CE80093E71700EE
:10F5D0001767FF1F232EF78CEF609369E800EF6039
:10F5E000536A13160501EC00418213850168EF8010
:10F5F000A03197A503009385E57B1145E9B997A54F
:10F6000003009385E57BE800EF609366E800EF6018
:10F61000536713160501EC00418213850168EF80E2
:10F62000A02E1C4097A503009385057BF99B1767C7
:10F63000FF1F232FF786D1B7EF7000409767FF1F9A
:10F6400093870787A843EF50D360AE862A8697A595
:10F650000300938525791145EFB0902145B6EF5011
:10F66000003E69BE17B603001306062697A50300E1
:10F6700093850578114569B5EF70B00497A503002F
:10F680009385C5773DF997A5030093852578B5B790
:10F690000D45EF80F04EAA84EF50B35B2A86AE860C
:10F6A000254597A503009385A577EFB0701C97A714
:10F6B0000300938767588843A6851754FF1F1304D8
:10F6C00024D1EF50A36E2320A422EF70D005032590
:10F6D0000422EF501358AE862A8697A5030093851F
:10F6E000E57495BF81451145EF507027EF70807824
:10F6F0002A8697A5030093852576ADBF81451D45D4
:10F70000EF50F02581452545EF50702597A5030062
:10F71000938585752145EF509024EF7000762AC6B9
:10F72000EF706076B2462A871756FF1F130686B21F
:10F7300097A50300938585731145EFB070137DBCC9
:10F740001757FF1F035787EA9756FF1F938666D206
:10F750001756FF1F130606B097A503009385457340
:10F76000E1BF85471757FF1F230AF7E8EF70A07B1B
:10F7700097A503009385057349B51757FF1F0347E6
:10F78000E7E7854797A5030093854572E317F7E6FA
:10F79000C5B79757FF1F9387A771C85FEF50734B8B
:10F7A000AE862A8697A503009385C5706DB5014680
:10F7B000A2854A85EF50A07B91B4411122C42164F7
:10F7C0009305048099460146254506C69710FF1FFC
:10F7D000E7806054930504802244B2409946138622
:10F7E0000188294541011713FF1F6700C35299E1A2
:10F7F0000145828075DD011152C403DA418826CAB1
:10F8000093548A008504A204C204C18056C2B38AFC
:10F810004441C20A22CC4AC82E862E842A8997B532
:10F8200003009385658F254593DA0A014EC606CEFF
:10F8300093890188EFB0D00363ED8A0883D54188AE
:10F8400093F7F50FB1CF8D6783D5418893870780F4
:10F85000A2864A86BE9529459710FF1FE780A04BD8
:10F860001375F50F29ED83D749001566A2972392EA
:10F87000F18803D7418883D721886309F70063F3B0
:10F88000E700B297998F139607014182254597B5F6
:10F8900003009385E589EFB0A07D1375F40F0DA0EB
:10F8A0008D6793870780930600100146BE95254516
:10F8B0009710FF1FE78020461375F50F49D50145C6
:10F8C000F2406244D2444249B249224A924A056116
:10F8D0008280B3079440D297C207C183A18303C734
:10F8E0004900850793F7F70F9396870011EB9386EE
:10F8F000170093740AF0A206C204C206C180C18236
:10F9000083D7218863F6F40033879600E3C9E7FACA
:10F910000D6A130A0A800146B385440125459710F4
:10F92000FF1FE780403F1375F50F51F983D54188DC
:10F93000A2864A86D29505B7411122C41384018854
:10F9400022858145194606C69710FF1FE780C076BD
:10F950009307B0FA2300F4008D352244B24097A5F6
:10F9600003009385E573254541016FB0A05BA16558
:10F970004111994613860188938505802D4506C659
:10F980009710FF1FE780203903C701889307B00A4B
:10F990006303F7005537B24083D6418803D62188E8
:10F9A00097A5030093858570254541016FB0406C94
:10F9B00083D741AD0145638C071003D561AD636604
:10F9C000F50023AA01AC014582803385A740D147C9
:10F9D0003355F5021375F50F01E5239A01AC8280CA
:10F9E000130101BD23248142232611422322914287
:10F9F00023202143232E3141232C4141232A5141ED
:10FA000095471374F50F63F3A7001544228697A555
:10FA100003009385A5732545EFB0806501498144B6
:10FA2000938981AD514AA14A9377F90F03D561AD0E
:10FA30001757FF1F034767B063E98704D1473304B3
:10FA4000F4022A94239B81ACA147631CF706A68588
:10FA50000808EF40C01203D761AD83D741AD05451B
:10FA60006364F70023AA01AC8320C14203248142CE
:10FA700083244142032901428329C141032A814150
:10FA8000832A4141130101438280B30749031408CB
:10FA9000AA97CE9733859600631E5701BE85EF4027
:10FAA000802D2317A1008357E1000509BE94C204ED
:10FAB000C1809DBFAA851306E1003E85EF9030030B
:10FAC000DDB726860C080145EF60706169B782805A
:10FAD000011106CE22CC26CA4AC84EC691E901447D
:10FAE0002285F2406244D2444249B2490561828093
:10FAF000AA8975D583D7418803D621882E84956439
:10FB0000638AC7006374F60015673A961D8E9314D6
:10FB10000601C180268697A5030093856555254576
:10FB2000EFB00055938714F06356F4009307F00F7D
:10FB300063EA970097A50300938505552545EFB027
:10FB4000205371BF83D4418833878400956763C78E
:10FB5000E700A2854E8561398D3159B715693309A2
:10FB60009940420913590901CA854E85493125D961
:10FB7000ED75A695A295C20523920188C1813385B2
:10FB80002901D1BF83D641AD81EA97A503009385B2
:10FB9000255625456FB0003903D661AD4111918ED0
:10FBA00097A503009385C555254506C6EFB0404C83
:10FBB000138741AD8355070083D761AD138581ADB0
:10FBC0009D8DC2053E95C1812137B24023AA01AC6B
:10FBD00041018280411183D741AD22C426C206C6AD
:10FBE000AE971307401FAA842E84635AF700593F2B
:10FBF00097A503009385854D2545EFB0A03283D7A7
:10FC000041AD138581AD2286A6853E95EF505330D8
:10FC100003D641AD229642062244B240924441822C
:10FC2000239AC1AC97A503009385C54B2545410197
:10FC30006FB00044011126CA06CE22CC4AC84EC677
:10FC400052C456C2814459C1D1C183D7218803D43B
:10FC50004188638D870663F587081D8C42044180C7
:10FC6000AE892A89228697A503009385E53C014544
:10FC7000EFB00040A28463F38900CE84C2040D6A11
:10FC800083D7218803D74188C180938A0188130ACA
:10FC90000A8063FAE704A6864A86B38547012D45A4
:10FCA0009710FF1FE780200783D72A00A69723918C
:10FCB000F188EFF09FB083D6418803D6218897A5BD
:10FCC00003009385A5382545EFB0803AF2406244A1
:10FCD00026854249D244B249224A924A056182802D
:10FCE00015673A949DBF15671D8FB385470163D58E
:10FCF000E400A6864A8665B79569B389F9406D74B4
:10FD00003E94C20993D909012694CE864A864204BC
:10FD10002D459710FF1FE78000004180A286330623
:10FD20003901D2852D45239101889710FF1FE78067
:10FD300080FE83D72A003E94239181889DBF39712C
:10FD400026DA4AD84ED652D456D25AD006DE22DC13
:10FD500062CE66CC2A89EF60C3729374F50F814935
:10FD6000254BE54A17AA0300130ACA4391ECF25047
:10FD700062544E85D2544259B259225A925A025B69
:10FD8000724CE24C2161828003470900930707FD12
:10FD900093F7F70F637CFB009307F7F993F7F70FDF
:10FDA00063E2FA06930797FA93F7F70F1394870124
:10FDB0006184FD14230089002685EF40F33A2A86EA
:10FDC000AE8603250A0083254A0093F4F40F050943
:10FDD000EFF0D0672AC422852EC6EF40F3382246C2
:10FDE000B246EF3013692A8C4E85AE8CEF40F33E5D
:10FDF0002A86AE866285E685EF20937CEF4013313C
:10FE0000AA89ADB79306F7FB93F6F60F8147E3EFA8
:10FE1000DAF8930797FC49BF411122C406C683074D
:10FE200095022A8499C713059502EF50B30B2385D9
:10FE3000A10C8307D41291CB1305D412EF50330ACF
:10FE4000EF50E36B93878109C8D3B240224441014C
:10FE50008280411126C29304150022C497A5030095
:10FE60009385C53A2A84268506C6EFB0A02F63186D
:10FE7000050E97A503009385A5392685EFB0802E42
:10FE800045CD85448307D403DDC313059402EF50A9
:10FE9000730585471305D4036385F40C894763898B
:10FEA000F414EF503304A386A10C8307D408938481
:10FEB000810991CF1305D408EF50D30283C771880D
:10FEC00013871700A697A383E188A38BA704830752
:10FED000D40D91CF1305D40DEF50D30083C7718893
:10FEE00013871700A697A383E188A38BA704830732
:10FEF000D41291CF1305D412EF50C37E83C77188FB
:10FF000013871700A697A383E188A38BA704830711
:10FF1000D41791CF1305D417EF50C37C83C77188D2
:10FF200013871700BE94A383E188A38BA404B24077
:10FF3000224492444101828097A503009385852D38
:10FF40002685EFB02022E31E05F2268597A5030043
:10FF50009385852CEFB000218944E31505F2814497
:10FF600015B7EF5023782387A10C8307D408938417
:10FF7000810991CF1305D408EF50C37683C76188F8
:10FF800013871700A6972383E188A38CA702830712
:10FF9000D40D91CF1305D40DEF50C37483C761887E
:10FFA00013871700A6972383E188A38CA7028307F2
:10FFB000D41291CF1305D412EF50C37283C7618856
:10FFC00013871700A6972383E188A38CA7028307D2
:10FFD000D417B1DF1305D417EF50C37083C76188FE
:10FFE00013871700BE942383E188A38CA40281B7F2
:10FFF000EF50436FA387A10C1DBF411122C406C659
:020000021000EC
:10000000830795072A8499C713059507EF50836DD9
:10001000A385A10C8307D40899C71305D408EF5012
:10002000636C2386A10C8307540B91CB1305540BEF
:10003000EF50E36AEF50A34C9387810988D7B24011
:10004000224441018280411122C406C603071505DE
:100050008147014419C703444505130404FD137483
:10006000F40F0307550619C713055506EF508367AC
:100070009377F50F1374B40F0D476315E4021D4712
:10008000637EF7009757FF1F938787E29C433707EC
:100090000800D98F1757FF1F232CF7E0B2402244E6
:1000A000410182805547E9BF011126CA8146B284C9
:1000B000014652C456C206CE22CC4AC84EC62A8A2F
:1000C000AE8AEF30331E41CD9307E0046386F4001F
:1000D000930730056395F40897A903009389891065
:1000E00003A6090083A649005285D685EF307338F0
:1000F00037949800EF409301130404682A893375FC
:100100008502EF40930D03A6090083A64900EF3056
:10011000233E97A703009387670D9043D443EF30A6
:10012000233D2A8A33558902AE8AEF40130B2A8673
:10013000AE865285D685EF20B34813073005AE87CB
:100140006395E400B7070080AD8FF2406244D2446B
:100150004249B249224A924ABE85056182800145E0
:100160008147E5B7011126CA8146B284014652C4CF
:1001700056C206CE22CC4AC84EC62A8AAE8AEF3074
:10018000731241CD930750046386F4009307700502
:100190006395F40897A903009389C90403A609008D
:1001A00083A649005285D685EF30B32C379498004A
:1001B000EF40C375130404682A8933758502EF4044
:1001C000D30103A6090083A64900EF30633297A745
:1001D00003009387A7019043D443EF3063312A8A09
:1001E00033558902AE8AEF40437F2A86AE86528518
:1001F000D685EF20F33C13077005AE876395E400C6
:10020000B7070080AD8FF2406244D2444249B24900
:10021000224A924ABE850561828001458147E5B741
:10022000411122C406C626C2830755012A84B9C7D4
:10023000A946938707FDB387D702034765011307D4
:1002400007FDBA97A38DF108030775018347850160
:10025000130707FD3307D702938707FD3E97238EC9
:10026000E108830795010347A501938707FDB3873D
:10027000D702130707FDBA97A38EF10883079402EC
:1002800081CB130710046398E7108547238FF1088B
:100290008307D4039384810999C71305D403EF50CE
:1002A000034488C4CCC40306140501CA8844CC4462
:1002B0002384C10CD53B88C4CCC48307540699C79A
:1002C00013055406EF50A34188C8CCC80306940711
:1002D00001CA8848CC48A384C10C693588C8CCC8F9
:1002E0008307D40899CF1305D408EF50433F97A74D
:1002F00003009387A7F29043D443EF30931788CC41
:10030000CCCC8307140A99C71305140AEF50833D18
:10031000239CA10A8307540BB9C7A946938707FDFD
:10032000B387D7020347640B130707FDBA97238DE2
:10033000F1080307740B8347840B130707FD33078A
:10034000D702938707FD3E97A38CE1088307940BA0
:100350000347A40B938707FDB387D702130707FD55
:10036000BA97238CF108838734000567130707E1E8
:10037000B387E7029306C00303C7C109B240224412
:1003800092443307D702BA9703C7D109BA9723A279
:10039000F10C41018280238F0108DDBD13578500D8
:1003A0009357050113D885009376F50F0111137744
:1003B000F70F93F7F70F618593F5F50F1378F80FA3
:1003C00099C211C3B9E3230CD100A30CE100230DA2
:1003D000F100A30DA100034591018347810103476B
:1003E000A1012205A30E01014207C98F230EB1000E
:1003F0000345B101D98F0347D1018345C10162058E
:1004000022075D8DD98D0561828032951375F50FB8
:1004100013138501135383415D4663576608614694
:100420003363C30285071376D70F114593F7F70F90
:100430006305A6002545631AA6007946637FF60288
:1004400005071377F70F85470DA809466312C70400
:100450001386067D93084006B3681603638508007B
:1004600013F5360011C5130500193366A60219EEFF
:1004700075466374F60085470D47230CD100A30C25
:10048000E100230DF100A30D6100B1B77146D5B7AE
:100490007D46E374F6FEB147E314F7FA850693F65A
:1004A000F60F85470547D1BFE35903FC6105FD17EA
:1004B0001313850193F7F70F13538341DDFF7D1766
:1004C0001377F70F1146F947E309C7FA1946E30610
:1004D000C7FA2546E303C7FA2D46E300C7FA894762
:1004E0006316F7021386067D93074006B367F6028C
:1004F00091C793F83600F547E38108F89307001990
:10050000B367F60293B71700F10785BFFD4735F7CC
:10051000FD1693F6F60F31478DB783471500034755
:1005200005000111A2075D8F834725008346350032
:1005300083454500C207D98F0347550022CC174495
:10054000FF1F1304E4E803062420E206220733E534
:10055000F600D98D06CE993513588500135605013E
:1005600093D7850013F7F50F93F7F70F935685018F
:100570001376F60F9375F80F1375F50FEF70303A89
:1005800083471400054793F7B70F6397E70062446A
:10059000F24005616F703048F2406244056182802C
:1005A000497123248116138481098307340083C889
:1005B000D10903C8C10903C7A10983C6910903C6AC
:1005C000810997A503009385E5C6481023261116D7
:1005D0002322911623202117232E3115EF50F36487
:1005E0004810EF50136A18485C48030604033AC0E9
:1005F0003EC2030814035C441844541097A503003A
:10060000938545C53695EF5053624810EF50736798
:100610005C103E958307640017A60300130606C10D
:1006200089C717A603001306E6BF97B50300938595
:100630002588EF50935F4810EF50B364544C104C32
:100640005C1097A503009385E5C13E95EF50F35DDF
:100650004810EF501363030634035C103E9597A5D2
:1006600003009385E5C0EF50535C4810EF50736171
:1006700003072403AA8448503ACE13848109EF402B
:10068000535D72475C10AE862A8697A5030093855A
:1006900025BF33859700EF5053594810EF50735ED4
:1006A0005C1003C6C10C97A503009385E5BE3E957B
:1006B000EF50B3574810EF50D35C5C1097A5030080
:1006C000938585BE3E95EF50B35A1389610BA28482
:1006D00097A903009389497D03C6740519CA481078
:1006E00032CEEF50135A72465C10CE853E95EF50D5
:1006F000D3538504E39224FF4810EF5093585C10C5
:1007000097A503009385C5BA3E95EF50735697A4FD
:100710000300938464790346940319CA481032CEC7
:10072000EF50335672465C10A6853E95EF50F34F5E
:100730000504E31224FF4C102545EFA0A07E832082
:10074000C116032481168324411603290116832927
:10075000C115756182801747FF1F130767751C431A
:10076000411122C426C206C693F68700BA841384B8
:100770008109A1E68306640005476390E60403C788
:10078000A10919EB08444C4401468146EF308331FE
:100790000DE9238F010881A80307340065D703C73B
:1007A000C1096DD303C7D10971DF93E787002285A3
:1007B0001747FF1F232EF76E8D3383076400F9F36D
:1007C000C9BF08484C4801468146EF30A32D71D17E
:1007D00083C7A109DDDF130680079385810913858F
:1007E0000102EF40F37203C501CD9D470505336556
:1007F000F50213068007938581092388A1CC93070E
:1008000080073305F502938781CD3E95EF40537005
:10081000413BDC501306800781451385810917474A
:10082000FF1F232DF76AEFE00F9BB2402244A38302
:100830000188238301889244410182800171232C25
:10084000811E232A911E1306101E2A84AE8468007E
:100850008145232E111E2328211FEFE0CF978145CC
:100860008147014701465148CD485D4363419608A1
:1008700099C12306F1001306A002A6852285EFA0E8
:10088000B00C8347C10051473386A440B387E702C9
:100890009305150078007D16A29585073305F700AE
:1008A000EF4013671306A002A685228503491400B2
:1008B000EFA09009894763C4A7080345C100D14749
:1008C0003305F5027C0005053E95EFF04FC7631D2B
:1008D000A904194697A503009385C5911305D10076
:1008E000EFA010142DC56800EFF09F9335A8B30654
:1008F000C40003C50600930665FD93F6D60F91EA82
:10090000850793F7F70F6361F302854501470506F5
:10091000B1BFB3860703130E011FF296BA96A38EDA
:10092000A6E00507E3D5E8FE8320C11F0324811F4D
:100930008324411F0329011F1301012082803307F3
:10094000F4000347070085073349E900ADB71946AE
:1009500097A503009385458A1305D100EFA0500C9D
:1009600025E9194697A50300938545891305D1000C
:10097000EFA0100B31E9194697A503009385458830
:100980001305D100EFA0D00905ED194697A5030086
:10099000938545871305D100EFA0900811ED194606
:1009A00097A50300938545861305D100EFA0500756
:1009B00025DD68004D338DBF6800EFF0CFE8ADB79F
:1009C0006800EFF00FC98DB76800EFF00FE3A9BF23
:1009D0006800EFF06FC489BF757122C526C34AC194
:1009E000CEDED2DCD6DADAD806C7AA892E898144CF
:1009F00001448147130A4002854A354B139704018D
:100A00004183636C2701BA402A449A440A49F65943
:100A1000665AD65A465B49618280338799000347FC
:100A2000070063004703639C5701631D67019C181F
:100A3000A297A2856800238E07F8093581478504AF
:100A400075BF01449C18A29705041374F40F238EFC
:100A5000E7F893373406E5B7411106C6138501CD93
:100A600083470500130780078145B387E702130614
:100A70008007A1073E95EFD01FF6B2408145114592
:100A800041016FA09076138501CD834705001307C0
:100A90008007B387E702A1073E9582801385010294
:100AA0008280397126DA979403009384A46B62CC18
:100AB00066CA328CB68C9040D44006DE22DC4AD81E
:100AC0004ED652D456D25AD05ECE6AC842C046C222
:100AD00017940300130484693AC43EC6EF306319C7
:100AE00010405440179D0300130DCD68EF20532094
:100AF0002247B2479040D4402A8AAE8A3A85BE85C2
:100B0000EF30231710405440EF20931E2A89AE89FE
:100B10002A86AE865285D685EF30236103260D00E6
:100B200083264D00EF30E314EFE0307D2A8BAE8B4F
:100B30005285D685EFE050732A8AAE8A4A85CE85E3
:100B4000EFE09072024892482A894286C686AE89B2
:100B50006285E685EF30635D9040D440EF306311ED
:100B600010405440EF20D31803260D0083264D007B
:100B7000EF302310EFE070782A84AE844A86CE8668
:100B80005285D685EF30E30E2286A686EF30630EBF
:100B90002286A686EF30E30D2A84AE845A86DE864E
:100BA0005A85DE85EF30E30C2A86AE862285A6853F
:100BB000EF200321EFF0E03BEFE0707D2A86AE8668
:100BC000EF200320979703009387475B9043D4431C
:100BD000EF30230A979703009387C75A9043D44373
:100BE000EF302309F2506254D2544259B259225A7A
:100BF000925A025BF24B624CD24C424D2161828090
:100C0000184193870111104598C303574500544577
:100C100090C72392E70058551049D4C7544998CF3C
:100C2000979503009385455A0547254590CBD4CB2E
:100C3000238EE7006FA0002F5971D2CC138A01CD0B
:100C4000A2D4A6D2CECED6CADAC8DEC6E2C4E6C2E6
:100C500086D6CAD083C401CD8149930B80075284C4
:100C6000179C0300130C8C52854C1D4B954A3389FD
:100C7000740352998307E900638C071A03260C005A
:100C800083264C000325090283254902EF201373B4
:100C90006340051A83470904638E971993971900D7
:100CA0005808BA97035789022390E7007C00CE9733
:100CB0002380970085099904B3E46403E39959FB01
:100CC0000357C10183574101998F13D7F741B98F5A
:100CD000998F939407011307400BC1806358F70065
:100CE00093078016B3849740C204C18026869795E7
:100CF00003009385254A0810EF5023730C102545F7
:100D0000EFA04022938714FFC207C1837947636035
:100D1000F7068344D1001309800785450145B38454
:100D20002403A104A2942686EF8070428347F10039
:100D300085450145B3872703A1073E942286EF80AE
:100D40001041A6850D45EF304005A2850D45EF30D9
:100D5000C0040545B650265496540659F649664ACD
:100D6000D64A464BB64B264C964C6561828093071B
:100D7000D002E3F097FE034BC100130A80078545BC
:100D8000330B4B030145930B8B00A29B5E86EF80D8
:100D9000103C834AD10085450145B38A4A03229B12
:100DA000A10AA29A5686EF80903A8349E1008545D0
:100DB0000145B3894903A109A2994E86EF803039D4
:100DC0000349F10085450145330949032109229969
:100DD0004A86EF80D0378344010185450145B384BD
:100DE0004403A104A2942686EF807036DE850D456B
:100DF000EF20B07AD6850D45EF20307ACE850D45AF
:100E0000EF20B079CA850D45EF203079A6850D45D4
:100E1000EF20B07883C701CD338A470303274B0304
:100E200052945C58E317F7F285472300F40415B792
:100E30007D550DB7795539BF7571094506C722C56E
:100E400026C34AC1CEDEEFA0D04601E523A4018827
:100E500089A813050002EFA0D0456DF9138481889D
:100E60001C40850723A4F188C13B1C401737FF1F96
:100E70000357477663E7E70203C501CD9304800774
:100E800033059502138401CDB307A4000387E7005F
:100E900009CB03C7C1129385011119EB21052295D6
:100EA0008533BA402A449A440A49F65949618280F6
:100EB00003A8870183A8C701984B9049DC4BD4490C
:100EC0008845CC45EFF0FFBD2A86AE862A89AE89DB
:100ED0006800979503009385652DEF5003556C00CE
:100EE0002545EFA020041735FF1F03457558EF3047
:100EF000B3272A86AE864A85CE85EF205341E3523A
:100F0000A0FA03C601CD33069602854501452106A8
:100F10002296EF80D02383C501CDB38595020D4580
:100F2000A105A295EF20706703C501CD3305950299
:100F300021052295EFF0DFCC11BF914763E3C70A8B
:100F400017970300130787370A063A961C42411188
:100F500022C406C6BA972A84828797B50300938570
:100F600065831145EF90107CA2851145EF90907B31
:100F70002244B24097B50300938585831145410112
:100F80006F90507AB9CA9737FF1F83C7C76781C769
:100F90009042EF5030212244B24001469765000054
:100FA0009385C5A63D4541016F30806D9DC62244A5
:100FB000C8C2B24003C5A6002394B6003686954544
:100FC00041016F80D0182244B24041016FE05020AF
:100FD0002244B24041016F302027B24022444101F7
:100FE00082808280411106C6EF90A02CB240410160
:100FF0006F809076557158109306310213062102C6
:1010000093051102930751021305610286C7EF7021
:10101000E00A9747FF1F9387A7E99C43BD9B1747AB
:10102000FF1F2327F7E8EFF01FA60303050393052F
:10103000E0048356610203471102834721020348FB
:10104000310283484102034E510217D603001306B2
:10105000E6A76316B300179603001306A6D4830E03
:10106000150313035004032F8500832FC5009795A4
:101070000300938525D363866E0097D5030093857F
:10108000E5A403230501832345017AC41ACC1ECEAF
:101090007EC672C02EC832C297A50300938545BE96
:1010A0001736FF1F1306061B2810EF500338EF807A
:1010B000702B2810EF50E33C9387C1889043931521
:1010C0000501938601132810C181853DBE406961E9
:1010D0008280411122C426C206C623A6B1882A8472
:1010E000B28481C69C4223A8F1120545EFB0807CF2
:1010F0000545EFB090040347040089476317F702E2
:101100001305D403EF40035E0DE1EFB0A07DEFB017
:10111000B00813050002EFA0B01697950300938561
:10112000A5272685EF50C33441A003470400854717
:1011300063F2E7081305D4039747FF1F239907DEDF
:10114000EF40435A9747FF1F2382A7DE13059407FA
:10115000EF4043591375F50F9747FF1F238AA7DC0C
:101160001747FF1F034787DC8D4763E6E7001747F4
:10117000FF1F230DF7DA11E5A9471747FF1F2309C2
:10118000F7DA13050002EFA0D00C9746FF1F83C6C5
:1011900026DA1746FF1F034666D997950300938505
:1011A000E5202685EF5063282244B2409244410155
:1011B0006F80901A0545EFA0D0099795030093859D
:1011C000252385B7411122C42A848307D40306C688
:1011D00026C22E8589C71307F0036398E7021737E5
:1011E000FF1F1307B7259736FF1F93861622173662
:1011F000FF1F1306761E979503009385E52D224465
:10120000B240924441016F50432203470400854796
:10121000AE8463FCE700130620039305D40317355F
:10122000FF1F1305751BEF50A3298307940785C380
:1012300003470400894763FCE70013062003930576
:1012400094071735FF1F1305551CEF5063278307BD
:10125000540B85C3034704008D4763FCE700130666
:1012600020039305540B1735FF1F1305351DEF5051
:1012700023258307140F91CF03470400914763FA96
:10128000E7001305140FEF40E3459737FF1FA380D6
:10129000A71E9736FF1F83C6961D1736FF1F13061E
:1012A000F6199735FF1F938555161735FF1F130540
:1012B000B512EF40804A0146977500009385E537E7
:1012C0001305C012EF30C03BEF50F0451737FF1F3A
:1012D0001307D7169736FF1F938636131736FF1F4F
:1012E0001306960F9795030093854521268501BF28
:1012F000411126C206C622C4034705008947AE84B1
:1013000063F7E7029305D5032A84130620031735F4
:10131000FF1F13056505EF50A31A13059407EF404F
:10132000633C9737FF1F2393A70AEF50503AEF50C3
:10133000103E9736FF1F83D666091736FF1F130628
:10134000A60297A503009385A58A2685EF50E30D95
:1013500085479735FF1F9385E5EF1735FF1F130569
:1013600065FF1737FF1FA30BF7F4EF506310973596
:10137000FF1F938575061735FF1F130545F4EF50C2
:10138000230F9735FF1F938555081735FF1F13054A
:1013900025F6EF50E30D9735FF1F9385350A173576
:1013A000FF1F130505F8EF50A30C979503009385D5
:1013B00065861735FF1F130545FEEF50630BEF5091
:1013C00010310146974500009385A5F17945EF302E
:1013D000202B2244B2409244014697750000938529
:1013E000C5251305200841016F308029411122C411
:1013F00026C24AC006C68307D503AE8417990300E8
:101400001309C94D1744FF1F130484AA89C7130782
:10141000F0036391E7041735FF1F03456505EF30BF
:10142000A3540326090083264900EF20630CEF40F4
:10143000030D68C0EF40E301AE862A86979503004E
:101440009385454A2244B24002492685924441018F
:101450006F40B37D1305D503EF40C3289737FF1FB7
:101460002388A7001375F50FEF30035003260900FA
:1014700083264900EF20C307EF40630868C0EF50A0
:10148000902A6840EF30F37CAE862A869795030059
:101490009385454745BFAA870387D7032E8509C78C
:1014A0009306F0036315D7029737FF1F83C797F2A0
:1014B000179603001306863F89E717960300130665
:1014C000663F97950300938565406F401376411101
:1014D0001385D70306C622C42E84EF40A320973776
:1014E000FF1FA389A7EEEF5010249737FF1F83C774
:1014F00077EE979503009385653C89E79795030000
:101500009385453C22852244B24041016F40537689
:10151000411126C206C6AA8422C48387D4032E851D
:1015200089C71307F0036396E7049737FF1F83C744
:1015300097EA05476385E70289CB09476386E70297
:10154000B2402244924441018280979503009385E2
:10155000A53F2244B240924441016F407371979578
:1015600003009385E540F5B7979503009385054300
:10157000CDB79384D4032E84268597950300938555
:10158000E544EF4033761DC189471737FF1FA30499
:10159000F7E4979503009385A5472285EF40536DA7
:1015A0002244B240924441016F50F0172685EF402B
:1015B00063131375F50F9737FF1FA38EA7E08547B9
:1015C000979503009385C542E309F5FC97950300C1
:1015D0009385454079D18947E30DF5FA1737FF1F09
:1015E000A30BF7DE979503009385C5447DB74111A2
:1015F0002E85979503009385654706C6EF40536790
:101600000146974500009385C5CD7945EF304007E9
:10161000B2400146977500009385250213054006E8
:1016200041016F30E005411122C426C206C683077E
:10163000D503AE841734FF1F130484D989C7130759
:10164000F003639BE702830624201796030013062A
:10165000265E63D60600178603001306A674268549
:10166000979503009385055DEF40335C2244B240BB
:10167000924441016F90F0641305D503EF40830657
:101680009737FF1F2387A7F4EF90B063030624204A
:10169000979503009385C55B2545EF90701D8347A3
:1016A00024206147B10793F7F70F6377F700A1474D
:1016B0001737FF1F230FF7F0EF50F00683062420A3
:1016C000179603001306C65663D606001786030056
:1016D0001306466D2244B240268592449795030036
:1016E0009385855741016F405354797122D49307F4
:1016F000D1012E8478089306B1011306A101930548
:1017000091011305E10106D626D2EF60301B834814
:10171000D1010348C1018347B1010347A1018346B9
:1017200091010356E101979503009385A500228559
:10173000EF40B34F2285EF40D3549737FF1F938775
:101740002777CC5303A8C7020566130606E1930664
:10175000C00333F3C50222953377D802B378C802A9
:101760003AC09C5333F7D502B3D8D8023358C802D5
:10177000B356D30233D6C502979503009385C5FDB2
:10178000EF40B34A2285EF40D34FB304A400EF905B
:10179000E032179603001306A6F909C51796030051
:1017A0001306C6F897950300938505FF2685EF403D
:1017B000D3472285EF40F34C1737FF1F0357C770FD
:1017C0009736FF1F83C6166F1736FF1F0346C66E78
:1017D00097950300938545FD2295EF40134522859B
:1017E000EF40334A1736FF1F034616E29795030072
:1017F000938585FE2295EF4053432285EF40734841
:10180000B717004003A6470A83A6470A22952D82F0
:10181000A982858A058A979503009385A5FCEF40E8
:10182000D340B2502254925445618280AA870387E4
:10183000D7032E8509C79306F0036311D7029737A4
:10184000FF1F83C767B997950300938565BF89E735
:10185000979503009385C5C16F409341411113854E
:10186000D70322C406C62E84EF30D3671375F50F55
:101870009737FF1F2382A7B61737FF1F034757B5B8
:1018800089476316F7000DE91145EFA0801C9737D3
:10189000FF1F83C767B4979503009385E5BE89E76B
:1018A00097950300938585C12285EF40733C2244C0
:1018B000B24041016F5020671145EFA0601CC1BFCD
:1018C000AA870387D7032E8509C79306F003631EF3
:1018D000D7029737FF1F83C707B00547638DE7001F
:1018E00089C70947638EE700828097950300938537
:1018F000A5C36F40F33797950300938525C7D5BFE0
:1019000097950300938545CCEDB741111385D70317
:1019100022C406C62E84EF30F35C1375F50F97379B
:10192000FF1F238AA7AA854797950300938505C4BF
:101930006306F50297950300938505BF05C18947A6
:1019400097950300938545C8630AF5001737FF1F75
:101950002303F7A8979503009385C5CC2285EF4014
:1019600033312244B24041016F50E05BAA870387C4
:10197000D7032E8509C79306F003631CD7001736DB
:10198000FF1F0346F6AE979503009385A5EC6F40C5
:10199000D32941111385D70306C622C42E84EF3004
:1019A000F3549737FF1FA385A7ACEF50C05722858C
:1019B0002244B2401736FF1F034696AB97950300AB
:1019C000938585EB4101E1B7411122C425452E8461
:1019D000814506C6EF30A078EF50E04A2A8622857E
:1019E0002244B24097950300938585EB41016F40F7
:1019F000D323411122C41305D5032E8497950300E8
:101A0000938545E006C6EF90E07511CD0145EF5096
:101A1000005C979503009385A5DF22852244B240A0
:101A200041016F40F3240545EF50605A979503003C
:101A30009385C5DFDDB7411122C42A848307D4030F
:101A400006C626C22E8589C71307F003639CE702EA
:101A50009737FF1F938747AB1737FF1F1307A7A7BA
:101A60009736FF1F83D626B81736FF1F130686A3A7
:101A7000979503009385C5012244B24092444101E9
:101A80006F40B31AAE841735FF1F1305A5A1930548
:101A9000D403EF40F31D1735FF1F1305A5A0EF403A
:101AA000531E93150501C1811735FF1F1305859F2F
:101AB000EF9030228307940789CB13059407EF300A
:101AC00073429737FF1F2390A7B28307540B85CB30
:101AD0009305540B1735FF1F1305E59FEF4053196E
